{
  "transactions": [
    {
      "hash": "0x096ab07bbeca9ea0231f797861fdc0a0200fbf5fe1092c88af8eb11bea02b40f",
      "transactionType": "CALL",
      "contractName": null,
      "contractAddress": "0x75faf114eafb1bdbe2f0316df893fd58ce46aa4d",
      "function": "approve(address,uint256)",
      "arguments": [
        "0x5e85A91d5488509FC61EDae1616cF3f312DbF6b8",
        "20000000"
      ],
      "transaction": {
        "from": "0x5b1e22ec6d83fa3008be3bc39c69e3577e3411d4",
        "to": "0x75faf114eafb1bdbe2f0316df893fd58ce46aa4d",
        "gas": "0x11d98",
        "value": "0x0",
        "input": "0x095ea7b30000000000000000000000005e85a91d5488509fc61edae1616cf3f312dbf6b80000000000000000000000000000000000000000000000000000000001312d00",
        "nonce": "0x8",
        "chainId": "0x66eee"
      },
      "additionalContracts": [],
      "isFixedGasLimit": false
    },
    {
      "hash": "0x9d4a52e38bcdabec65251402b1b941a47e7b96332afc34c633ecce86dcfa7558",
      "transactionType": "CALL",
      "contractName": null,
      "contractAddress": "0x5e85a91d5488509fc61edae1616cf3f312dbf6b8",
      "function": "fundProcessor(uint256)",
      "arguments": [
        "20000000"
      ],
      "transaction": {
        "from": "0x5b1e22ec6d83fa3008be3bc39c69e3577e3411d4",
        "to": "0x5e85a91d5488509fc61edae1616cf3f312dbf6b8",
        "gas": "0x2d701",
        "value": "0x0",
        "input": "0x88d9aa4d0000000000000000000000000000000000000000000000000000000001312d00",
        "nonce": "0x9",
        "chainId": "0x66eee"
      },
      "additionalContracts": [],
      "isFixedGasLimit": false
    }
  ],
  "receipts": [
    {
      "status": "0x1",
      "cumulativeGasUsed": "0x2d83f",
      "logs": [
        {
          "address": "0x75faf114eafb1bdbe2f0316df893fd58ce46aa4d",
          "topics": [
            "0x8c5be1e5ebec7d5bd14f71427d1e84f3dd0314c0f7b2291e5b200ac8c7c3b925",
            "0x0000000000000000000000005b1e22ec6d83fa3008be3bc39c69e3577e3411d4",
            "0x0000000000000000000000005e85a91d5488509fc61edae1616cf3f312dbf6b8"
          ],
          "data": "0x0000000000000000000000000000000000000000000000000000000001312d00",
          "blockHash": "0x5654e1ca2cb13b30588e28dd756592c260ea5d8f16e531000eaa4248d1ae5329",
          "blockNumber": "0xfc99e31",
          "blockTimestamp": "0x69f64a38",
          "transactionHash": "0x096ab07bbeca9ea0231f797861fdc0a0200fbf5fe1092c88af8eb11bea02b40f",
          "transactionIndex": "0x3",
          "logIndex": "0x2",
          "removed": false
        }
      ],
      "logsBloom": "0x00000000000000000000000000000000000000000000004000000000000000000000000000000000000000000000000000000000000000080000000000200000800000000000000000000000000000000000000000000000000000000000000000000000000000000000000800000000000000000000000000000000000000800000000000000000000000000000000000000000000010000000000000000000020000000000000000000000000000000000000000000000000000000000000000000000000000000000000000000000000000000000000000000000000000000010000000002000000000000000000000000000000000000100000000000004",
      "type": "0x2",
      "transactionHash": "0x096ab07bbeca9ea0231f797861fdc0a0200fbf5fe1092c88af8eb11bea02b40f",
      "transactionIndex": "0x3",
      "blockHash": "0x5654e1ca2cb13b30588e28dd756592c260ea5d8f16e531000eaa4248d1ae5329",
      "blockNumber": "0xfc99e31",
      "gasUsed": "0xd88d",
      "effectiveGasPrice": "0x131b1d0",
      "from": "0x5b1e22ec6d83fa3008be3bc39c69e3577e3411d4",
      "to": "0x75faf114eafb1bdbe2f0316df893fd58ce46aa4d",
      "contractAddress": null,
      "gasUsedForL1": "0x0",
      "l1BlockNumber": "0xa471a3",
      "timeboosted": false
    },
    {
      "status": "0x1",
      "cumulativeGasUsed": "0x1f119",
      "logs": [
        {
          "address": "0x75faf114eafb1bdbe2f0316df893fd58ce46aa4d",
          "topics": [
            "0xddf252ad1be2c89b69c2b068fc378daa952ba7f163c4a11628f55a4df523b3ef",
            "0x0000000000000000000000005b1e22ec6d83fa3008be3bc39c69e3577e3411d4",
            "0x0000000000000000000000005e85a91d5488509fc61edae1616cf3f312dbf6b8"
          ],
          "data": "0x0000000000000000000000000000000000000000000000000000000001312d00",
          "blockHash": "0xad7533c002a2bb5cf54a0322ecb0a12bd06a4807b5ba1213803050ced50cfbe5",
          "blockNumber": "0xfc99e33",
          "blockTimestamp": "0x69f64a39",
          "transactionHash": "0x9d4a52e38bcdabec65251402b1b941a47e7b96332afc34c633ecce86dcfa7558",
          "transactionIndex": "0x1",
          "logIndex": "0x0",
          "removed": false
        },
        {
          "address": "0x5e85a91d5488509fc61edae1616cf3f312dbf6b8",
          "topics": [
            "0x612c4a5dd4380594efa34ab74adc3c1a3276d5211a44f81ab52d71a228e1d2bc",
            "0x0000000000000000000000000000000000000000000000000000000001312d00",
            "0x0000000000000000000000000000000000000000000000000000000001312d00"
          ],
          "data": "0x0000000000000000000000005b1e22ec6d83fa3008be3bc39c69e3577e3411d4",
          "blockHash": "0xad7533c002a2bb5cf54a0322ecb0a12bd06a4807b5ba1213803050ced50cfbe5",
          "blockNumber": "0xfc99e33",
          "blockTimestamp": "0x69f64a39",
          "transactionHash": "0x9d4a52e38bcdabec65251402b1b941a47e7b96332afc34c633ecce86dcfa7558",
          "transactionIndex": "0x1",
          "logIndex": "0x1",
          "removed": false
        }
      ],
      "logsBloom": "0x00000000000000000000000000000000000001000000004000000000000000000000000000000000000000000000000000000000000000080000000000004000800000000000000000000008000200000000000000000000000000000000040000000000000000000000000800000000000000000000000000210010000000800000000000000000000000000000000000000000000010000000000000000000000000000000000000000000040000000000000000000000000000000000000000000002000000100000000000000000000000000000000000000000000000000000000000002000000000000000000000000000000000000100000000000004",
      "type": "0x2",
      "transactionHash": "0x9d4a52e38bcdabec65251402b1b941a47e7b96332afc34c633ecce86dcfa7558",
      "transactionIndex": "0x1",
      "blockHash": "0xad7533c002a2bb5cf54a0322ecb0a12bd06a4807b5ba1213803050ced50cfbe5",
      "blockNumber": "0xfc99e33",
      "gasUsed": "0x1f119",
      "effectiveGasPrice": "0x1312d00",
      "from": "0x5b1e22ec6d83fa3008be3bc39c69e3577e3411d4",
      "to": "0x5e85a91d5488509fc61edae1616cf3f312dbf6b8",
      "contractAddress": null,
      "gasUsedForL1": "0x0",
      "l1BlockNumber": "0xa471a3",
      "timeboosted": false
    }
  ],
  "libraries": [],
  "pending": [],
  "returns": {},
  "timestamp": 1777748537695,
  "chain": 421614,
  "commit": "deb2114"
}