{
  "transactions": [
    {
      "hash": "0x7e9db5b7c1d426856d6da7122c52c704dee08d369b7c94b14d4158d508067bb3",
      "transactionType": "CREATE2",
      "contractName": "FundProcessorLogic",
      "contractAddress": "0x4d730d7c5403f0b62fa855cc1c3846dc1673c1b1",
      "function": null,
      "arguments": null,
      "transaction": {
        "from": "0x5b1e22ec6d83fa3008be3bc39c69e3577e3411d4",
        "to": "0x4e59b44847b379578588920ca78fbf26c0b4956c",
        "gas": "0x547cc",
        "input": "0x00000000000000000000000000000000000000000000000000000000000000006103ca61004d600b8282823980515f1a6073146041577f4e487b71000000000000000000000000000000000000000000000000000000005f525f60045260245ffd5b305f52607381538281f3fe7300000000000000000000000000000000000000003014608060405260043610610034575f3560e01c8063f3dae24a14610038575b5f5ffd5b818015610043575f5ffd5b5061005e60048036038101906100599190610294565b610074565b60405161006b91906102f3565b60405180910390f35b5f5f83036100ae576040517f9ae3d3a800000000000000000000000000000000000000000000000000000000815260040160405180910390fd5b82826100ba9190610339565b91506100e93330858773ffffffffffffffffffffffffffffffffffffffff1661012c909392919063ffffffff16565b81837f612c4a5dd4380594efa34ab74adc3c1a3276d5211a44f81ab52d71a228e1d2bc3360405161011a919061037b565b60405180910390a38190509392505050565b61013a848484846001610181565b61017b57836040517f5274afe7000000000000000000000000000000000000000000000000000000008152600401610172919061037b565b60405180910390fd5b50505050565b5f5f6323b872dd60e01b9050604051815f525f1960601c87166004525f1960601c86166024528460445260205f60645f5f8c5af1925060015f511483166101df5783831516156101d3573d5f823e3d81fd5b5f883b113d1516831692505b806040525f606052505095945050505050565b5f5ffd5b5f73ffffffffffffffffffffffffffffffffffffffff82169050919050565b5f61021f826101f6565b9050919050565b5f61023082610215565b9050919050565b61024081610226565b811461024a575f5ffd5b50565b5f8135905061025b81610237565b92915050565b5f819050919050565b61027381610261565b811461027d575f5ffd5b50565b5f8135905061028e8161026a565b92915050565b5f5f5f606084860312156102ab576102aa6101f2565b5b5f6102b88682870161024d565b93505060206102c986828701610280565b92505060406102da86828701610280565b9150509250925092565b6102ed81610261565b82525050565b5f6020820190506103065f8301846102e4565b92915050565b7f4e487b71000000000000000000000000000000000000000000000000000000005f52601160045260245ffd5b5f61034382610261565b915061034e83610261565b92508282019050808211156103665761036561030c565b5b92915050565b61037581610215565b82525050565b5f60208201905061038e5f83018461036c565b9291505056fea264697066735822122051486705ade216e73223dd78da7a0e719840dff0d0a30e109c1731f5ebd6c0ee64736f6c63430008210033",
        "nonce": "0x0",
        "chainId": "0x66eee"
      },
      "additionalContracts": [],
      "isFixedGasLimit": false
    },
    {
      "hash": "0x04531ce3cf26b4bc7ebd57d6f291c452b2a6a925346a836ca9b633998e2fa88f",
      "transactionType": "CREATE2",
      "contractName": "WithdrawProcessorLogic",
      "contractAddress": "0x6709df9f3211b6a65c1b0451b1a440f5dbaab0a7",
      "function": null,
      "arguments": null,
      "transaction": {
        "from": "0x5b1e22ec6d83fa3008be3bc39c69e3577e3411d4",
        "to": "0x4e59b44847b379578588920ca78fbf26c0b4956c",
        "gas": "0x78911",
        "input": "0x00000000000000000000000000000000000000000000000000000000000000006105c361004d600b8282823980515f1a6073146041577f4e487b71000000000000000000000000000000000000000000000000000000005f525f60045260245ffd5b305f52607381538281f3fe730000000000000000000000000000000000000000301460806040526004361061003f575f3560e01c80637e650db814610043578063ff092bf81461007f575b5f5ffd5b81801561004e575f5ffd5b5061006960048036038101906100649190610423565b6100bb565b6040516100769190610482565b60405180910390f35b81801561008a575f5ffd5b506100a560048036038101906100a0919061049b565b6101ab565b6040516100b29190610482565b60405180910390f35b5f5f83036100f5576040517f9ae3d3a800000000000000000000000000000000000000000000000000000000815260040160405180910390fd5b8183111561012f576040517fcb6de83300000000000000000000000000000000000000000000000000000000815260040160405180910390fd5b828261013b91906104f3565b915061016833848673ffffffffffffffffffffffffffffffffffffffff166102cc9092919063ffffffff16565b81837f0162e6045ce014e3aa897a6c7ec45a2da8442f4d608a6c2e773f47cc84518a3f336040516101999190610535565b60405180910390a38190509392505050565b5f5f8273ffffffffffffffffffffffffffffffffffffffff166370a08231306040518263ffffffff1660e01b81526004016101e69190610535565b602060405180830381865afa158015610201573d5f5f3e3d5ffd5b505050506040513d601f19601f820116820180604052508101906102259190610562565b90505f8103610260576040517f7216172200000000000000000000000000000000000000000000000000000000815260040160405180910390fd5b61028b33828573ffffffffffffffffffffffffffffffffffffffff166102cc9092919063ffffffff16565b807f66289701c638ae89a82a724919ac3ccd87e1f68605f70c623cdbed65841402ab336040516102bb9190610535565b60405180910390a25f915050919050565b6102d9838383600161031f565b61031a57826040517f5274afe70000000000000000000000000000000000000000000000000000000081526004016103119190610535565b60405180910390fd5b505050565b5f5f63a9059cbb60e01b9050604051815f525f1960601c86166004528460245260205f60445f5f8b5af1925060015f51148316610373578383151615610367573d5f823e3d81fd5b5f873b113d1516831692505b806040525050949350505050565b5f5ffd5b5f73ffffffffffffffffffffffffffffffffffffffff82169050919050565b5f6103ae82610385565b9050919050565b5f6103bf826103a4565b9050919050565b6103cf816103b5565b81146103d9575f5ffd5b50565b5f813590506103ea816103c6565b92915050565b5f819050919050565b610402816103f0565b811461040c575f5ffd5b50565b5f8135905061041d816103f9565b92915050565b5f5f5f6060848603121561043a57610439610381565b5b5f610447868287016103dc565b93505060206104588682870161040f565b92505060406104698682870161040f565b9150509250925092565b61047c816103f0565b82525050565b5f6020820190506104955f830184610473565b92915050565b5f602082840312156104b0576104af610381565b5b5f6104bd848285016103dc565b91505092915050565b7f4e487b71000000000000000000000000000000000000000000000000000000005f52601160045260245ffd5b5f6104fd826103f0565b9150610508836103f0565b92508282039050818111156105205761051f6104c6565b5b92915050565b61052f816103a4565b82525050565b5f6020820190506105485f830184610526565b92915050565b5f8151905061055c816103f9565b92915050565b5f6020828403121561057757610576610381565b5b5f6105848482850161054e565b9150509291505056fea26469706673582212201bd4f82ee4f82b2ad7d94e8f3f4cb89622040e448713c05e103ad29e39951a1064736f6c63430008210033",
        "nonce": "0x1",
        "chainId": "0x66eee"
      },
      "additionalContracts": [],
      "isFixedGasLimit": false
    },
    {
      "hash": "0xf7873ef9ff25bbfa22b5b367d026385b7fb4a410e779d8b80a62122bdb15dc36",
      "transactionType": "CREATE2",
      "contractName": "ProcessingPaymentLogic",
      "contractAddress": "0xb045de9904c56e738a845aa274916db2261f03a5",
      "function": null,
      "arguments": null,
      "transaction": {
        "from": "0x5b1e22ec6d83fa3008be3bc39c69e3577e3411d4",
        "to": "0x4e59b44847b379578588920ca78fbf26c0b4956c",
        "gas": "0xc72a7",
        "input": "0x0000000000000000000000000000000000000000000000000000000000000000610a3061004d600b8282823980515f1a6073146041577f4e487b71000000000000000000000000000000000000000000000000000000005f525f60045260245ffd5b305f52607381538281f3fe7300000000000000000000000000000000000000003014608060405260043610610034575f3560e01c8063e2745f3914610038575b5f5ffd5b818015610043575f5ffd5b5061005e600480360381019061005991906107c7565b610074565b60405161006b919061084e565b60405180910390f35b5f5f8673ffffffffffffffffffffffffffffffffffffffff16636bd50cef6040518163ffffffff1660e01b8152600401606060405180830381865afa1580156100bf573d5f5f3e3d5ffd5b505050506040513d601f19601f820116820180604052508101906100e391906108dc565b90505f815f015190505f826020015190505f855f015190505f866020015190505f876040015190505f886060015190505f73ffffffffffffffffffffffffffffffffffffffff168b73ffffffffffffffffffffffffffffffffffffffff1603610178576040517fa2d6c73c00000000000000000000000000000000000000000000000000000000815260040160405180910390fd5b5f73ffffffffffffffffffffffffffffffffffffffff168673ffffffffffffffffffffffffffffffffffffffff16036101dd576040517f65f90c7000000000000000000000000000000000000000000000000000000000815260040160405180910390fd5b5f73ffffffffffffffffffffffffffffffffffffffff168573ffffffffffffffffffffffffffffffffffffffff1603610242576040517f312591b600000000000000000000000000000000000000000000000000000000815260040160405180910390fd5b5f73ffffffffffffffffffffffffffffffffffffffff168373ffffffffffffffffffffffffffffffffffffffff16036102a7576040517f0e3d866900000000000000000000000000000000000000000000000000000000815260040160405180910390fd5b5f81036102e0576040517f9ae3d3a800000000000000000000000000000000000000000000000000000000815260040160405180910390fd5b8b5f8581526020019081526020015f205f9054906101000a900460ff1615610334576040517fb6f9252900000000000000000000000000000000000000000000000000000000815260040160405180910390fd5b808a101561036e576040517fcb6de83300000000000000000000000000000000000000000000000000000000815260040160405180910390fd5b60018c5f8681526020019081526020015f205f6101000a81548160ff021916908315150217905550808a6103a29190610934565b97506103cf86828d73ffffffffffffffffffffffffffffffffffffffff1661049b9092919063ffffffff16565b8473ffffffffffffffffffffffffffffffffffffffff166323b872dd8785856040518463ffffffff1660e01b815260040161040c93929190610985565b5f604051808303815f87803b158015610423575f5ffd5b505af1158015610435573d5f5f3e3d5ffd5b50505050818373ffffffffffffffffffffffffffffffffffffffff16857f059e10c09d4843f5d2fcfbb6a0db57908645c296e0cd93ee31d9d5e57c5aba75848a6040516104839291906109ba565b60405180910390a45050505050505095945050505050565b6104a883838360016104ee565b6104e957826040517f5274afe70000000000000000000000000000000000000000000000000000000081526004016104e091906109e1565b60405180910390fd5b505050565b5f5f63a9059cbb60e01b9050604051815f525f1960601c86166004528460245260205f60445f5f8b5af1925060015f51148316610542578383151615610536573d5f823e3d81fd5b5f873b113d1516831692505b806040525050949350505050565b5f604051905090565b5f5ffd5b5f73ffffffffffffffffffffffffffffffffffffffff82169050919050565b5f6105868261055d565b9050919050565b5f6105978261057c565b9050919050565b6105a78161058d565b81146105b1575f5ffd5b50565b5f813590506105c28161059e565b92915050565b5f819050919050565b6105da816105c8565b81146105e4575f5ffd5b50565b5f813590506105f5816105d1565b92915050565b5f6106058261057c565b9050919050565b610615816105fb565b811461061f575f5ffd5b50565b5f813590506106308161060c565b92915050565b5f819050919050565b61064881610636565b8114610652575f5ffd5b50565b5f813590506106638161063f565b92915050565b5f5ffd5b5f601f19601f8301169050919050565b7f4e487b71000000000000000000000000000000000000000000000000000000005f52604160045260245ffd5b6106b38261066d565b810181811067ffffffffffffffff821117156106d2576106d161067d565b5b80604052505050565b5f6106e4610550565b90506106f082826106aa565b919050565b5f819050919050565b610707816106f5565b8114610711575f5ffd5b50565b5f81359050610722816106fe565b92915050565b6107318161057c565b811461073b575f5ffd5b50565b5f8135905061074c81610728565b92915050565b5f6080828403121561076757610766610669565b5b61077160806106db565b90505f61078084828501610714565b5f8301525060206107938482850161073e565b60208301525060406107a784828501610655565b60408301525060606107bb84828501610655565b60608301525092915050565b5f5f5f5f5f61010086880312156107e1576107e0610559565b5b5f6107ee888289016105b4565b95505060206107ff888289016105e7565b945050604061081088828901610622565b935050606061082188828901610655565b925050608061083288828901610752565b9150509295509295909350565b61084881610636565b82525050565b5f6020820190506108615f83018461083f565b92915050565b5f8151905061087581610728565b92915050565b5f606082840312156108905761088f610669565b5b61089a60606106db565b90505f6108a984828501610867565b5f8301525060206108bc84828501610867565b60208301525060406108d084828501610867565b60408301525092915050565b5f606082840312156108f1576108f0610559565b5b5f6108fe8482850161087b565b91505092915050565b7f4e487b71000000000000000000000000000000000000000000000000000000005f52601160045260245ffd5b5f61093e82610636565b915061094983610636565b925082820390508181111561096157610960610907565b5b92915050565b6109708161057c565b82525050565b61097f81610636565b82525050565b5f6060820190506109985f830186610967565b6109a56020830185610967565b6109b26040830184610976565b949350505050565b5f6040820190506109cd5f830185610976565b6109da6020830184610967565b9392505050565b5f6020820190506109f45f830184610967565b9291505056fea2646970667358221220527d77eb98324840d382a1b29869a8349b09f4202cc43dbcc1ed33ce2c0d578364736f6c63430008210033",
        "nonce": "0x2",
        "chainId": "0x66eee"
      },
      "additionalContracts": [],
      "isFixedGasLimit": false
    },
    {
      "hash": "0x3982a0ca9b754fadf251d8ef7146e83bf8c3bd794e730816a586df07b7678ace",
      "transactionType": "CREATE",
      "contractName": "PlatformNft",
      "contractAddress": "0xf0212bc88af989feeaf494fb23c8c065583da2e3",
      "function": null,
      "arguments": [
        "0x5B1e22Ec6d83FA3008Be3bC39c69E3577e3411d4",
        "0x5B1e22Ec6d83FA3008Be3bC39c69E3577e3411d4",
        "ipfs://bafybeietec3bj25jax2r73xtyiqvwgpouppkns4s76dndxbnj4dusx6dka/"
      ],
      "transaction": {
        "from": "0x5b1e22ec6d83fa3008be3bc39c69e3577e3411d4",
        "gas": "0x68d966",
        "value": "0x0",
        "input": "0x608060405234801561000f575f5ffd5b50604051613efb380380613efb83398181016040528101906100319190610f43565b826040518060400160405280601b81526020017f4368616d70696f6e73204c65616775652046696e616c203230323600000000008152506040518060400160405280600681526020017f5449434b45540000000000000000000000000000000000000000000000000000815250815f90816100ac91906111d0565b5080600190816100bc91906111d0565b5050505f73ffffffffffffffffffffffffffffffffffffffff168173ffffffffffffffffffffffffffffffffffffffff160361012f575f6040517f1e4fbdf700000000000000000000000000000000000000000000000000000000815260040161012691906112ae565b60405180910390fd5b61013e8161023260201b60201c565b505f73ffffffffffffffffffffffffffffffffffffffff168373ffffffffffffffffffffffffffffffffffffffff16036101a4576040517f9618da3100000000000000000000000000000000000000000000000000000000815260040160405180910390fd5b5f73ffffffffffffffffffffffffffffffffffffffff168273ffffffffffffffffffffffffffffffffffffffff1603610209576040517f9618da3100000000000000000000000000000000000000000000000000000000815260040160405180910390fd5b806008908161021891906111d0565b5061022a8260646102f560201b60201c565b5050506114d9565b5f60065f9054906101000a900473ffffffffffffffffffffffffffffffffffffffff1690508160065f6101000a81548173ffffffffffffffffffffffffffffffffffffffff021916908373ffffffffffffffffffffffffffffffffffffffff1602179055508173ffffffffffffffffffffffffffffffffffffffff168173ffffffffffffffffffffffffffffffffffffffff167f8be0079c531659141344cd1fd0a4f28419497f9722a3daafe3b4186f6b6457e060405160405180910390a35050565b5f600160075461030591906112f4565b90505f5f90505b82811015610342576103378460075f815461032690611327565b91905081905561038f60201b60201c565b80600101905061030c565b508273ffffffffffffffffffffffffffffffffffffffff16600754827f067fc5297e7400c0311c67165a421b5ef74cb22fa48f3bd73fe52f8187cf981960405160405180910390a4505050565b6103ae828260405180602001604052805f8152506103b260201b60201c565b5050565b6103c283836103e760201b60201c565b6103e26103d36104e060201b60201c565b5f8585856104e760201b60201c565b505050565b5f73ffffffffffffffffffffffffffffffffffffffff168273ffffffffffffffffffffffffffffffffffffffff1603610457575f6040517f64a0ae9200000000000000000000000000000000000000000000000000000000815260040161044e91906112ae565b60405180910390fd5b5f61046983835f61069360201b60201c565b90505f73ffffffffffffffffffffffffffffffffffffffff168173ffffffffffffffffffffffffffffffffffffffff16146104db575f6040517f73c6ac6e0000000000000000000000000000000000000000000000000000000081526004016104d291906112ae565b60405180910390fd5b505050565b5f33905090565b5f8373ffffffffffffffffffffffffffffffffffffffff163b111561068c578273ffffffffffffffffffffffffffffffffffffffff1663150b7a02868685856040518563ffffffff1660e01b815260040161054594939291906113cf565b6020604051808303815f875af192505050801561058057506040513d601f19601f8201168201806040525081019061057d919061146e565b60015b610601573d805f81146105ae576040519150601f19603f3d011682016040523d82523d5f602084013e6105b3565b606091505b505f8151036105f957836040517f64a0ae920000000000000000000000000000000000000000000000000000000081526004016105f091906112ae565b60405180910390fd5b805160208201fd5b63150b7a0260e01b7bffffffffffffffffffffffffffffffffffffffffffffffffffffffff1916817bffffffffffffffffffffffffffffffffffffffffffffffffffffffff19161461068a57836040517f64a0ae9200000000000000000000000000000000000000000000000000000000815260040161068191906112ae565b60405180910390fd5b505b5050505050565b5f5f6106a4846108b060201b60201c565b90505f73ffffffffffffffffffffffffffffffffffffffff168373ffffffffffffffffffffffffffffffffffffffff16146106eb576106ea8184866108e960201b60201c565b5b5f73ffffffffffffffffffffffffffffffffffffffff168173ffffffffffffffffffffffffffffffffffffffff161461077c576107305f855f5f6109b260201b60201c565b600160035f8373ffffffffffffffffffffffffffffffffffffffff1673ffffffffffffffffffffffffffffffffffffffff1681526020019081526020015f205f82825403925050819055505b5f73ffffffffffffffffffffffffffffffffffffffff168573ffffffffffffffffffffffffffffffffffffffff16146107fb57600160035f8773ffffffffffffffffffffffffffffffffffffffff1673ffffffffffffffffffffffffffffffffffffffff1681526020019081526020015f205f82825401925050819055505b8460025f8681526020019081526020015f205f6101000a81548173ffffffffffffffffffffffffffffffffffffffff021916908373ffffffffffffffffffffffffffffffffffffffff160217905550838573ffffffffffffffffffffffffffffffffffffffff168273ffffffffffffffffffffffffffffffffffffffff167fddf252ad1be2c89b69c2b068fc378daa952ba7f163c4a11628f55a4df523b3ef60405160405180910390a4809150509392505050565b5f60025f8381526020019081526020015f205f9054906101000a900473ffffffffffffffffffffffffffffffffffffffff169050919050565b6108fa838383610b7d60201b60201c565b6109ad575f73ffffffffffffffffffffffffffffffffffffffff168373ffffffffffffffffffffffffffffffffffffffff160361096e57806040517f7e2732890000000000000000000000000000000000000000000000000000000081526004016109659190611499565b60405180910390fd5b81816040517f177e802f0000000000000000000000000000000000000000000000000000000081526004016109a49291906114b2565b60405180910390fd5b505050565b80806109ea57505f73ffffffffffffffffffffffffffffffffffffffff168273ffffffffffffffffffffffffffffffffffffffff1614155b15610b28575f6109ff84610c4960201b60201c565b90505f73ffffffffffffffffffffffffffffffffffffffff168373ffffffffffffffffffffffffffffffffffffffff1614158015610a6957508273ffffffffffffffffffffffffffffffffffffffff168173ffffffffffffffffffffffffffffffffffffffff1614155b8015610a825750610a808184610cd560201b60201c565b155b15610ac457826040517fa9fbf51f000000000000000000000000000000000000000000000000000000008152600401610abb91906112ae565b60405180910390fd5b8115610b2657838573ffffffffffffffffffffffffffffffffffffffff168273ffffffffffffffffffffffffffffffffffffffff167f8c5be1e5ebec7d5bd14f71427d1e84f3dd0314c0f7b2291e5b200ac8c7c3b92560405160405180910390a45b505b8360045f8581526020019081526020015f205f6101000a81548173ffffffffffffffffffffffffffffffffffffffff021916908373ffffffffffffffffffffffffffffffffffffffff16021790555050505050565b5f5f73ffffffffffffffffffffffffffffffffffffffff168373ffffffffffffffffffffffffffffffffffffffff1614158015610c4057508273ffffffffffffffffffffffffffffffffffffffff168473ffffffffffffffffffffffffffffffffffffffff161480610bfb5750610bfa8484610cd560201b60201c565b5b80610c3f57508273ffffffffffffffffffffffffffffffffffffffff16610c2783610d6360201b60201c565b73ffffffffffffffffffffffffffffffffffffffff16145b5b90509392505050565b5f5f610c5a836108b060201b60201c565b90505f73ffffffffffffffffffffffffffffffffffffffff168173ffffffffffffffffffffffffffffffffffffffff1603610ccc57826040517f7e273289000000000000000000000000000000000000000000000000000000008152600401610cc39190611499565b60405180910390fd5b80915050919050565b5f60055f8473ffffffffffffffffffffffffffffffffffffffff1673ffffffffffffffffffffffffffffffffffffffff1681526020019081526020015f205f8373ffffffffffffffffffffffffffffffffffffffff1673ffffffffffffffffffffffffffffffffffffffff1681526020019081526020015f205f9054906101000a900460ff16905092915050565b5f60045f8381526020019081526020015f205f9054906101000a900473ffffffffffffffffffffffffffffffffffffffff169050919050565b5f604051905090565b5f5ffd5b5f5ffd5b5f73ffffffffffffffffffffffffffffffffffffffff82169050919050565b5f610dd682610dad565b9050919050565b610de681610dcc565b8114610df0575f5ffd5b50565b5f81519050610e0181610ddd565b92915050565b5f5ffd5b5f5ffd5b5f601f19601f8301169050919050565b7f4e487b71000000000000000000000000000000000000000000000000000000005f52604160045260245ffd5b610e5582610e0f565b810181811067ffffffffffffffff82111715610e7457610e73610e1f565b5b80604052505050565b5f610e86610d9c565b9050610e928282610e4c565b919050565b5f67ffffffffffffffff821115610eb157610eb0610e1f565b5b610eba82610e0f565b9050602081019050919050565b8281835e5f83830152505050565b5f610ee7610ee284610e97565b610e7d565b905082815260208101848484011115610f0357610f02610e0b565b5b610f0e848285610ec7565b509392505050565b5f82601f830112610f2a57610f29610e07565b5b8151610f3a848260208601610ed5565b91505092915050565b5f5f5f60608486031215610f5a57610f59610da5565b5b5f610f6786828701610df3565b9350506020610f7886828701610df3565b925050604084015167ffffffffffffffff811115610f9957610f98610da9565b5b610fa586828701610f16565b9150509250925092565b5f81519050919050565b7f4e487b71000000000000000000000000000000000000000000000000000000005f52602260045260245ffd5b5f6002820490506001821680610ffd57607f821691505b6020821081036110105761100f610fb9565b5b50919050565b5f819050815f5260205f209050919050565b5f6020601f8301049050919050565b5f82821b905092915050565b5f600883026110727fffffffffffffffffffffffffffffffffffffffffffffffffffffffffffffffff82611037565b61107c8683611037565b95508019841693508086168417925050509392505050565b5f819050919050565b5f819050919050565b5f6110c06110bb6110b684611094565b61109d565b611094565b9050919050565b5f819050919050565b6110d9836110a6565b6110ed6110e5826110c7565b848454611043565b825550505050565b5f5f905090565b6111046110f5565b61110f8184846110d0565b505050565b5f5b828110156111355761112a5f8284016110fc565b600181019050611116565b505050565b601f82111561118857828211156111875761115481611016565b61115d83611028565b61116685611028565b6020861015611173575f90505b80830161118282840382611114565b505050505b5b505050565b5f82821c905092915050565b5f6111a85f198460080261118d565b1980831691505092915050565b5f6111c08383611199565b9150826002028217905092915050565b6111d982610faf565b67ffffffffffffffff8111156111f2576111f1610e1f565b5b6111fc8254610fe6565b61120782828561113a565b5f60209050601f831160018114611238575f8415611226578287015190505b61123085826111b5565b865550611297565b601f19841661124686611016565b5f5b8281101561126d57848901518255600182019150602085019450602081019050611248565b8683101561128a5784890151611286601f891682611199565b8355505b6001600288020188555050505b505050505050565b6112a881610dcc565b82525050565b5f6020820190506112c15f83018461129f565b92915050565b7f4e487b71000000000000000000000000000000000000000000000000000000005f52601160045260245ffd5b5f6112fe82611094565b915061130983611094565b9250828201905080821115611321576113206112c7565b5b92915050565b5f61133182611094565b91507fffffffffffffffffffffffffffffffffffffffffffffffffffffffffffffffff8203611363576113626112c7565b5b600182019050919050565b61137781611094565b82525050565b5f81519050919050565b5f82825260208201905092915050565b5f6113a18261137d565b6113ab8185611387565b93506113bb818560208601610ec7565b6113c481610e0f565b840191505092915050565b5f6080820190506113e25f83018761129f565b6113ef602083018661129f565b6113fc604083018561136e565b818103606083015261140e8184611397565b905095945050505050565b5f7fffffffff0000000000000000000000000000000000000000000000000000000082169050919050565b61144d81611419565b8114611457575f5ffd5b50565b5f8151905061146881611444565b92915050565b5f6020828403121561148357611482610da5565b5b5f6114908482850161145a565b91505092915050565b5f6020820190506114ac5f83018461136e565b92915050565b5f6040820190506114c55f83018561129f565b6114d2602083018461136e565b9392505050565b612a15806114e65f395ff3fe608060405234801561000f575f5ffd5b506004361061014b575f3560e01c80636c0360eb116100c1578063a22cb4651161007a578063a22cb46514610389578063b88d4fde146103a5578063c87b56dd146103c1578063d52da3ae146103f1578063e985e9c51461040d578063f2fde38b1461043d5761014b565b80636c0360eb146102c557806370a08231146102e3578063715018a614610313578063755edd171461031d5780638da5cb5b1461034d57806395d89b411461036b5761014b565b806318160ddd1161011357806318160ddd1461020757806320e409b41461022557806323b872dd1461024157806342842e0e1461025d57806355f804b3146102795780636352211e146102955761014b565b806301ffc9a71461014f57806306fdde031461017f578063081812fc1461019d578063095ea7b3146101cd5780631249c58b146101e9575b5f5ffd5b61016960048036038101906101649190611e86565b610459565b6040516101769190611ecb565b60405180910390f35b61018761053a565b6040516101949190611f54565b60405180910390f35b6101b760048036038101906101b29190611fa7565b6105c9565b6040516101c49190612011565b60405180910390f35b6101e760048036038101906101e29190612054565b6105e4565b005b6101f16105fa565b6040516101fe91906120a1565b60405180910390f35b61020f61066a565b60405161021c91906120a1565b60405180910390f35b61023f600480360381019061023a9190611fa7565b610673565b005b61025b600480360381019061025691906120ba565b6106c1565b005b610277600480360381019061027291906120ba565b6107c0565b005b610293600480360381019061028e919061216b565b6107df565b005b6102af60048036038101906102aa9190611fa7565b6108c5565b6040516102bc9190612011565b60405180910390f35b6102cd6108d6565b6040516102da9190611f54565b60405180910390f35b6102fd60048036038101906102f891906121b6565b610966565b60405161030a91906120a1565b60405180910390f35b61031b610a1c565b005b610337600480360381019061033291906121b6565b610a2f565b60405161034491906120a1565b60405180910390f35b610355610b06565b6040516103629190612011565b60405180910390f35b610373610b2e565b6040516103809190611f54565b60405180910390f35b6103a3600480360381019061039e919061220b565b610bbe565b005b6103bf60048036038101906103ba9190612371565b610bd4565b005b6103db60048036038101906103d69190611fa7565b610bf9565b6040516103e89190611f54565b60405180910390f35b61040b60048036038101906104069190612054565b610cc2565b005b610427600480360381019061042291906123f1565b610d76565b6040516104349190611ecb565b60405180910390f35b610457600480360381019061045291906121b6565b610e04565b005b5f7f80ac58cd000000000000000000000000000000000000000000000000000000007bffffffffffffffffffffffffffffffffffffffffffffffffffffffff1916827bffffffffffffffffffffffffffffffffffffffffffffffffffffffff1916148061052357507f5b5e139f000000000000000000000000000000000000000000000000000000007bffffffffffffffffffffffffffffffffffffffffffffffffffffffff1916827bffffffffffffffffffffffffffffffffffffffffffffffffffffffff1916145b80610533575061053282610e88565b5b9050919050565b60605f80546105489061245c565b80601f01602080910402602001604051908101604052809291908181526020018280546105749061245c565b80156105bf5780601f10610596576101008083540402835291602001916105bf565b820191905f5260205f20905b8154815290600101906020018083116105a257829003601f168201915b5050505050905090565b5f6105d382610ef1565b506105dd82610f77565b9050919050565b6105f682826105f1610fb0565b610fb7565b5050565b5f610603610fc9565b60075f8154610611906124b9565b91905081905590506106233382611050565b3373ffffffffffffffffffffffffffffffffffffffff16817f21c3ad7994b754affe27828ad7ab1f306d7a99ab4dbc743ed56d2b2f82620b4460405160405180910390a390565b5f600754905090565b61067b610fc9565b5f81036106b4576040517f0a62826700000000000000000000000000000000000000000000000000000000815260040160405180910390fd5b6106be338261106d565b50565b5f73ffffffffffffffffffffffffffffffffffffffff168273ffffffffffffffffffffffffffffffffffffffff1603610731575f6040517f64a0ae920000000000000000000000000000000000000000000000000000000081526004016107289190612011565b60405180910390fd5b5f610744838361073f610fb0565b611101565b90508373ffffffffffffffffffffffffffffffffffffffff168173ffffffffffffffffffffffffffffffffffffffff16146107ba578382826040517f64283d7b0000000000000000000000000000000000000000000000000000000081526004016107b193929190612500565b60405180910390fd5b50505050565b6107da83838360405180602001604052805f815250610bd4565b505050565b6107e7610fc9565b5f600880546107f59061245c565b80601f01602080910402602001604051908101604052809291908181526020018280546108219061245c565b801561086c5780601f106108435761010080835404028352916020019161086c565b820191905f5260205f20905b81548152906001019060200180831161084f57829003601f168201915b505050505090508282600891826108849291906126f0565b507f309b29ded109b9e28fb9885757b3e0096eb75c51d23aa4635d68bcd569f6adc18184846040516108b8939291906127e9565b60405180910390a1505050565b5f6108cf82610ef1565b9050919050565b6060600880546108e59061245c565b80601f01602080910402602001604051908101604052809291908181526020018280546109119061245c565b801561095c5780601f106109335761010080835404028352916020019161095c565b820191905f5260205f20905b81548152906001019060200180831161093f57829003601f168201915b5050505050905090565b5f5f73ffffffffffffffffffffffffffffffffffffffff168273ffffffffffffffffffffffffffffffffffffffff16036109d7575f6040517f89c62b640000000000000000000000000000000000000000000000000000000081526004016109ce9190612011565b60405180910390fd5b60035f8373ffffffffffffffffffffffffffffffffffffffff1673ffffffffffffffffffffffffffffffffffffffff1681526020019081526020015f20549050919050565b610a24610fc9565b610a2d5f61130c565b565b5f610a38610fc9565b5f73ffffffffffffffffffffffffffffffffffffffff168273ffffffffffffffffffffffffffffffffffffffff1603610a9d576040517f9618da3100000000000000000000000000000000000000000000000000000000815260040160405180910390fd5b60075f8154610aab906124b9565b9190508190559050610abd8282611050565b8173ffffffffffffffffffffffffffffffffffffffff16817f21c3ad7994b754affe27828ad7ab1f306d7a99ab4dbc743ed56d2b2f82620b4460405160405180910390a3919050565b5f60065f9054906101000a900473ffffffffffffffffffffffffffffffffffffffff16905090565b606060018054610b3d9061245c565b80601f0160208091040260200160405190810160405280929190818152602001828054610b699061245c565b8015610bb45780601f10610b8b57610100808354040283529160200191610bb4565b820191905f5260205f20905b815481529060010190602001808311610b9757829003601f168201915b5050505050905090565b610bd0610bc9610fb0565b83836113cf565b5050565b610bdf8484846106c1565b610bf3610bea610fb0565b85858585611538565b50505050565b60605f73ffffffffffffffffffffffffffffffffffffffff16610c1b836116e4565b73ffffffffffffffffffffffffffffffffffffffff1603610c68576040517fdb0eb1bd00000000000000000000000000000000000000000000000000000000815260040160405180910390fd5b5f610c7161171d565b90505f815111610c8f5760405180602001604052805f815250610cba565b80610c99846117ad565b604051602001610caa92919061285a565b6040516020818303038152906040525b915050919050565b610cca610fc9565b5f73ffffffffffffffffffffffffffffffffffffffff168273ffffffffffffffffffffffffffffffffffffffff1603610d2f576040517f9618da3100000000000000000000000000000000000000000000000000000000815260040160405180910390fd5b5f8103610d68576040517f0a62826700000000000000000000000000000000000000000000000000000000815260040160405180910390fd5b610d72828261106d565b5050565b5f60055f8473ffffffffffffffffffffffffffffffffffffffff1673ffffffffffffffffffffffffffffffffffffffff1681526020019081526020015f205f8373ffffffffffffffffffffffffffffffffffffffff1673ffffffffffffffffffffffffffffffffffffffff1681526020019081526020015f205f9054906101000a900460ff16905092915050565b610e0c610fc9565b5f73ffffffffffffffffffffffffffffffffffffffff168173ffffffffffffffffffffffffffffffffffffffff1603610e7c575f6040517f1e4fbdf7000000000000000000000000000000000000000000000000000000008152600401610e739190612011565b60405180910390fd5b610e858161130c565b50565b5f7f01ffc9a7000000000000000000000000000000000000000000000000000000007bffffffffffffffffffffffffffffffffffffffffffffffffffffffff1916827bffffffffffffffffffffffffffffffffffffffffffffffffffffffff1916149050919050565b5f5f610efc836116e4565b90505f73ffffffffffffffffffffffffffffffffffffffff168173ffffffffffffffffffffffffffffffffffffffff1603610f6e57826040517f7e273289000000000000000000000000000000000000000000000000000000008152600401610f6591906120a1565b60405180910390fd5b80915050919050565b5f60045f8381526020019081526020015f205f9054906101000a900473ffffffffffffffffffffffffffffffffffffffff169050919050565b5f33905090565b610fc48383836001611877565b505050565b610fd1610fb0565b73ffffffffffffffffffffffffffffffffffffffff16610fef610b06565b73ffffffffffffffffffffffffffffffffffffffff161461104e57611012610fb0565b6040517f118cdaa70000000000000000000000000000000000000000000000000000000081526004016110459190612011565b60405180910390fd5b565b611069828260405180602001604052805f815250611a36565b5050565b5f600160075461107d919061287d565b90505f5f90505b828110156110b4576110a98460075f815461109e906124b9565b919050819055611050565b806001019050611084565b508273ffffffffffffffffffffffffffffffffffffffff16600754827f067fc5297e7400c0311c67165a421b5ef74cb22fa48f3bd73fe52f8187cf981960405160405180910390a4505050565b5f5f61110c846116e4565b90505f73ffffffffffffffffffffffffffffffffffffffff168373ffffffffffffffffffffffffffffffffffffffff161461114d5761114c818486611a59565b5b5f73ffffffffffffffffffffffffffffffffffffffff168173ffffffffffffffffffffffffffffffffffffffff16146111d85761118c5f855f5f611877565b600160035f8373ffffffffffffffffffffffffffffffffffffffff1673ffffffffffffffffffffffffffffffffffffffff1681526020019081526020015f205f82825403925050819055505b5f73ffffffffffffffffffffffffffffffffffffffff168573ffffffffffffffffffffffffffffffffffffffff161461125757600160035f8773ffffffffffffffffffffffffffffffffffffffff1673ffffffffffffffffffffffffffffffffffffffff1681526020019081526020015f205f82825401925050819055505b8460025f8681526020019081526020015f205f6101000a81548173ffffffffffffffffffffffffffffffffffffffff021916908373ffffffffffffffffffffffffffffffffffffffff160217905550838573ffffffffffffffffffffffffffffffffffffffff168273ffffffffffffffffffffffffffffffffffffffff167fddf252ad1be2c89b69c2b068fc378daa952ba7f163c4a11628f55a4df523b3ef60405160405180910390a4809150509392505050565b5f60065f9054906101000a900473ffffffffffffffffffffffffffffffffffffffff1690508160065f6101000a81548173ffffffffffffffffffffffffffffffffffffffff021916908373ffffffffffffffffffffffffffffffffffffffff1602179055508173ffffffffffffffffffffffffffffffffffffffff168173ffffffffffffffffffffffffffffffffffffffff167f8be0079c531659141344cd1fd0a4f28419497f9722a3daafe3b4186f6b6457e060405160405180910390a35050565b5f73ffffffffffffffffffffffffffffffffffffffff168273ffffffffffffffffffffffffffffffffffffffff160361143f57816040517f5b08ba180000000000000000000000000000000000000000000000000000000081526004016114369190612011565b60405180910390fd5b8060055f8573ffffffffffffffffffffffffffffffffffffffff1673ffffffffffffffffffffffffffffffffffffffff1681526020019081526020015f205f8473ffffffffffffffffffffffffffffffffffffffff1673ffffffffffffffffffffffffffffffffffffffff1681526020019081526020015f205f6101000a81548160ff0219169083151502179055508173ffffffffffffffffffffffffffffffffffffffff168373ffffffffffffffffffffffffffffffffffffffff167f17307eab39ab6107e8899845ad3d59bd9653f200f220920489ca2b5937696c318360405161152b9190611ecb565b60405180910390a3505050565b5f8373ffffffffffffffffffffffffffffffffffffffff163b11156116dd578273ffffffffffffffffffffffffffffffffffffffff1663150b7a02868685856040518563ffffffff1660e01b81526004016115969493929190612902565b6020604051808303815f875af19250505080156115d157506040513d601f19601f820116820180604052508101906115ce9190612960565b60015b611652573d805f81146115ff576040519150601f19603f3d011682016040523d82523d5f602084013e611604565b606091505b505f81510361164a57836040517f64a0ae920000000000000000000000000000000000000000000000000000000081526004016116419190612011565b60405180910390fd5b805160208201fd5b63150b7a0260e01b7bffffffffffffffffffffffffffffffffffffffffffffffffffffffff1916817bffffffffffffffffffffffffffffffffffffffffffffffffffffffff1916146116db57836040517f64a0ae920000000000000000000000000000000000000000000000000000000081526004016116d29190612011565b60405180910390fd5b505b5050505050565b5f60025f8381526020019081526020015f205f9054906101000a900473ffffffffffffffffffffffffffffffffffffffff169050919050565b60606008805461172c9061245c565b80601f01602080910402602001604051908101604052809291908181526020018280546117589061245c565b80156117a35780601f1061177a576101008083540402835291602001916117a3565b820191905f5260205f20905b81548152906001019060200180831161178657829003601f168201915b5050505050905090565b60605f60016117bb84611b1c565b0190505f8167ffffffffffffffff8111156117d9576117d861224d565b5b6040519080825280601f01601f19166020018201604052801561180b5781602001600182028036833780820191505090505b5090505f82602083010190505b60011561186c578080600190039150507f3031323334353637383961626364656600000000000000000000000000000000600a86061a8153600a85816118615761186061298b565b5b0494505f8503611818575b819350505050919050565b80806118af57505f73ffffffffffffffffffffffffffffffffffffffff168273ffffffffffffffffffffffffffffffffffffffff1614155b156119e1575f6118be84610ef1565b90505f73ffffffffffffffffffffffffffffffffffffffff168373ffffffffffffffffffffffffffffffffffffffff161415801561192857508273ffffffffffffffffffffffffffffffffffffffff168173ffffffffffffffffffffffffffffffffffffffff1614155b801561193b57506119398184610d76565b155b1561197d57826040517fa9fbf51f0000000000000000000000000000000000000000000000000000000081526004016119749190612011565b60405180910390fd5b81156119df57838573ffffffffffffffffffffffffffffffffffffffff168273ffffffffffffffffffffffffffffffffffffffff167f8c5be1e5ebec7d5bd14f71427d1e84f3dd0314c0f7b2291e5b200ac8c7c3b92560405160405180910390a45b505b8360045f8581526020019081526020015f205f6101000a81548173ffffffffffffffffffffffffffffffffffffffff021916908373ffffffffffffffffffffffffffffffffffffffff16021790555050505050565b611a408383611c6d565b611a54611a4b610fb0565b5f858585611538565b505050565b611a64838383611d60565b611b17575f73ffffffffffffffffffffffffffffffffffffffff168373ffffffffffffffffffffffffffffffffffffffff1603611ad857806040517f7e273289000000000000000000000000000000000000000000000000000000008152600401611acf91906120a1565b60405180910390fd5b81816040517f177e802f000000000000000000000000000000000000000000000000000000008152600401611b0e9291906129b8565b60405180910390fd5b505050565b5f5f5f90507a184f03e93ff9f4daa797ed6e38ed64bf6a1f0100000000000000008310611b78577a184f03e93ff9f4daa797ed6e38ed64bf6a1f0100000000000000008381611b6e57611b6d61298b565b5b0492506040810190505b6d04ee2d6d415b85acef81000000008310611bb5576d04ee2d6d415b85acef81000000008381611bab57611baa61298b565b5b0492506020810190505b662386f26fc100008310611be457662386f26fc100008381611bda57611bd961298b565b5b0492506010810190505b6305f5e1008310611c0d576305f5e1008381611c0357611c0261298b565b5b0492506008810190505b6127108310611c32576127108381611c2857611c2761298b565b5b0492506004810190505b60648310611c555760648381611c4b57611c4a61298b565b5b0492506002810190505b600a8310611c64576001810190505b80915050919050565b5f73ffffffffffffffffffffffffffffffffffffffff168273ffffffffffffffffffffffffffffffffffffffff1603611cdd575f6040517f64a0ae92000000000000000000000000000000000000000000000000000000008152600401611cd49190612011565b60405180910390fd5b5f611ce983835f611101565b90505f73ffffffffffffffffffffffffffffffffffffffff168173ffffffffffffffffffffffffffffffffffffffff1614611d5b575f6040517f73c6ac6e000000000000000000000000000000000000000000000000000000008152600401611d529190612011565b60405180910390fd5b505050565b5f5f73ffffffffffffffffffffffffffffffffffffffff168373ffffffffffffffffffffffffffffffffffffffff1614158015611e1757508273ffffffffffffffffffffffffffffffffffffffff168473ffffffffffffffffffffffffffffffffffffffff161480611dd85750611dd78484610d76565b5b80611e1657508273ffffffffffffffffffffffffffffffffffffffff16611dfe83610f77565b73ffffffffffffffffffffffffffffffffffffffff16145b5b90509392505050565b5f604051905090565b5f5ffd5b5f5ffd5b5f7fffffffff0000000000000000000000000000000000000000000000000000000082169050919050565b611e6581611e31565b8114611e6f575f5ffd5b50565b5f81359050611e8081611e5c565b92915050565b5f60208284031215611e9b57611e9a611e29565b5b5f611ea884828501611e72565b91505092915050565b5f8115159050919050565b611ec581611eb1565b82525050565b5f602082019050611ede5f830184611ebc565b92915050565b5f81519050919050565b5f82825260208201905092915050565b8281835e5f83830152505050565b5f601f19601f8301169050919050565b5f611f2682611ee4565b611f308185611eee565b9350611f40818560208601611efe565b611f4981611f0c565b840191505092915050565b5f6020820190508181035f830152611f6c8184611f1c565b905092915050565b5f819050919050565b611f8681611f74565b8114611f90575f5ffd5b50565b5f81359050611fa181611f7d565b92915050565b5f60208284031215611fbc57611fbb611e29565b5b5f611fc984828501611f93565b91505092915050565b5f73ffffffffffffffffffffffffffffffffffffffff82169050919050565b5f611ffb82611fd2565b9050919050565b61200b81611ff1565b82525050565b5f6020820190506120245f830184612002565b92915050565b61203381611ff1565b811461203d575f5ffd5b50565b5f8135905061204e8161202a565b92915050565b5f5f6040838503121561206a57612069611e29565b5b5f61207785828601612040565b925050602061208885828601611f93565b9150509250929050565b61209b81611f74565b82525050565b5f6020820190506120b45f830184612092565b92915050565b5f5f5f606084860312156120d1576120d0611e29565b5b5f6120de86828701612040565b93505060206120ef86828701612040565b925050604061210086828701611f93565b9150509250925092565b5f5ffd5b5f5ffd5b5f5ffd5b5f5f83601f84011261212b5761212a61210a565b5b8235905067ffffffffffffffff8111156121485761214761210e565b5b60208301915083600182028301111561216457612163612112565b5b9250929050565b5f5f6020838503121561218157612180611e29565b5b5f83013567ffffffffffffffff81111561219e5761219d611e2d565b5b6121aa85828601612116565b92509250509250929050565b5f602082840312156121cb576121ca611e29565b5b5f6121d884828501612040565b91505092915050565b6121ea81611eb1565b81146121f4575f5ffd5b50565b5f81359050612205816121e1565b92915050565b5f5f6040838503121561222157612220611e29565b5b5f61222e85828601612040565b925050602061223f858286016121f7565b9150509250929050565b5f5ffd5b7f4e487b71000000000000000000000000000000000000000000000000000000005f52604160045260245ffd5b61228382611f0c565b810181811067ffffffffffffffff821117156122a2576122a161224d565b5b80604052505050565b5f6122b4611e20565b90506122c0828261227a565b919050565b5f67ffffffffffffffff8211156122df576122de61224d565b5b6122e882611f0c565b9050602081019050919050565b828183375f83830152505050565b5f612315612310846122c5565b6122ab565b90508281526020810184848401111561233157612330612249565b5b61233c8482856122f5565b509392505050565b5f82601f8301126123585761235761210a565b5b8135612368848260208601612303565b91505092915050565b5f5f5f5f6080858703121561238957612388611e29565b5b5f61239687828801612040565b94505060206123a787828801612040565b93505060406123b887828801611f93565b925050606085013567ffffffffffffffff8111156123d9576123d8611e2d565b5b6123e587828801612344565b91505092959194509250565b5f5f6040838503121561240757612406611e29565b5b5f61241485828601612040565b925050602061242585828601612040565b9150509250929050565b7f4e487b71000000000000000000000000000000000000000000000000000000005f52602260045260245ffd5b5f600282049050600182168061247357607f821691505b6020821081036124865761248561242f565b5b50919050565b7f4e487b71000000000000000000000000000000000000000000000000000000005f52601160045260245ffd5b5f6124c382611f74565b91507fffffffffffffffffffffffffffffffffffffffffffffffffffffffffffffffff82036124f5576124f461248c565b5b600182019050919050565b5f6060820190506125135f830186612002565b6125206020830185612092565b61252d6040830184612002565b949350505050565b5f82905092915050565b5f819050815f5260205f209050919050565b5f6020601f8301049050919050565b5f82821b905092915050565b5f6008830261259b7fffffffffffffffffffffffffffffffffffffffffffffffffffffffffffffffff82612560565b6125a58683612560565b95508019841693508086168417925050509392505050565b5f819050919050565b5f6125e06125db6125d684611f74565b6125bd565b611f74565b9050919050565b5f819050919050565b6125f9836125c6565b61260d612605826125e7565b84845461256c565b825550505050565b5f5f905090565b612624612615565b61262f8184846125f0565b505050565b5f5b828110156126555761264a5f82840161261c565b600181019050612636565b505050565b601f8211156126a857828211156126a7576126748161253f565b61267d83612551565b61268685612551565b6020861015612693575f90505b8083016126a282840382612634565b505050505b5b505050565b5f82821c905092915050565b5f6126c85f19846008026126ad565b1980831691505092915050565b5f6126e083836126b9565b9150826002028217905092915050565b6126fa8383612535565b67ffffffffffffffff8111156127135761271261224d565b5b61271d825461245c565b61272882828561265a565b5f601f831160018114612755575f8415612743578287013590505b61274d85826126d5565b8655506127b4565b601f1984166127638661253f565b5f5b8281101561278a57848901358255600182019150602085019450602081019050612765565b868310156127a757848901356127a3601f8916826126b9565b8355505b6001600288020188555050505b50505050505050565b5f6127c88385611eee565b93506127d58385846122f5565b6127de83611f0c565b840190509392505050565b5f6040820190508181035f8301526128018186611f1c565b905081810360208301526128168184866127bd565b9050949350505050565b5f81905092915050565b5f61283482611ee4565b61283e8185612820565b935061284e818560208601611efe565b80840191505092915050565b5f612865828561282a565b9150612871828461282a565b91508190509392505050565b5f61288782611f74565b915061289283611f74565b92508282019050808211156128aa576128a961248c565b5b92915050565b5f81519050919050565b5f82825260208201905092915050565b5f6128d4826128b0565b6128de81856128ba565b93506128ee818560208601611efe565b6128f781611f0c565b840191505092915050565b5f6080820190506129155f830187612002565b6129226020830186612002565b61292f6040830185612092565b818103606083015261294181846128ca565b905095945050505050565b5f8151905061295a81611e5c565b92915050565b5f6020828403121561297557612974611e29565b5b5f6129828482850161294c565b91505092915050565b7f4e487b71000000000000000000000000000000000000000000000000000000005f52601260045260245ffd5b5f6040820190506129cb5f830185612002565b6129d86020830184612092565b939250505056fea2646970667358221220ef7e4c5890cfd0e38f1fd86624f17ee5406514ca0d68accb6673289186a5215864736f6c634300082100330000000000000000000000005b1e22ec6d83fa3008be3bc39c69e3577e3411d40000000000000000000000005b1e22ec6d83fa3008be3bc39c69e3577e3411d400000000000000000000000000000000000000000000000000000000000000600000000000000000000000000000000000000000000000000000000000000043697066733a2f2f626166796265696574656333626a32356a6178327237337874796971767767706f7570706b6e7334733736646e6478626e6a346475737836646b612f0000000000000000000000000000000000000000000000000000000000",
        "nonce": "0x3",
        "chainId": "0x66eee"
      },
      "additionalContracts": [],
      "isFixedGasLimit": false
    },
    {
      "hash": "0x15082a6c6c163f6b897c03a74abdf9e89d0c75b87e10ac335429ef44a418e22c",
      "transactionType": "CREATE",
      "contractName": "ProcessorAddressesProvider",
      "contractAddress": "0x6987ef804f2079ed5ef59e47c93874abcb50483a",
      "function": null,
      "arguments": [
        "0x5B1e22Ec6d83FA3008Be3bC39c69E3577e3411d4",
        "0x5B1e22Ec6d83FA3008Be3bC39c69E3577e3411d4",
        "0xf0212bc88AF989FEEaf494Fb23C8C065583Da2e3",
        "0x75faf114eafb1BDbe2F0316DF893fd58CE46AA4d"
      ],
      "transaction": {
        "from": "0x5b1e22ec6d83fa3008be3bc39c69e3577e3411d4",
        "gas": "0x25500f",
        "value": "0x0",
        "input": "0x608060405234801561000f575f5ffd5b5060405161246a38038061246a83398181016040528101906100319190610511565b835f73ffffffffffffffffffffffffffffffffffffffff168173ffffffffffffffffffffffffffffffffffffffff16036100a2575f6040517f1e4fbdf70000000000000000000000000000000000000000000000000000000081526004016100999190610584565b60405180910390fd5b6100b1816103f260201b60201c565b505f73ffffffffffffffffffffffffffffffffffffffff168473ffffffffffffffffffffffffffffffffffffffff1603610117576040517fa10fe70700000000000000000000000000000000000000000000000000000000815260040160405180910390fd5b5f73ffffffffffffffffffffffffffffffffffffffff168373ffffffffffffffffffffffffffffffffffffffff160361017c576040517fa2896e6800000000000000000000000000000000000000000000000000000000815260040160405180910390fd5b5f73ffffffffffffffffffffffffffffffffffffffff168273ffffffffffffffffffffffffffffffffffffffff16036101e1576040517fe1b400af00000000000000000000000000000000000000000000000000000000815260040160405180910390fd5b5f73ffffffffffffffffffffffffffffffffffffffff168173ffffffffffffffffffffffffffffffffffffffff1603610246576040517f0e2d356500000000000000000000000000000000000000000000000000000000815260040160405180910390fd5b60405180606001604052808473ffffffffffffffffffffffffffffffffffffffff1681526020018373ffffffffffffffffffffffffffffffffffffffff1681526020018273ffffffffffffffffffffffffffffffffffffffff1681525060025f820151815f015f6101000a81548173ffffffffffffffffffffffffffffffffffffffff021916908373ffffffffffffffffffffffffffffffffffffffff1602179055506020820151816001015f6101000a81548173ffffffffffffffffffffffffffffffffffffffff021916908373ffffffffffffffffffffffffffffffffffffffff1602179055506040820151816002015f6101000a81548173ffffffffffffffffffffffffffffffffffffffff021916908373ffffffffffffffffffffffffffffffffffffffff1602179055509050508073ffffffffffffffffffffffffffffffffffffffff168273ffffffffffffffffffffffffffffffffffffffff168473ffffffffffffffffffffffffffffffffffffffff167fb3fc5b8fa795a14232efd69faeabfa4d6ae1add7013b9ba01c3ffbda68dc4fba60405160405180910390a45050505061059d565b5f5f5f9054906101000a900473ffffffffffffffffffffffffffffffffffffffff169050815f5f6101000a81548173ffffffffffffffffffffffffffffffffffffffff021916908373ffffffffffffffffffffffffffffffffffffffff1602179055508173ffffffffffffffffffffffffffffffffffffffff168173ffffffffffffffffffffffffffffffffffffffff167f8be0079c531659141344cd1fd0a4f28419497f9722a3daafe3b4186f6b6457e060405160405180910390a35050565b5f5ffd5b5f73ffffffffffffffffffffffffffffffffffffffff82169050919050565b5f6104e0826104b7565b9050919050565b6104f0816104d6565b81146104fa575f5ffd5b50565b5f8151905061050b816104e7565b92915050565b5f5f5f5f60808587031215610529576105286104b3565b5b5f610536878288016104fd565b9450506020610547878288016104fd565b9350506040610558878288016104fd565b9250506060610569878288016104fd565b91505092959194509250565b61057e816104d6565b82525050565b5f6020820190506105975f830184610575565b92915050565b611ec0806105aa5f395ff3fe608060405234801561000f575f5ffd5b50600436106100e8575f3560e01c80638da5cb5b1161008a578063ca446dd911610064578063ca446dd914610210578063dbd0e1b61461022c578063e99d28661461024a578063f2fde38b14610266576100e8565b80638da5cb5b146101b8578063a7ccabdf146101d6578063b6f67312146101f2576100e8565b8063667c99de116100c6578063667c99de146101565780636bd50cef14610174578063715018a614610192578063832e9fce1461019c576100e8565b806321f8a721146100ec5780634265c7071461011c5780635dcc528c1461013a575b5f5ffd5b61010660048036038101906101019190610eeb565b610282565b6040516101139190610f55565b60405180910390f35b6101246102bb565b6040516101319190610f55565b60405180910390f35b610154600480360381019061014f9190610f98565b6102ea565b005b61015e6103a8565b60405161016b9190610f55565b60405180910390f35b61017c6103d3565b6040516101899190611025565b60405180910390f35b61019a6104eb565b005b6101b660048036038101906101b1919061103e565b6104fe565b005b6101c06105ba565b6040516101cd9190610f55565b60405180910390f35b6101f060048036038101906101eb919061103e565b6105c8565b005b6101fa610699565b6040516102079190610f55565b60405180910390f35b61022a60048036038101906102259190610f98565b6106c3565b005b6102346107ae565b6040516102419190610f55565b60405180910390f35b610264600480360381019061025f919061103e565b6107d8565b005b610280600480360381019061027b919061103e565b6108a7565b005b5f60015f8381526020019081526020015f205f9054906101000a900473ffffffffffffffffffffffffffffffffffffffff169050919050565b5f6102e57f50524f434553534f520000000000000000000000000000000000000000000000610282565b905090565b6102f261092b565b5f60015f8481526020019081526020015f205f9054906101000a900473ffffffffffffffffffffffffffffffffffffffff1690505f610330846109b2565b905061033c8484610a9f565b8273ffffffffffffffffffffffffffffffffffffffff168273ffffffffffffffffffffffffffffffffffffffff16857f3bbd45b5429b385e3fb37ad5cd1cd1435a3c8ec32196c7937597365a3fd3e99c8460405161039a9190610f55565b60405180910390a450505050565b5f60026001015f9054906101000a900473ffffffffffffffffffffffffffffffffffffffff16905090565b6103db610e47565b60026040518060600160405290815f82015f9054906101000a900473ffffffffffffffffffffffffffffffffffffffff1673ffffffffffffffffffffffffffffffffffffffff1673ffffffffffffffffffffffffffffffffffffffff168152602001600182015f9054906101000a900473ffffffffffffffffffffffffffffffffffffffff1673ffffffffffffffffffffffffffffffffffffffff1673ffffffffffffffffffffffffffffffffffffffff168152602001600282015f9054906101000a900473ffffffffffffffffffffffffffffffffffffffff1673ffffffffffffffffffffffffffffffffffffffff1673ffffffffffffffffffffffffffffffffffffffff1681525050905090565b6104f361092b565b6104fc5f610d58565b565b61050661092b565b5f6105307f50524f434553534f5200000000000000000000000000000000000000000000006109b2565b905061055c7f50524f434553534f52000000000000000000000000000000000000000000000083610a9f565b8173ffffffffffffffffffffffffffffffffffffffff168173ffffffffffffffffffffffffffffffffffffffff167fc2f004180ee0fec7f51032b23021a16d6858ecc111e5fbc86096eb5016a5a66f60405160405180910390a35050565b5f6105c3610e19565b905090565b6105d061092b565b5f60026001015f9054906101000a900473ffffffffffffffffffffffffffffffffffffffff1690508160026001015f6101000a81548173ffffffffffffffffffffffffffffffffffffffff021916908373ffffffffffffffffffffffffffffffffffffffff1602179055508173ffffffffffffffffffffffffffffffffffffffff168173ffffffffffffffffffffffffffffffffffffffff167fab9636faa03b42a52a353eb86f070f1ac15b69f0bc419fba63d07b5d996edad760405160405180910390a35050565b5f600280015f9054906101000a900473ffffffffffffffffffffffffffffffffffffffff16905090565b6106cb61092b565b5f60015f8481526020019081526020015f205f9054906101000a900473ffffffffffffffffffffffffffffffffffffffff1690508160015f8581526020019081526020015f205f6101000a81548173ffffffffffffffffffffffffffffffffffffffff021916908373ffffffffffffffffffffffffffffffffffffffff1602179055508173ffffffffffffffffffffffffffffffffffffffff168173ffffffffffffffffffffffffffffffffffffffff16847f9ef0e8c8e52743bb38b83b17d9429141d494b8041ca6d616a6c77cebae9cd8b760405160405180910390a4505050565b5f60025f015f9054906101000a900473ffffffffffffffffffffffffffffffffffffffff16905090565b6107e061092b565b5f60025f015f9054906101000a900473ffffffffffffffffffffffffffffffffffffffff1690508160025f015f6101000a81548173ffffffffffffffffffffffffffffffffffffffff021916908373ffffffffffffffffffffffffffffffffffffffff1602179055508173ffffffffffffffffffffffffffffffffffffffff168173ffffffffffffffffffffffffffffffffffffffff167f0cbb5dfb968d53cf4fb4c454cd42659a1d48ebfb7b12c47dae97ade75b9332c960405160405180910390a35050565b6108af61092b565b5f73ffffffffffffffffffffffffffffffffffffffff168173ffffffffffffffffffffffffffffffffffffffff160361091f575f6040517f1e4fbdf70000000000000000000000000000000000000000000000000000000081526004016109169190610f55565b60405180910390fd5b61092881610d58565b50565b610933610e40565b73ffffffffffffffffffffffffffffffffffffffff166109516105ba565b73ffffffffffffffffffffffffffffffffffffffff16146109b057610974610e40565b6040517f118cdaa70000000000000000000000000000000000000000000000000000000081526004016109a79190610f55565b60405180910390fd5b565b5f5f60015f8481526020019081526020015f205f9054906101000a900473ffffffffffffffffffffffffffffffffffffffff1690505f73ffffffffffffffffffffffffffffffffffffffff168173ffffffffffffffffffffffffffffffffffffffff1603610a23575f915050610a9a565b5f8190508073ffffffffffffffffffffffffffffffffffffffff16635c60da1b6040518163ffffffff1660e01b81526004016020604051808303815f875af1158015610a71573d5f5f3e3d5ffd5b505050506040513d601f19601f82011682018060405250810190610a95919061107d565b925050505b919050565b5f60015f8481526020019081526020015f205f9054906101000a900473ffffffffffffffffffffffffffffffffffffffff1690505f5f30604051602401610ae69190610f55565b6040516020818303038152906040527fc4d66de8000000000000000000000000000000000000000000000000000000007bffffffffffffffffffffffffffffffffffffffffffffffffffffffff19166020820180517bffffffffffffffffffffffffffffffffffffffffffffffffffffffff838183161783525050505090505f73ffffffffffffffffffffffffffffffffffffffff168373ffffffffffffffffffffffffffffffffffffffff1603610ce55730604051610ba590610ea7565b610baf9190610f55565b604051809103905ff080158015610bc8573d5f5f3e3d5ffd5b5091508192508260015f8781526020019081526020015f205f6101000a81548173ffffffffffffffffffffffffffffffffffffffff021916908373ffffffffffffffffffffffffffffffffffffffff1602179055508173ffffffffffffffffffffffffffffffffffffffff1663d1f5789485836040518363ffffffff1660e01b8152600401610c58929190611118565b5f604051808303815f87803b158015610c6f575f5ffd5b505af1158015610c81573d5f5f3e3d5ffd5b505050508373ffffffffffffffffffffffffffffffffffffffff168373ffffffffffffffffffffffffffffffffffffffff16867f4a465a9bd819d9662563c1e11ae958f8109e437e7f4bf1c6ef0b9a7b3f35d47860405160405180910390a4610d51565b8291508173ffffffffffffffffffffffffffffffffffffffff16634f1ef28685836040518363ffffffff1660e01b8152600401610d23929190611118565b5f604051808303815f87803b158015610d3a575f5ffd5b505af1158015610d4c573d5f5f3e3d5ffd5b505050505b5050505050565b5f5f5f9054906101000a900473ffffffffffffffffffffffffffffffffffffffff169050815f5f6101000a81548173ffffffffffffffffffffffffffffffffffffffff021916908373ffffffffffffffffffffffffffffffffffffffff1602179055508173ffffffffffffffffffffffffffffffffffffffff168173ffffffffffffffffffffffffffffffffffffffff167f8be0079c531659141344cd1fd0a4f28419497f9722a3daafe3b4186f6b6457e060405160405180910390a35050565b5f5f5f9054906101000a900473ffffffffffffffffffffffffffffffffffffffff16905090565b5f33905090565b60405180606001604052805f73ffffffffffffffffffffffffffffffffffffffff1681526020015f73ffffffffffffffffffffffffffffffffffffffff1681526020015f73ffffffffffffffffffffffffffffffffffffffff1681525090565b610d448061114783390190565b5f5ffd5b5f819050919050565b610eca81610eb8565b8114610ed4575f5ffd5b50565b5f81359050610ee581610ec1565b92915050565b5f60208284031215610f0057610eff610eb4565b5b5f610f0d84828501610ed7565b91505092915050565b5f73ffffffffffffffffffffffffffffffffffffffff82169050919050565b5f610f3f82610f16565b9050919050565b610f4f81610f35565b82525050565b5f602082019050610f685f830184610f46565b92915050565b610f7781610f35565b8114610f81575f5ffd5b50565b5f81359050610f9281610f6e565b92915050565b5f5f60408385031215610fae57610fad610eb4565b5b5f610fbb85828601610ed7565b9250506020610fcc85828601610f84565b9150509250929050565b610fdf81610f35565b82525050565b606082015f820151610ff95f850182610fd6565b50602082015161100c6020850182610fd6565b50604082015161101f6040850182610fd6565b50505050565b5f6060820190506110385f830184610fe5565b92915050565b5f6020828403121561105357611052610eb4565b5b5f61106084828501610f84565b91505092915050565b5f8151905061107781610f6e565b92915050565b5f6020828403121561109257611091610eb4565b5b5f61109f84828501611069565b91505092915050565b5f81519050919050565b5f82825260208201905092915050565b8281835e5f83830152505050565b5f601f19601f8301169050919050565b5f6110ea826110a8565b6110f481856110b2565b93506111048185602086016110c2565b61110d816110d0565b840191505092915050565b5f60408201905061112b5f830185610f46565b818103602083015261113d81846110e0565b9050939250505056fe60a060405234801561000f575f5ffd5b50604051610d44380380610d44833981810160405281019061003191906100cb565b808073ffffffffffffffffffffffffffffffffffffffff1660808173ffffffffffffffffffffffffffffffffffffffff168152505050506100f6565b5f5ffd5b5f73ffffffffffffffffffffffffffffffffffffffff82169050919050565b5f61009a82610071565b9050919050565b6100aa81610090565b81146100b4575f5ffd5b50565b5f815190506100c5816100a1565b92915050565b5f602082840312156100e0576100df61006d565b5b5f6100ed848285016100b7565b91505092915050565b608051610c136101315f395f8181610136015281816101a3015281816102860152818161041d0152818161047001526105c00152610c135ff3fe60806040526004361061004d575f3560e01c80633659cfe6146100665780634f1ef2861461008e5780635c60da1b146100aa578063d1f57894146100d4578063f851a440146100f05761005c565b3661005c5761005a61011a565b005b61006461011a565b005b348015610071575f5ffd5b5061008c600480360381019061008791906106d4565b610134565b005b6100a860048036038101906100a39190610760565b6101a1565b005b3480156100b5575f5ffd5b506100be610283565b6040516100cb91906107cc565b60405180910390f35b6100ee60048036038101906100e9919061091d565b6102f2565b005b3480156100fb575f5ffd5b5061010461041a565b60405161011191906107cc565b60405180910390f35b6101226104a2565b61013261012d6104ac565b6104db565b565b7f000000000000000000000000000000000000000000000000000000000000000073ffffffffffffffffffffffffffffffffffffffff163373ffffffffffffffffffffffffffffffffffffffff160361019557610190816104fa565b61019e565b61019d61011a565b5b50565b7f000000000000000000000000000000000000000000000000000000000000000073ffffffffffffffffffffffffffffffffffffffff163373ffffffffffffffffffffffffffffffffffffffff1603610275576101fd836104fa565b5f8373ffffffffffffffffffffffffffffffffffffffff1683836040516102259291906109a5565b5f60405180830381855af49150503d805f811461025d576040519150601f19603f3d011682016040523d82523d5f602084013e610262565b606091505b505090508061026f575f5ffd5b5061027e565b61027d61011a565b5b505050565b5f7f000000000000000000000000000000000000000000000000000000000000000073ffffffffffffffffffffffffffffffffffffffff163373ffffffffffffffffffffffffffffffffffffffff16036102e6576102df6104ac565b90506102ef565b6102ee61011a565b5b90565b5f73ffffffffffffffffffffffffffffffffffffffff166103116104ac565b73ffffffffffffffffffffffffffffffffffffffff1614610330575f5ffd5b60017f360894a13ba1a3210667c828492db98dca3e2076cc3735a920a3ca505d382bbd5f1c61035f91906109f3565b5f1b7f360894a13ba1a3210667c828492db98dca3e2076cc3735a920a3ca505d382bbc5f1b1461039257610391610a26565b5b61039b82610549565b5f81511115610416575f8273ffffffffffffffffffffffffffffffffffffffff16826040516103ca9190610a9b565b5f60405180830381855af49150503d805f8114610402576040519150601f19603f3d011682016040523d82523d5f602084013e610407565b606091505b5050905080610414575f5ffd5b505b5050565b5f7f000000000000000000000000000000000000000000000000000000000000000073ffffffffffffffffffffffffffffffffffffffff163373ffffffffffffffffffffffffffffffffffffffff1603610496577f0000000000000000000000000000000000000000000000000000000000000000905061049f565b61049e61011a565b5b90565b6104aa6105be565b565b5f5f7f360894a13ba1a3210667c828492db98dca3e2076cc3735a920a3ca505d382bbc5f1b9050805491505090565b365f5f375f5f365f845af43d5f5f3e805f81146104f6573d5ff35b3d5ffd5b61050381610549565b8073ffffffffffffffffffffffffffffffffffffffff167fbc7cd75a20ee27fd9adebab32041f755214dbc6bffa90cc0225b39da2e5c2d3b60405160405180910390a250565b61055281610656565b610591576040517f08c379a000000000000000000000000000000000000000000000000000000000815260040161058890610b31565b60405180910390fd5b5f7f360894a13ba1a3210667c828492db98dca3e2076cc3735a920a3ca505d382bbc5f1b90508181555050565b7f000000000000000000000000000000000000000000000000000000000000000073ffffffffffffffffffffffffffffffffffffffff163373ffffffffffffffffffffffffffffffffffffffff160361064c576040517f08c379a000000000000000000000000000000000000000000000000000000000815260040161064390610bbf565b60405180910390fd5b610654610667565b565b5f5f823b90505f8111915050919050565b565b5f604051905090565b5f5ffd5b5f5ffd5b5f73ffffffffffffffffffffffffffffffffffffffff82169050919050565b5f6106a38261067a565b9050919050565b6106b381610699565b81146106bd575f5ffd5b50565b5f813590506106ce816106aa565b92915050565b5f602082840312156106e9576106e8610672565b5b5f6106f6848285016106c0565b91505092915050565b5f5ffd5b5f5ffd5b5f5ffd5b5f5f83601f8401126107205761071f6106ff565b5b8235905067ffffffffffffffff81111561073d5761073c610703565b5b60208301915083600182028301111561075957610758610707565b5b9250929050565b5f5f5f6040848603121561077757610776610672565b5b5f610784868287016106c0565b935050602084013567ffffffffffffffff8111156107a5576107a4610676565b5b6107b18682870161070b565b92509250509250925092565b6107c681610699565b82525050565b5f6020820190506107df5f8301846107bd565b92915050565b5f5ffd5b5f601f19601f8301169050919050565b7f4e487b71000000000000000000000000000000000000000000000000000000005f52604160045260245ffd5b61082f826107e9565b810181811067ffffffffffffffff8211171561084e5761084d6107f9565b5b80604052505050565b5f610860610669565b905061086c8282610826565b919050565b5f67ffffffffffffffff82111561088b5761088a6107f9565b5b610894826107e9565b9050602081019050919050565b828183375f83830152505050565b5f6108c16108bc84610871565b610857565b9050828152602081018484840111156108dd576108dc6107e5565b5b6108e88482856108a1565b509392505050565b5f82601f830112610904576109036106ff565b5b81356109148482602086016108af565b91505092915050565b5f5f6040838503121561093357610932610672565b5b5f610940858286016106c0565b925050602083013567ffffffffffffffff81111561096157610960610676565b5b61096d858286016108f0565b9150509250929050565b5f81905092915050565b5f61098c8385610977565b93506109998385846108a1565b82840190509392505050565b5f6109b1828486610981565b91508190509392505050565b5f819050919050565b7f4e487b71000000000000000000000000000000000000000000000000000000005f52601160045260245ffd5b5f6109fd826109bd565b9150610a08836109bd565b9250828203905081811115610a2057610a1f6109c6565b5b92915050565b7f4e487b71000000000000000000000000000000000000000000000000000000005f52600160045260245ffd5b5f81519050919050565b8281835e5f83830152505050565b5f610a7582610a53565b610a7f8185610977565b9350610a8f818560208601610a5d565b80840191505092915050565b5f610aa68284610a6b565b915081905092915050565b5f82825260208201905092915050565b7f43616e6e6f742073657420612070726f787920696d706c656d656e746174696f5f8201527f6e20746f2061206e6f6e2d636f6e747261637420616464726573730000000000602082015250565b5f610b1b603b83610ab1565b9150610b2682610ac1565b604082019050919050565b5f6020820190508181035f830152610b4881610b0f565b9050919050565b7f43616e6e6f742063616c6c2066616c6c6261636b2066756e6374696f6e2066725f8201527f6f6d207468652070726f78792061646d696e0000000000000000000000000000602082015250565b5f610ba9603283610ab1565b9150610bb482610b4f565b604082019050919050565b5f6020820190508181035f830152610bd681610b9d565b905091905056fea26469706673582212204ef812b769ae523fc85ecedfab338b3317cf709161f23961345f2e28c966196d64736f6c63430008210033a264697066735822122031a7f22a71a3ff66562d4ebefe995f81effa47e3f5884e2da6bf3898b98bee9464736f6c634300082100330000000000000000000000005b1e22ec6d83fa3008be3bc39c69e3577e3411d40000000000000000000000005b1e22ec6d83fa3008be3bc39c69e3577e3411d4000000000000000000000000f0212bc88af989feeaf494fb23c8c065583da2e300000000000000000000000075faf114eafb1bdbe2f0316df893fd58ce46aa4d",
        "nonce": "0x4",
        "chainId": "0x66eee"
      },
      "additionalContracts": [],
      "isFixedGasLimit": false
    },
    {
      "hash": "0xf6096c80005f1949487f57b10eeaa73c3e51e18dd923912c0d43979ec6aeffbc",
      "transactionType": "CREATE",
      "contractName": "ProcessorInstance",
      "contractAddress": "0x91db19b7f276c797ca400533063f51ae907bbc87",
      "function": null,
      "arguments": [
        "0x6987ef804f2079ED5eF59e47c93874ABcB50483a"
      ],
      "transaction": {
        "from": "0x5b1e22ec6d83fa3008be3bc39c69e3577e3411d4",
        "gas": "0x1abbc7",
        "value": "0x0",
        "input": "0x60a06040525f5f55348015610012575f5ffd5b506040516117ff3803806117ff83398181016040528101906100349190610150565b806100436100a760201b60201c565b5f81905550600161006661005b6100af60201b60201c565b6100d860201b60201c565b5f01819055508073ffffffffffffffffffffffffffffffffffffffff1660808173ffffffffffffffffffffffffffffffffffffffff1681525050505061017b565b5f6001905090565b5f7f9b779b17422d0df92223018b32b4d1fa46e071723d6817e2486d003becc55f005f1b905090565b5f819050919050565b5f5ffd5b5f73ffffffffffffffffffffffffffffffffffffffff82169050919050565b5f61010e826100e5565b9050919050565b5f61011f82610104565b9050919050565b61012f81610115565b8114610139575f5ffd5b50565b5f8151905061014a81610126565b92915050565b5f60208284031215610165576101646100e1565b5b5f6101728482850161013c565b91505092915050565b6080516116506101af5f395f81816103a00152818161063701528181610730015281816109b70152610b8c01526116505ff3fe608060405234801561000f575f5ffd5b506004361061012a575f3560e01c806388d9aa4d116100ab578063c4d66de81161006f578063c4d66de8146102fa578063dbd0e1b614610316578063e9cbd82214610334578063f2fde38b14610352578063f3f247eb1461036e5761012a565b806388d9aa4d146102545780638da5cb5b14610270578063ad7a672f1461028e578063b6f67312146102ac578063bc1c2c29146102ca5761012a565b806344dd3d0d116100f257806344dd3d0d146101ae5780634a0ea4d7146101cc578063602e455b146101fc578063667c99de1461022c578063715018a61461024a5761012a565b80630542975c1461012e578063119793791461014c57806312065fe0146101565780633e3487ec146101745780633e745b2214610190575b5f5ffd5b61013661039e565b6040516101439190610fc4565b60405180910390f35b6101546103c2565b005b61015e610479565b60405161016b9190610ff5565b60405180910390f35b61018e60048036038101906101899190611045565b610482565b005b610198610540565b6040516101a59190610ff5565b60405180910390f35b6101b6610545565b6040516101c39190610ff5565b60405180910390f35b6101e660048036038101906101e191906110a3565b6105e4565b6040516101f391906110e8565b60405180910390f35b6102166004803603810190610211919061113c565b61060a565b60405161022391906110e8565b60405180910390f35b61023461072d565b60405161024191906111af565b60405180910390f35b6102526107c0565b005b61026e60048036038101906102699190611045565b6107d3565b005b610278610891565b60405161028591906111af565b60405180910390f35b6102966108c6565b6040516102a39190610ff5565b60405180910390f35b6102b46108cc565b6040516102c191906111af565b60405180910390f35b6102e460048036038101906102df91906111c8565b6108f4565b6040516102f19190610ff5565b60405180910390f35b610314600480360381019061030f919061122e565b610909565b005b61031e610b89565b60405161032b91906111af565b60405180910390f35b61033c610c1c565b6040516103499190611279565b60405180910390f35b61036c600480360381019061036791906111c8565b610c41565b005b610388600480360381019061038391906110a3565b610cc5565b60405161039591906110e8565b60405180910390f35b7f000000000000000000000000000000000000000000000000000000000000000081565b6103ca610ce2565b6103d2610d04565b736709df9f3211b6a65c1b0451b1a440f5dbaab0a763ff092bf860345f9054906101000a900473ffffffffffffffffffffffffffffffffffffffff166040518263ffffffff1660e01b815260040161042a91906112a1565b602060405180830381865af4158015610445573d5f5f3e3d5ffd5b505050506040513d601f19601f8201168201806040525081019061046991906112ce565b603581905550610477610d8b565b565b5f603554905090565b61048a610ce2565b610492610d04565b736709df9f3211b6a65c1b0451b1a440f5dbaab0a7637e650db860345f9054906101000a900473ffffffffffffffffffffffffffffffffffffffff16836035546040518463ffffffff1660e01b81526004016104f093929190611308565b602060405180830381865af415801561050b573d5f5f3e3d5ffd5b505050506040513d601f19601f8201168201806040525081019061052f91906112ce565b60358190555061053d610d8b565b50565b600181565b5f60345f9054906101000a900473ffffffffffffffffffffffffffffffffffffffff1673ffffffffffffffffffffffffffffffffffffffff166370a08231306040518263ffffffff1660e01b81526004016105a091906111af565b602060405180830381865afa1580156105bb573d5f5f3e3d5ffd5b505050506040513d601f19601f820116820180604052508101906105df91906112ce565b905090565b5f60375f8381526020019081526020015f205f9054906101000a900460ff169050919050565b5f610613610ce2565b61061b610d04565b73b045de9904c56e738a845aa274916db2261f03a563e2745f397f0000000000000000000000000000000000000000000000000000000000000000603760345f9054906101000a900473ffffffffffffffffffffffffffffffffffffffff1660355460405180608001604052808c81526020018b73ffffffffffffffffffffffffffffffffffffffff1681526020018a8152602001898152506040518663ffffffff1660e01b81526004016106d49594939291906113d3565b602060405180830381865af41580156106ef573d5f5f3e3d5ffd5b505050506040513d601f19601f8201168201806040525081019061071391906112ce565b60358190555060019050610725610d8b565b949350505050565b5f7f000000000000000000000000000000000000000000000000000000000000000073ffffffffffffffffffffffffffffffffffffffff1663667c99de6040518163ffffffff1660e01b8152600401602060405180830381865afa158015610797573d5f5f3e3d5ffd5b505050506040513d601f19601f820116820180604052508101906107bb9190611439565b905090565b6107c8610d04565b6107d15f610da5565b565b6107db610ce2565b6107e3610d04565b734d730d7c5403f0b62fa855cc1c3846dc1673c1b163f3dae24a60345f9054906101000a900473ffffffffffffffffffffffffffffffffffffffff16836035546040518463ffffffff1660e01b815260040161084193929190611308565b602060405180830381865af415801561085c573d5f5f3e3d5ffd5b505050506040513d601f19601f8201168201806040525081019061088091906112ce565b60358190555061088e610d8b565b50565b5f5f61089b610e76565b9050805f015f9054906101000a900473ffffffffffffffffffffffffffffffffffffffff1691505090565b60355481565b5f60345f9054906101000a900473ffffffffffffffffffffffffffffffffffffffff16905090565b6036602052805f5260405f205f915090505481565b5f610912610e9d565b905060015f9054906101000a900460ff16806109325750610931610ea5565b5b8061093d57505f5481115b61097c576040517f08c379a0000000000000000000000000000000000000000000000000000000008152600401610973906114e4565b60405180910390fd5b5f60015f9054906101000a900460ff1615905080156109b5576001805f6101000a81548160ff021916908315150217905550815f819055505b7f000000000000000000000000000000000000000000000000000000000000000073ffffffffffffffffffffffffffffffffffffffff168373ffffffffffffffffffffffffffffffffffffffff1614610a3a576040517f2fe88f0b00000000000000000000000000000000000000000000000000000000815260040160405180910390fd5b5f8373ffffffffffffffffffffffffffffffffffffffff16636bd50cef6040518163ffffffff1660e01b8152600401606060405180830381865afa158015610a84573d5f5f3e3d5ffd5b505050506040513d601f19601f82011682018060405250810190610aa891906115ef565b9050610b1f8473ffffffffffffffffffffffffffffffffffffffff16638da5cb5b6040518163ffffffff1660e01b8152600401602060405180830381865afa158015610af6573d5f5f3e3d5ffd5b505050506040513d601f19601f82011682018060405250810190610b1a9190611439565b610da5565b806040015160345f6101000a81548173ffffffffffffffffffffffffffffffffffffffff021916908373ffffffffffffffffffffffffffffffffffffffff160217905550508015610b84575f60015f6101000a81548160ff0219169083151502179055505b505050565b5f7f000000000000000000000000000000000000000000000000000000000000000073ffffffffffffffffffffffffffffffffffffffff1663dbd0e1b66040518163ffffffff1660e01b8152600401602060405180830381865afa158015610bf3573d5f5f3e3d5ffd5b505050506040513d601f19601f82011682018060405250810190610c179190611439565b905090565b60345f9054906101000a900473ffffffffffffffffffffffffffffffffffffffff1681565b610c49610d04565b5f73ffffffffffffffffffffffffffffffffffffffff168173ffffffffffffffffffffffffffffffffffffffff1603610cb9575f6040517f1e4fbdf7000000000000000000000000000000000000000000000000000000008152600401610cb091906111af565b60405180910390fd5b610cc281610da5565b50565b6037602052805f5260405f205f915054906101000a900460ff1681565b610cea610eb4565b6002610cfc610cf7610ef5565b610f1e565b5f0181905550565b610d0c610f27565b73ffffffffffffffffffffffffffffffffffffffff16610d2a610891565b73ffffffffffffffffffffffffffffffffffffffff1614610d8957610d4d610f27565b6040517f118cdaa7000000000000000000000000000000000000000000000000000000008152600401610d8091906111af565b60405180910390fd5b565b6001610d9d610d98610ef5565b610f1e565b5f0181905550565b5f610dae610e76565b90505f815f015f9054906101000a900473ffffffffffffffffffffffffffffffffffffffff16905082825f015f6101000a81548173ffffffffffffffffffffffffffffffffffffffff021916908373ffffffffffffffffffffffffffffffffffffffff1602179055508273ffffffffffffffffffffffffffffffffffffffff168173ffffffffffffffffffffffffffffffffffffffff167f8be0079c531659141344cd1fd0a4f28419497f9722a3daafe3b4186f6b6457e060405160405180910390a3505050565b5f7f9016d09d72d40fdae2fd8ceac6b6234c7706214fd39c1cd1e609a0528c199300905090565b5f6001905090565b5f5f303b90505f811491505090565b610ebc610f2e565b15610ef3576040517f3ee5aeb500000000000000000000000000000000000000000000000000000000815260040160405180910390fd5b565b5f7f9b779b17422d0df92223018b32b4d1fa46e071723d6817e2486d003becc55f005f1b905090565b5f819050919050565b5f33905090565b5f6002610f41610f3c610ef5565b610f1e565b5f015414905090565b5f73ffffffffffffffffffffffffffffffffffffffff82169050919050565b5f819050919050565b5f610f8c610f87610f8284610f4a565b610f69565b610f4a565b9050919050565b5f610f9d82610f72565b9050919050565b5f610fae82610f93565b9050919050565b610fbe81610fa4565b82525050565b5f602082019050610fd75f830184610fb5565b92915050565b5f819050919050565b610fef81610fdd565b82525050565b5f6020820190506110085f830184610fe6565b92915050565b5f604051905090565b5f5ffd5b61102481610fdd565b811461102e575f5ffd5b50565b5f8135905061103f8161101b565b92915050565b5f6020828403121561105a57611059611017565b5b5f61106784828501611031565b91505092915050565b5f819050919050565b61108281611070565b811461108c575f5ffd5b50565b5f8135905061109d81611079565b92915050565b5f602082840312156110b8576110b7611017565b5b5f6110c58482850161108f565b91505092915050565b5f8115159050919050565b6110e2816110ce565b82525050565b5f6020820190506110fb5f8301846110d9565b92915050565b5f61110b82610f4a565b9050919050565b61111b81611101565b8114611125575f5ffd5b50565b5f8135905061113681611112565b92915050565b5f5f5f5f6080858703121561115457611153611017565b5b5f6111618782880161108f565b945050602061117287828801611128565b935050604061118387828801611031565b925050606061119487828801611031565b91505092959194509250565b6111a981611101565b82525050565b5f6020820190506111c25f8301846111a0565b92915050565b5f602082840312156111dd576111dc611017565b5b5f6111ea84828501611128565b91505092915050565b5f6111fd82611101565b9050919050565b61120d816111f3565b8114611217575f5ffd5b50565b5f8135905061122881611204565b92915050565b5f6020828403121561124357611242611017565b5b5f6112508482850161121a565b91505092915050565b5f61126382610f93565b9050919050565b61127381611259565b82525050565b5f60208201905061128c5f83018461126a565b92915050565b61129b81611259565b82525050565b5f6020820190506112b45f830184611292565b92915050565b5f815190506112c88161101b565b92915050565b5f602082840312156112e3576112e2611017565b5b5f6112f0848285016112ba565b91505092915050565b61130281610fdd565b82525050565b5f60608201905061131b5f830186611292565b61132860208301856112f9565b61133560408301846112f9565b949350505050565b61134681610fa4565b82525050565b8082525050565b61135c81611070565b82525050565b61136b81611101565b82525050565b61137a81610fdd565b82525050565b608082015f8201516113945f850182611353565b5060208201516113a76020850182611362565b5060408201516113ba6040850182611371565b5060608201516113cd6060850182611371565b50505050565b5f610100820190506113e75f83018861133d565b6113f4602083018761134c565b6114016040830186611292565b61140e60608301856112f9565b61141b6080830184611380565b9695505050505050565b5f8151905061143381611112565b92915050565b5f6020828403121561144e5761144d611017565b5b5f61145b84828501611425565b91505092915050565b5f82825260208201905092915050565b7f436f6e747261637420696e7374616e63652068617320616c72656164792062655f8201527f656e20696e697469616c697a6564000000000000000000000000000000000000602082015250565b5f6114ce602e83611464565b91506114d982611474565b604082019050919050565b5f6020820190508181035f8301526114fb816114c2565b9050919050565b5f5ffd5b5f601f19601f8301169050919050565b7f4e487b71000000000000000000000000000000000000000000000000000000005f52604160045260245ffd5b61154c82611506565b810181811067ffffffffffffffff8211171561156b5761156a611516565b5b80604052505050565b5f61157d61100e565b90506115898282611543565b919050565b5f606082840312156115a3576115a2611502565b5b6115ad6060611574565b90505f6115bc84828501611425565b5f8301525060206115cf84828501611425565b60208301525060406115e384828501611425565b60408301525092915050565b5f6060828403121561160457611603611017565b5b5f6116118482850161158e565b9150509291505056fea26469706673582212201f7d1e7df3d844cf0c2647871340117b344c2754bb199a7b3f3b57b5ef016a0664736f6c634300082100330000000000000000000000006987ef804f2079ed5ef59e47c93874abcb50483a",
        "nonce": "0x5",
        "chainId": "0x66eee"
      },
      "additionalContracts": [],
      "isFixedGasLimit": false
    },
    {
      "hash": "0xbf71d2716ba4aebac06dd70b89da87d4608cd1d7a3d86d60afab754d2a2eff98",
      "transactionType": "CALL",
      "contractName": "ProcessorAddressesProvider",
      "contractAddress": "0x6987ef804f2079ed5ef59e47c93874abcb50483a",
      "function": "setProcessorImpl(address)",
      "arguments": [
        "0x91db19b7f276C797cA400533063F51AE907Bbc87"
      ],
      "transaction": {
        "from": "0x5b1e22ec6d83fa3008be3bc39c69e3577e3411d4",
        "to": "0x6987ef804f2079ed5ef59e47c93874abcb50483a",
        "gas": "0x6dad",
        "value": "0x0",
        "input": "0x832e9fce00000000000000000000000091db19b7f276c797ca400533063f51ae907bbc87",
        "nonce": "0x6",
        "chainId": "0x66eee"
      },
      "additionalContracts": [
        {
          "transactionType": "CREATE",
          "contractName": "InitializableImmutableAdminUpgradeabilityProxy",
          "address": "0x5e85a91d5488509fc61edae1616cf3f312dbf6b8",
          "initCode": "0x60a060405234801561000f575f5ffd5b50604051610d44380380610d44833981810160405281019061003191906100cb565b808073ffffffffffffffffffffffffffffffffffffffff1660808173ffffffffffffffffffffffffffffffffffffffff168152505050506100f6565b5f5ffd5b5f73ffffffffffffffffffffffffffffffffffffffff82169050919050565b5f61009a82610071565b9050919050565b6100aa81610090565b81146100b4575f5ffd5b50565b5f815190506100c5816100a1565b92915050565b5f602082840312156100e0576100df61006d565b5b5f6100ed848285016100b7565b91505092915050565b608051610c136101315f395f8181610136015281816101a3015281816102860152818161041d0152818161047001526105c00152610c135ff3fe60806040526004361061004d575f3560e01c80633659cfe6146100665780634f1ef2861461008e5780635c60da1b146100aa578063d1f57894146100d4578063f851a440146100f05761005c565b3661005c5761005a61011a565b005b61006461011a565b005b348015610071575f5ffd5b5061008c600480360381019061008791906106d4565b610134565b005b6100a860048036038101906100a39190610760565b6101a1565b005b3480156100b5575f5ffd5b506100be610283565b6040516100cb91906107cc565b60405180910390f35b6100ee60048036038101906100e9919061091d565b6102f2565b005b3480156100fb575f5ffd5b5061010461041a565b60405161011191906107cc565b60405180910390f35b6101226104a2565b61013261012d6104ac565b6104db565b565b7f000000000000000000000000000000000000000000000000000000000000000073ffffffffffffffffffffffffffffffffffffffff163373ffffffffffffffffffffffffffffffffffffffff160361019557610190816104fa565b61019e565b61019d61011a565b5b50565b7f000000000000000000000000000000000000000000000000000000000000000073ffffffffffffffffffffffffffffffffffffffff163373ffffffffffffffffffffffffffffffffffffffff1603610275576101fd836104fa565b5f8373ffffffffffffffffffffffffffffffffffffffff1683836040516102259291906109a5565b5f60405180830381855af49150503d805f811461025d576040519150601f19603f3d011682016040523d82523d5f602084013e610262565b606091505b505090508061026f575f5ffd5b5061027e565b61027d61011a565b5b505050565b5f7f000000000000000000000000000000000000000000000000000000000000000073ffffffffffffffffffffffffffffffffffffffff163373ffffffffffffffffffffffffffffffffffffffff16036102e6576102df6104ac565b90506102ef565b6102ee61011a565b5b90565b5f73ffffffffffffffffffffffffffffffffffffffff166103116104ac565b73ffffffffffffffffffffffffffffffffffffffff1614610330575f5ffd5b60017f360894a13ba1a3210667c828492db98dca3e2076cc3735a920a3ca505d382bbd5f1c61035f91906109f3565b5f1b7f360894a13ba1a3210667c828492db98dca3e2076cc3735a920a3ca505d382bbc5f1b1461039257610391610a26565b5b61039b82610549565b5f81511115610416575f8273ffffffffffffffffffffffffffffffffffffffff16826040516103ca9190610a9b565b5f60405180830381855af49150503d805f8114610402576040519150601f19603f3d011682016040523d82523d5f602084013e610407565b606091505b5050905080610414575f5ffd5b505b5050565b5f7f000000000000000000000000000000000000000000000000000000000000000073ffffffffffffffffffffffffffffffffffffffff163373ffffffffffffffffffffffffffffffffffffffff1603610496577f0000000000000000000000000000000000000000000000000000000000000000905061049f565b61049e61011a565b5b90565b6104aa6105be565b565b5f5f7f360894a13ba1a3210667c828492db98dca3e2076cc3735a920a3ca505d382bbc5f1b9050805491505090565b365f5f375f5f365f845af43d5f5f3e805f81146104f6573d5ff35b3d5ffd5b61050381610549565b8073ffffffffffffffffffffffffffffffffffffffff167fbc7cd75a20ee27fd9adebab32041f755214dbc6bffa90cc0225b39da2e5c2d3b60405160405180910390a250565b61055281610656565b610591576040517f08c379a000000000000000000000000000000000000000000000000000000000815260040161058890610b31565b60405180910390fd5b5f7f360894a13ba1a3210667c828492db98dca3e2076cc3735a920a3ca505d382bbc5f1b90508181555050565b7f000000000000000000000000000000000000000000000000000000000000000073ffffffffffffffffffffffffffffffffffffffff163373ffffffffffffffffffffffffffffffffffffffff160361064c576040517f08c379a000000000000000000000000000000000000000000000000000000000815260040161064390610bbf565b60405180910390fd5b610654610667565b565b5f5f823b90505f8111915050919050565b565b5f604051905090565b5f5ffd5b5f5ffd5b5f73ffffffffffffffffffffffffffffffffffffffff82169050919050565b5f6106a38261067a565b9050919050565b6106b381610699565b81146106bd575f5ffd5b50565b5f813590506106ce816106aa565b92915050565b5f602082840312156106e9576106e8610672565b5b5f6106f6848285016106c0565b91505092915050565b5f5ffd5b5f5ffd5b5f5ffd5b5f5f83601f8401126107205761071f6106ff565b5b8235905067ffffffffffffffff81111561073d5761073c610703565b5b60208301915083600182028301111561075957610758610707565b5b9250929050565b5f5f5f6040848603121561077757610776610672565b5b5f610784868287016106c0565b935050602084013567ffffffffffffffff8111156107a5576107a4610676565b5b6107b18682870161070b565b92509250509250925092565b6107c681610699565b82525050565b5f6020820190506107df5f8301846107bd565b92915050565b5f5ffd5b5f601f19601f8301169050919050565b7f4e487b71000000000000000000000000000000000000000000000000000000005f52604160045260245ffd5b61082f826107e9565b810181811067ffffffffffffffff8211171561084e5761084d6107f9565b5b80604052505050565b5f610860610669565b905061086c8282610826565b919050565b5f67ffffffffffffffff82111561088b5761088a6107f9565b5b610894826107e9565b9050602081019050919050565b828183375f83830152505050565b5f6108c16108bc84610871565b610857565b9050828152602081018484840111156108dd576108dc6107e5565b5b6108e88482856108a1565b509392505050565b5f82601f830112610904576109036106ff565b5b81356109148482602086016108af565b91505092915050565b5f5f6040838503121561093357610932610672565b5b5f610940858286016106c0565b925050602083013567ffffffffffffffff81111561096157610960610676565b5b61096d858286016108f0565b9150509250929050565b5f81905092915050565b5f61098c8385610977565b93506109998385846108a1565b82840190509392505050565b5f6109b1828486610981565b91508190509392505050565b5f819050919050565b7f4e487b71000000000000000000000000000000000000000000000000000000005f52601160045260245ffd5b5f6109fd826109bd565b9150610a08836109bd565b9250828203905081811115610a2057610a1f6109c6565b5b92915050565b7f4e487b71000000000000000000000000000000000000000000000000000000005f52600160045260245ffd5b5f81519050919050565b8281835e5f83830152505050565b5f610a7582610a53565b610a7f8185610977565b9350610a8f818560208601610a5d565b80840191505092915050565b5f610aa68284610a6b565b915081905092915050565b5f82825260208201905092915050565b7f43616e6e6f742073657420612070726f787920696d706c656d656e746174696f5f8201527f6e20746f2061206e6f6e2d636f6e747261637420616464726573730000000000602082015250565b5f610b1b603b83610ab1565b9150610b2682610ac1565b604082019050919050565b5f6020820190508181035f830152610b4881610b0f565b9050919050565b7f43616e6e6f742063616c6c2066616c6c6261636b2066756e6374696f6e2066725f8201527f6f6d207468652070726f78792061646d696e0000000000000000000000000000602082015250565b5f610ba9603283610ab1565b9150610bb482610b4f565b604082019050919050565b5f6020820190508181035f830152610bd681610b9d565b905091905056fea26469706673582212204ef812b769ae523fc85ecedfab338b3317cf709161f23961345f2e28c966196d64736f6c634300082100330000000000000000000000006987ef804f2079ed5ef59e47c93874abcb50483a"
        }
      ],
      "isFixedGasLimit": false
    },
    {
      "hash": "0x8c2cb0323f4c7ec3d46be03783fbe222f1e0724382e4e5941c66a0748259d367",
      "transactionType": "CALL",
      "contractName": "PlatformNft",
      "contractAddress": "0xf0212bc88af989feeaf494fb23c8c065583da2e3",
      "function": "setApprovalForAll(address,bool)",
      "arguments": [
        "0x5e85A91d5488509FC61EDae1616cF3f312DbF6b8",
        "true"
      ],
      "transaction": {
        "from": "0x5b1e22ec6d83fa3008be3bc39c69e3577e3411d4",
        "to": "0xf0212bc88af989feeaf494fb23c8c065583da2e3",
        "gas": "0x6e63",
        "value": "0x0",
        "input": "0xa22cb4650000000000000000000000005e85a91d5488509fc61edae1616cf3f312dbf6b80000000000000000000000000000000000000000000000000000000000000001",
        "nonce": "0x7",
        "chainId": "0x66eee"
      },
      "additionalContracts": [],
      "isFixedGasLimit": false
    }
  ],
  "receipts": [
    {
      "status": "0x1",
      "cumulativeGasUsed": "0x4fe3d",
      "logs": [],
      "logsBloom": "0x00000000000000000000000000000000000000000000000000000000000000000000000000000000000000000000000000000000000000000000000000000000000000000000000000000000000000000000000000000000000000000000000000000000000000000000000000000000000000000000000000000000000000000000000000000000000000000000000000000000000000000000000000000000000000000000000000000000000000000000000000000000000000000000000000000000000000000000000000000000000000000000000000000000000000000000000000000000000000000000000000000000000000000000000000000000",
      "type": "0x2",
      "transactionHash": "0x7e9db5b7c1d426856d6da7122c52c704dee08d369b7c94b14d4158d508067bb3",
      "transactionIndex": "0x3",
      "blockHash": "0x42fca0955705ec955d4c10276697c013f4ff28188ec4bd3e8dffbf7246b78b02",
      "blockNumber": "0xfc77a05",
      "gasUsed": "0x40322",
      "effectiveGasPrice": "0x1312d00",
      "from": "0x5b1e22ec6d83fa3008be3bc39c69e3577e3411d4",
      "to": "0x4e59b44847b379578588920ca78fbf26c0b4956c",
      "contractAddress": null,
      "gasUsedForL1": "0x0",
      "l1BlockNumber": "0xa466df",
      "timeboosted": false
    },
    {
      "status": "0x1",
      "cumulativeGasUsed": "0x5abbb",
      "logs": [],
      "logsBloom": "0x00000000000000000000000000000000000000000000000000000000000000000000000000000000000000000000000000000000000000000000000000000000000000000000000000000000000000000000000000000000000000000000000000000000000000000000000000000000000000000000000000000000000000000000000000000000000000000000000000000000000000000000000000000000000000000000000000000000000000000000000000000000000000000000000000000000000000000000000000000000000000000000000000000000000000000000000000000000000000000000000000000000000000000000000000000000",
      "type": "0x2",
      "transactionHash": "0x04531ce3cf26b4bc7ebd57d6f291c452b2a6a925346a836ca9b633998e2fa88f",
      "transactionIndex": "0x1",
      "blockHash": "0x3ac525480695c8eaadfb947b8728393bebd8eb4e7638319ab335e0fe45b9ff61",
      "blockNumber": "0xfc77a07",
      "gasUsed": "0x5abbb",
      "effectiveGasPrice": "0x1352c70",
      "from": "0x5b1e22ec6d83fa3008be3bc39c69e3577e3411d4",
      "to": "0x4e59b44847b379578588920ca78fbf26c0b4956c",
      "contractAddress": null,
      "gasUsedForL1": "0x0",
      "l1BlockNumber": "0xa466df",
      "timeboosted": false
    },
    {
      "status": "0x1",
      "cumulativeGasUsed": "0x963fd",
      "logs": [],
      "logsBloom": "0x00000000000000000000000000000000000000000000000000000000000000000000000000000000000000000000000000000000000000000000000000000000000000000000000000000000000000000000000000000000000000000000000000000000000000000000000000000000000000000000000000000000000000000000000000000000000000000000000000000000000000000000000000000000000000000000000000000000000000000000000000000000000000000000000000000000000000000000000000000000000000000000000000000000000000000000000000000000000000000000000000000000000000000000000000000000",
      "type": "0x2",
      "transactionHash": "0xf7873ef9ff25bbfa22b5b367d026385b7fb4a410e779d8b80a62122bdb15dc36",
      "transactionIndex": "0x1",
      "blockHash": "0x5e835157be3ea8f23000a31f96841394db26b2449b9cb9603cd8c10447c03cb0",
      "blockNumber": "0xfc77a09",
      "gasUsed": "0x963fd",
      "effectiveGasPrice": "0x132cb10",
      "from": "0x5b1e22ec6d83fa3008be3bc39c69e3577e3411d4",
      "to": "0x4e59b44847b379578588920ca78fbf26c0b4956c",
      "contractAddress": null,
      "gasUsedForL1": "0x0",
      "l1BlockNumber": "0xa466df",
      "timeboosted": false
    },
    {
      "status": "0x1",
      "cumulativeGasUsed": "0x500021",
      "logs": [
        {
          "address": "0xf0212bc88af989feeaf494fb23c8c065583da2e3",
          "topics": [
            "0x8be0079c531659141344cd1fd0a4f28419497f9722a3daafe3b4186f6b6457e0",
            "0x0000000000000000000000000000000000000000000000000000000000000000",
            "0x0000000000000000000000005b1e22ec6d83fa3008be3bc39c69e3577e3411d4"
          ],
          "data": "0x",
          "blockHash": "0xdb4871d073e426b6e31c140a1d20ca196108032c17093d64453c8bea3e7b87c8",
          "blockNumber": "0xfc77a0c",
          "blockTimestamp": "0x69f5bc92",
          "transactionHash": "0x3982a0ca9b754fadf251d8ef7146e83bf8c3bd794e730816a586df07b7678ace",
          "transactionIndex": "0x1",
          "logIndex": "0x0",
          "removed": false
        },
        {
          "address": "0xf0212bc88af989feeaf494fb23c8c065583da2e3",
          "topics": [
            "0xddf252ad1be2c89b69c2b068fc378daa952ba7f163c4a11628f55a4df523b3ef",
            "0x0000000000000000000000000000000000000000000000000000000000000000",
            "0x0000000000000000000000005b1e22ec6d83fa3008be3bc39c69e3577e3411d4",
            "0x0000000000000000000000000000000000000000000000000000000000000001"
          ],
          "data": "0x",
          "blockHash": "0xdb4871d073e426b6e31c140a1d20ca196108032c17093d64453c8bea3e7b87c8",
          "blockNumber": "0xfc77a0c",
          "blockTimestamp": "0x69f5bc92",
          "transactionHash": "0x3982a0ca9b754fadf251d8ef7146e83bf8c3bd794e730816a586df07b7678ace",
          "transactionIndex": "0x1",
          "logIndex": "0x1",
          "removed": false
        },
        {
          "address": "0xf0212bc88af989feeaf494fb23c8c065583da2e3",
          "topics": [
            "0xddf252ad1be2c89b69c2b068fc378daa952ba7f163c4a11628f55a4df523b3ef",
            "0x0000000000000000000000000000000000000000000000000000000000000000",
            "0x0000000000000000000000005b1e22ec6d83fa3008be3bc39c69e3577e3411d4",
            "0x0000000000000000000000000000000000000000000000000000000000000002"
          ],
          "data": "0x",
          "blockHash": "0xdb4871d073e426b6e31c140a1d20ca196108032c17093d64453c8bea3e7b87c8",
          "blockNumber": "0xfc77a0c",
          "blockTimestamp": "0x69f5bc92",
          "transactionHash": "0x3982a0ca9b754fadf251d8ef7146e83bf8c3bd794e730816a586df07b7678ace",
          "transactionIndex": "0x1",
          "logIndex": "0x2",
          "removed": false
        },
        {
          "address": "0xf0212bc88af989feeaf494fb23c8c065583da2e3",
          "topics": [
            "0xddf252ad1be2c89b69c2b068fc378daa952ba7f163c4a11628f55a4df523b3ef",
            "0x0000000000000000000000000000000000000000000000000000000000000000",
            "0x0000000000000000000000005b1e22ec6d83fa3008be3bc39c69e3577e3411d4",
            "0x0000000000000000000000000000000000000000000000000000000000000003"
          ],
          "data": "0x",
          "blockHash": "0xdb4871d073e426b6e31c140a1d20ca196108032c17093d64453c8bea3e7b87c8",
          "blockNumber": "0xfc77a0c",
          "blockTimestamp": "0x69f5bc92",
          "transactionHash": "0x3982a0ca9b754fadf251d8ef7146e83bf8c3bd794e730816a586df07b7678ace",
          "transactionIndex": "0x1",
          "logIndex": "0x3",
          "removed": false
        },
        {
          "address": "0xf0212bc88af989feeaf494fb23c8c065583da2e3",
          "topics": [
            "0xddf252ad1be2c89b69c2b068fc378daa952ba7f163c4a11628f55a4df523b3ef",
            "0x0000000000000000000000000000000000000000000000000000000000000000",
            "0x0000000000000000000000005b1e22ec6d83fa3008be3bc39c69e3577e3411d4",
            "0x0000000000000000000000000000000000000000000000000000000000000004"
          ],
          "data": "0x",
          "blockHash": "0xdb4871d073e426b6e31c140a1d20ca196108032c17093d64453c8bea3e7b87c8",
          "blockNumber": "0xfc77a0c",
          "blockTimestamp": "0x69f5bc92",
          "transactionHash": "0x3982a0ca9b754fadf251d8ef7146e83bf8c3bd794e730816a586df07b7678ace",
          "transactionIndex": "0x1",
          "logIndex": "0x4",
          "removed": false
        },
        {
          "address": "0xf0212bc88af989feeaf494fb23c8c065583da2e3",
          "topics": [
            "0xddf252ad1be2c89b69c2b068fc378daa952ba7f163c4a11628f55a4df523b3ef",
            "0x0000000000000000000000000000000000000000000000000000000000000000",
            "0x0000000000000000000000005b1e22ec6d83fa3008be3bc39c69e3577e3411d4",
            "0x0000000000000000000000000000000000000000000000000000000000000005"
          ],
          "data": "0x",
          "blockHash": "0xdb4871d073e426b6e31c140a1d20ca196108032c17093d64453c8bea3e7b87c8",
          "blockNumber": "0xfc77a0c",
          "blockTimestamp": "0x69f5bc92",
          "transactionHash": "0x3982a0ca9b754fadf251d8ef7146e83bf8c3bd794e730816a586df07b7678ace",
          "transactionIndex": "0x1",
          "logIndex": "0x5",
          "removed": false
        },
        {
          "address": "0xf0212bc88af989feeaf494fb23c8c065583da2e3",
          "topics": [
            "0xddf252ad1be2c89b69c2b068fc378daa952ba7f163c4a11628f55a4df523b3ef",
            "0x0000000000000000000000000000000000000000000000000000000000000000",
            "0x0000000000000000000000005b1e22ec6d83fa3008be3bc39c69e3577e3411d4",
            "0x0000000000000000000000000000000000000000000000000000000000000006"
          ],
          "data": "0x",
          "blockHash": "0xdb4871d073e426b6e31c140a1d20ca196108032c17093d64453c8bea3e7b87c8",
          "blockNumber": "0xfc77a0c",
          "blockTimestamp": "0x69f5bc92",
          "transactionHash": "0x3982a0ca9b754fadf251d8ef7146e83bf8c3bd794e730816a586df07b7678ace",
          "transactionIndex": "0x1",
          "logIndex": "0x6",
          "removed": false
        },
        {
          "address": "0xf0212bc88af989feeaf494fb23c8c065583da2e3",
          "topics": [
            "0xddf252ad1be2c89b69c2b068fc378daa952ba7f163c4a11628f55a4df523b3ef",
            "0x0000000000000000000000000000000000000000000000000000000000000000",
            "0x0000000000000000000000005b1e22ec6d83fa3008be3bc39c69e3577e3411d4",
            "0x0000000000000000000000000000000000000000000000000000000000000007"
          ],
          "data": "0x",
          "blockHash": "0xdb4871d073e426b6e31c140a1d20ca196108032c17093d64453c8bea3e7b87c8",
          "blockNumber": "0xfc77a0c",
          "blockTimestamp": "0x69f5bc92",
          "transactionHash": "0x3982a0ca9b754fadf251d8ef7146e83bf8c3bd794e730816a586df07b7678ace",
          "transactionIndex": "0x1",
          "logIndex": "0x7",
          "removed": false
        },
        {
          "address": "0xf0212bc88af989feeaf494fb23c8c065583da2e3",
          "topics": [
            "0xddf252ad1be2c89b69c2b068fc378daa952ba7f163c4a11628f55a4df523b3ef",
            "0x0000000000000000000000000000000000000000000000000000000000000000",
            "0x0000000000000000000000005b1e22ec6d83fa3008be3bc39c69e3577e3411d4",
            "0x0000000000000000000000000000000000000000000000000000000000000008"
          ],
          "data": "0x",
          "blockHash": "0xdb4871d073e426b6e31c140a1d20ca196108032c17093d64453c8bea3e7b87c8",
          "blockNumber": "0xfc77a0c",
          "blockTimestamp": "0x69f5bc92",
          "transactionHash": "0x3982a0ca9b754fadf251d8ef7146e83bf8c3bd794e730816a586df07b7678ace",
          "transactionIndex": "0x1",
          "logIndex": "0x8",
          "removed": false
        },
        {
          "address": "0xf0212bc88af989feeaf494fb23c8c065583da2e3",
          "topics": [
            "0xddf252ad1be2c89b69c2b068fc378daa952ba7f163c4a11628f55a4df523b3ef",
            "0x0000000000000000000000000000000000000000000000000000000000000000",
            "0x0000000000000000000000005b1e22ec6d83fa3008be3bc39c69e3577e3411d4",
            "0x0000000000000000000000000000000000000000000000000000000000000009"
          ],
          "data": "0x",
          "blockHash": "0xdb4871d073e426b6e31c140a1d20ca196108032c17093d64453c8bea3e7b87c8",
          "blockNumber": "0xfc77a0c",
          "blockTimestamp": "0x69f5bc92",
          "transactionHash": "0x3982a0ca9b754fadf251d8ef7146e83bf8c3bd794e730816a586df07b7678ace",
          "transactionIndex": "0x1",
          "logIndex": "0x9",
          "removed": false
        },
        {
          "address": "0xf0212bc88af989feeaf494fb23c8c065583da2e3",
          "topics": [
            "0xddf252ad1be2c89b69c2b068fc378daa952ba7f163c4a11628f55a4df523b3ef",
            "0x0000000000000000000000000000000000000000000000000000000000000000",
            "0x0000000000000000000000005b1e22ec6d83fa3008be3bc39c69e3577e3411d4",
            "0x000000000000000000000000000000000000000000000000000000000000000a"
          ],
          "data": "0x",
          "blockHash": "0xdb4871d073e426b6e31c140a1d20ca196108032c17093d64453c8bea3e7b87c8",
          "blockNumber": "0xfc77a0c",
          "blockTimestamp": "0x69f5bc92",
          "transactionHash": "0x3982a0ca9b754fadf251d8ef7146e83bf8c3bd794e730816a586df07b7678ace",
          "transactionIndex": "0x1",
          "logIndex": "0xa",
          "removed": false
        },
        {
          "address": "0xf0212bc88af989feeaf494fb23c8c065583da2e3",
          "topics": [
            "0xddf252ad1be2c89b69c2b068fc378daa952ba7f163c4a11628f55a4df523b3ef",
            "0x0000000000000000000000000000000000000000000000000000000000000000",
            "0x0000000000000000000000005b1e22ec6d83fa3008be3bc39c69e3577e3411d4",
            "0x000000000000000000000000000000000000000000000000000000000000000b"
          ],
          "data": "0x",
          "blockHash": "0xdb4871d073e426b6e31c140a1d20ca196108032c17093d64453c8bea3e7b87c8",
          "blockNumber": "0xfc77a0c",
          "blockTimestamp": "0x69f5bc92",
          "transactionHash": "0x3982a0ca9b754fadf251d8ef7146e83bf8c3bd794e730816a586df07b7678ace",
          "transactionIndex": "0x1",
          "logIndex": "0xb",
          "removed": false
        },
        {
          "address": "0xf0212bc88af989feeaf494fb23c8c065583da2e3",
          "topics": [
            "0xddf252ad1be2c89b69c2b068fc378daa952ba7f163c4a11628f55a4df523b3ef",
            "0x0000000000000000000000000000000000000000000000000000000000000000",
            "0x0000000000000000000000005b1e22ec6d83fa3008be3bc39c69e3577e3411d4",
            "0x000000000000000000000000000000000000000000000000000000000000000c"
          ],
          "data": "0x",
          "blockHash": "0xdb4871d073e426b6e31c140a1d20ca196108032c17093d64453c8bea3e7b87c8",
          "blockNumber": "0xfc77a0c",
          "blockTimestamp": "0x69f5bc92",
          "transactionHash": "0x3982a0ca9b754fadf251d8ef7146e83bf8c3bd794e730816a586df07b7678ace",
          "transactionIndex": "0x1",
          "logIndex": "0xc",
          "removed": false
        },
        {
          "address": "0xf0212bc88af989feeaf494fb23c8c065583da2e3",
          "topics": [
            "0xddf252ad1be2c89b69c2b068fc378daa952ba7f163c4a11628f55a4df523b3ef",
            "0x0000000000000000000000000000000000000000000000000000000000000000",
            "0x0000000000000000000000005b1e22ec6d83fa3008be3bc39c69e3577e3411d4",
            "0x000000000000000000000000000000000000000000000000000000000000000d"
          ],
          "data": "0x",
          "blockHash": "0xdb4871d073e426b6e31c140a1d20ca196108032c17093d64453c8bea3e7b87c8",
          "blockNumber": "0xfc77a0c",
          "blockTimestamp": "0x69f5bc92",
          "transactionHash": "0x3982a0ca9b754fadf251d8ef7146e83bf8c3bd794e730816a586df07b7678ace",
          "transactionIndex": "0x1",
          "logIndex": "0xd",
          "removed": false
        },
        {
          "address": "0xf0212bc88af989feeaf494fb23c8c065583da2e3",
          "topics": [
            "0xddf252ad1be2c89b69c2b068fc378daa952ba7f163c4a11628f55a4df523b3ef",
            "0x0000000000000000000000000000000000000000000000000000000000000000",
            "0x0000000000000000000000005b1e22ec6d83fa3008be3bc39c69e3577e3411d4",
            "0x000000000000000000000000000000000000000000000000000000000000000e"
          ],
          "data": "0x",
          "blockHash": "0xdb4871d073e426b6e31c140a1d20ca196108032c17093d64453c8bea3e7b87c8",
          "blockNumber": "0xfc77a0c",
          "blockTimestamp": "0x69f5bc92",
          "transactionHash": "0x3982a0ca9b754fadf251d8ef7146e83bf8c3bd794e730816a586df07b7678ace",
          "transactionIndex": "0x1",
          "logIndex": "0xe",
          "removed": false
        },
        {
          "address": "0xf0212bc88af989feeaf494fb23c8c065583da2e3",
          "topics": [
            "0xddf252ad1be2c89b69c2b068fc378daa952ba7f163c4a11628f55a4df523b3ef",
            "0x0000000000000000000000000000000000000000000000000000000000000000",
            "0x0000000000000000000000005b1e22ec6d83fa3008be3bc39c69e3577e3411d4",
            "0x000000000000000000000000000000000000000000000000000000000000000f"
          ],
          "data": "0x",
          "blockHash": "0xdb4871d073e426b6e31c140a1d20ca196108032c17093d64453c8bea3e7b87c8",
          "blockNumber": "0xfc77a0c",
          "blockTimestamp": "0x69f5bc92",
          "transactionHash": "0x3982a0ca9b754fadf251d8ef7146e83bf8c3bd794e730816a586df07b7678ace",
          "transactionIndex": "0x1",
          "logIndex": "0xf",
          "removed": false
        },
        {
          "address": "0xf0212bc88af989feeaf494fb23c8c065583da2e3",
          "topics": [
            "0xddf252ad1be2c89b69c2b068fc378daa952ba7f163c4a11628f55a4df523b3ef",
            "0x0000000000000000000000000000000000000000000000000000000000000000",
            "0x0000000000000000000000005b1e22ec6d83fa3008be3bc39c69e3577e3411d4",
            "0x0000000000000000000000000000000000000000000000000000000000000010"
          ],
          "data": "0x",
          "blockHash": "0xdb4871d073e426b6e31c140a1d20ca196108032c17093d64453c8bea3e7b87c8",
          "blockNumber": "0xfc77a0c",
          "blockTimestamp": "0x69f5bc92",
          "transactionHash": "0x3982a0ca9b754fadf251d8ef7146e83bf8c3bd794e730816a586df07b7678ace",
          "transactionIndex": "0x1",
          "logIndex": "0x10",
          "removed": false
        },
        {
          "address": "0xf0212bc88af989feeaf494fb23c8c065583da2e3",
          "topics": [
            "0xddf252ad1be2c89b69c2b068fc378daa952ba7f163c4a11628f55a4df523b3ef",
            "0x0000000000000000000000000000000000000000000000000000000000000000",
            "0x0000000000000000000000005b1e22ec6d83fa3008be3bc39c69e3577e3411d4",
            "0x0000000000000000000000000000000000000000000000000000000000000011"
          ],
          "data": "0x",
          "blockHash": "0xdb4871d073e426b6e31c140a1d20ca196108032c17093d64453c8bea3e7b87c8",
          "blockNumber": "0xfc77a0c",
          "blockTimestamp": "0x69f5bc92",
          "transactionHash": "0x3982a0ca9b754fadf251d8ef7146e83bf8c3bd794e730816a586df07b7678ace",
          "transactionIndex": "0x1",
          "logIndex": "0x11",
          "removed": false
        },
        {
          "address": "0xf0212bc88af989feeaf494fb23c8c065583da2e3",
          "topics": [
            "0xddf252ad1be2c89b69c2b068fc378daa952ba7f163c4a11628f55a4df523b3ef",
            "0x0000000000000000000000000000000000000000000000000000000000000000",
            "0x0000000000000000000000005b1e22ec6d83fa3008be3bc39c69e3577e3411d4",
            "0x0000000000000000000000000000000000000000000000000000000000000012"
          ],
          "data": "0x",
          "blockHash": "0xdb4871d073e426b6e31c140a1d20ca196108032c17093d64453c8bea3e7b87c8",
          "blockNumber": "0xfc77a0c",
          "blockTimestamp": "0x69f5bc92",
          "transactionHash": "0x3982a0ca9b754fadf251d8ef7146e83bf8c3bd794e730816a586df07b7678ace",
          "transactionIndex": "0x1",
          "logIndex": "0x12",
          "removed": false
        },
        {
          "address": "0xf0212bc88af989feeaf494fb23c8c065583da2e3",
          "topics": [
            "0xddf252ad1be2c89b69c2b068fc378daa952ba7f163c4a11628f55a4df523b3ef",
            "0x0000000000000000000000000000000000000000000000000000000000000000",
            "0x0000000000000000000000005b1e22ec6d83fa3008be3bc39c69e3577e3411d4",
            "0x0000000000000000000000000000000000000000000000000000000000000013"
          ],
          "data": "0x",
          "blockHash": "0xdb4871d073e426b6e31c140a1d20ca196108032c17093d64453c8bea3e7b87c8",
          "blockNumber": "0xfc77a0c",
          "blockTimestamp": "0x69f5bc92",
          "transactionHash": "0x3982a0ca9b754fadf251d8ef7146e83bf8c3bd794e730816a586df07b7678ace",
          "transactionIndex": "0x1",
          "logIndex": "0x13",
          "removed": false
        },
        {
          "address": "0xf0212bc88af989feeaf494fb23c8c065583da2e3",
          "topics": [
            "0xddf252ad1be2c89b69c2b068fc378daa952ba7f163c4a11628f55a4df523b3ef",
            "0x0000000000000000000000000000000000000000000000000000000000000000",
            "0x0000000000000000000000005b1e22ec6d83fa3008be3bc39c69e3577e3411d4",
            "0x0000000000000000000000000000000000000000000000000000000000000014"
          ],
          "data": "0x",
          "blockHash": "0xdb4871d073e426b6e31c140a1d20ca196108032c17093d64453c8bea3e7b87c8",
          "blockNumber": "0xfc77a0c",
          "blockTimestamp": "0x69f5bc92",
          "transactionHash": "0x3982a0ca9b754fadf251d8ef7146e83bf8c3bd794e730816a586df07b7678ace",
          "transactionIndex": "0x1",
          "logIndex": "0x14",
          "removed": false
        },
        {
          "address": "0xf0212bc88af989feeaf494fb23c8c065583da2e3",
          "topics": [
            "0xddf252ad1be2c89b69c2b068fc378daa952ba7f163c4a11628f55a4df523b3ef",
            "0x0000000000000000000000000000000000000000000000000000000000000000",
            "0x0000000000000000000000005b1e22ec6d83fa3008be3bc39c69e3577e3411d4",
            "0x0000000000000000000000000000000000000000000000000000000000000015"
          ],
          "data": "0x",
          "blockHash": "0xdb4871d073e426b6e31c140a1d20ca196108032c17093d64453c8bea3e7b87c8",
          "blockNumber": "0xfc77a0c",
          "blockTimestamp": "0x69f5bc92",
          "transactionHash": "0x3982a0ca9b754fadf251d8ef7146e83bf8c3bd794e730816a586df07b7678ace",
          "transactionIndex": "0x1",
          "logIndex": "0x15",
          "removed": false
        },
        {
          "address": "0xf0212bc88af989feeaf494fb23c8c065583da2e3",
          "topics": [
            "0xddf252ad1be2c89b69c2b068fc378daa952ba7f163c4a11628f55a4df523b3ef",
            "0x0000000000000000000000000000000000000000000000000000000000000000",
            "0x0000000000000000000000005b1e22ec6d83fa3008be3bc39c69e3577e3411d4",
            "0x0000000000000000000000000000000000000000000000000000000000000016"
          ],
          "data": "0x",
          "blockHash": "0xdb4871d073e426b6e31c140a1d20ca196108032c17093d64453c8bea3e7b87c8",
          "blockNumber": "0xfc77a0c",
          "blockTimestamp": "0x69f5bc92",
          "transactionHash": "0x3982a0ca9b754fadf251d8ef7146e83bf8c3bd794e730816a586df07b7678ace",
          "transactionIndex": "0x1",
          "logIndex": "0x16",
          "removed": false
        },
        {
          "address": "0xf0212bc88af989feeaf494fb23c8c065583da2e3",
          "topics": [
            "0xddf252ad1be2c89b69c2b068fc378daa952ba7f163c4a11628f55a4df523b3ef",
            "0x0000000000000000000000000000000000000000000000000000000000000000",
            "0x0000000000000000000000005b1e22ec6d83fa3008be3bc39c69e3577e3411d4",
            "0x0000000000000000000000000000000000000000000000000000000000000017"
          ],
          "data": "0x",
          "blockHash": "0xdb4871d073e426b6e31c140a1d20ca196108032c17093d64453c8bea3e7b87c8",
          "blockNumber": "0xfc77a0c",
          "blockTimestamp": "0x69f5bc92",
          "transactionHash": "0x3982a0ca9b754fadf251d8ef7146e83bf8c3bd794e730816a586df07b7678ace",
          "transactionIndex": "0x1",
          "logIndex": "0x17",
          "removed": false
        },
        {
          "address": "0xf0212bc88af989feeaf494fb23c8c065583da2e3",
          "topics": [
            "0xddf252ad1be2c89b69c2b068fc378daa952ba7f163c4a11628f55a4df523b3ef",
            "0x0000000000000000000000000000000000000000000000000000000000000000",
            "0x0000000000000000000000005b1e22ec6d83fa3008be3bc39c69e3577e3411d4",
            "0x0000000000000000000000000000000000000000000000000000000000000018"
          ],
          "data": "0x",
          "blockHash": "0xdb4871d073e426b6e31c140a1d20ca196108032c17093d64453c8bea3e7b87c8",
          "blockNumber": "0xfc77a0c",
          "blockTimestamp": "0x69f5bc92",
          "transactionHash": "0x3982a0ca9b754fadf251d8ef7146e83bf8c3bd794e730816a586df07b7678ace",
          "transactionIndex": "0x1",
          "logIndex": "0x18",
          "removed": false
        },
        {
          "address": "0xf0212bc88af989feeaf494fb23c8c065583da2e3",
          "topics": [
            "0xddf252ad1be2c89b69c2b068fc378daa952ba7f163c4a11628f55a4df523b3ef",
            "0x0000000000000000000000000000000000000000000000000000000000000000",
            "0x0000000000000000000000005b1e22ec6d83fa3008be3bc39c69e3577e3411d4",
            "0x0000000000000000000000000000000000000000000000000000000000000019"
          ],
          "data": "0x",
          "blockHash": "0xdb4871d073e426b6e31c140a1d20ca196108032c17093d64453c8bea3e7b87c8",
          "blockNumber": "0xfc77a0c",
          "blockTimestamp": "0x69f5bc92",
          "transactionHash": "0x3982a0ca9b754fadf251d8ef7146e83bf8c3bd794e730816a586df07b7678ace",
          "transactionIndex": "0x1",
          "logIndex": "0x19",
          "removed": false
        },
        {
          "address": "0xf0212bc88af989feeaf494fb23c8c065583da2e3",
          "topics": [
            "0xddf252ad1be2c89b69c2b068fc378daa952ba7f163c4a11628f55a4df523b3ef",
            "0x0000000000000000000000000000000000000000000000000000000000000000",
            "0x0000000000000000000000005b1e22ec6d83fa3008be3bc39c69e3577e3411d4",
            "0x000000000000000000000000000000000000000000000000000000000000001a"
          ],
          "data": "0x",
          "blockHash": "0xdb4871d073e426b6e31c140a1d20ca196108032c17093d64453c8bea3e7b87c8",
          "blockNumber": "0xfc77a0c",
          "blockTimestamp": "0x69f5bc92",
          "transactionHash": "0x3982a0ca9b754fadf251d8ef7146e83bf8c3bd794e730816a586df07b7678ace",
          "transactionIndex": "0x1",
          "logIndex": "0x1a",
          "removed": false
        },
        {
          "address": "0xf0212bc88af989feeaf494fb23c8c065583da2e3",
          "topics": [
            "0xddf252ad1be2c89b69c2b068fc378daa952ba7f163c4a11628f55a4df523b3ef",
            "0x0000000000000000000000000000000000000000000000000000000000000000",
            "0x0000000000000000000000005b1e22ec6d83fa3008be3bc39c69e3577e3411d4",
            "0x000000000000000000000000000000000000000000000000000000000000001b"
          ],
          "data": "0x",
          "blockHash": "0xdb4871d073e426b6e31c140a1d20ca196108032c17093d64453c8bea3e7b87c8",
          "blockNumber": "0xfc77a0c",
          "blockTimestamp": "0x69f5bc92",
          "transactionHash": "0x3982a0ca9b754fadf251d8ef7146e83bf8c3bd794e730816a586df07b7678ace",
          "transactionIndex": "0x1",
          "logIndex": "0x1b",
          "removed": false
        },
        {
          "address": "0xf0212bc88af989feeaf494fb23c8c065583da2e3",
          "topics": [
            "0xddf252ad1be2c89b69c2b068fc378daa952ba7f163c4a11628f55a4df523b3ef",
            "0x0000000000000000000000000000000000000000000000000000000000000000",
            "0x0000000000000000000000005b1e22ec6d83fa3008be3bc39c69e3577e3411d4",
            "0x000000000000000000000000000000000000000000000000000000000000001c"
          ],
          "data": "0x",
          "blockHash": "0xdb4871d073e426b6e31c140a1d20ca196108032c17093d64453c8bea3e7b87c8",
          "blockNumber": "0xfc77a0c",
          "blockTimestamp": "0x69f5bc92",
          "transactionHash": "0x3982a0ca9b754fadf251d8ef7146e83bf8c3bd794e730816a586df07b7678ace",
          "transactionIndex": "0x1",
          "logIndex": "0x1c",
          "removed": false
        },
        {
          "address": "0xf0212bc88af989feeaf494fb23c8c065583da2e3",
          "topics": [
            "0xddf252ad1be2c89b69c2b068fc378daa952ba7f163c4a11628f55a4df523b3ef",
            "0x0000000000000000000000000000000000000000000000000000000000000000",
            "0x0000000000000000000000005b1e22ec6d83fa3008be3bc39c69e3577e3411d4",
            "0x000000000000000000000000000000000000000000000000000000000000001d"
          ],
          "data": "0x",
          "blockHash": "0xdb4871d073e426b6e31c140a1d20ca196108032c17093d64453c8bea3e7b87c8",
          "blockNumber": "0xfc77a0c",
          "blockTimestamp": "0x69f5bc92",
          "transactionHash": "0x3982a0ca9b754fadf251d8ef7146e83bf8c3bd794e730816a586df07b7678ace",
          "transactionIndex": "0x1",
          "logIndex": "0x1d",
          "removed": false
        },
        {
          "address": "0xf0212bc88af989feeaf494fb23c8c065583da2e3",
          "topics": [
            "0xddf252ad1be2c89b69c2b068fc378daa952ba7f163c4a11628f55a4df523b3ef",
            "0x0000000000000000000000000000000000000000000000000000000000000000",
            "0x0000000000000000000000005b1e22ec6d83fa3008be3bc39c69e3577e3411d4",
            "0x000000000000000000000000000000000000000000000000000000000000001e"
          ],
          "data": "0x",
          "blockHash": "0xdb4871d073e426b6e31c140a1d20ca196108032c17093d64453c8bea3e7b87c8",
          "blockNumber": "0xfc77a0c",
          "blockTimestamp": "0x69f5bc92",
          "transactionHash": "0x3982a0ca9b754fadf251d8ef7146e83bf8c3bd794e730816a586df07b7678ace",
          "transactionIndex": "0x1",
          "logIndex": "0x1e",
          "removed": false
        },
        {
          "address": "0xf0212bc88af989feeaf494fb23c8c065583da2e3",
          "topics": [
            "0xddf252ad1be2c89b69c2b068fc378daa952ba7f163c4a11628f55a4df523b3ef",
            "0x0000000000000000000000000000000000000000000000000000000000000000",
            "0x0000000000000000000000005b1e22ec6d83fa3008be3bc39c69e3577e3411d4",
            "0x000000000000000000000000000000000000000000000000000000000000001f"
          ],
          "data": "0x",
          "blockHash": "0xdb4871d073e426b6e31c140a1d20ca196108032c17093d64453c8bea3e7b87c8",
          "blockNumber": "0xfc77a0c",
          "blockTimestamp": "0x69f5bc92",
          "transactionHash": "0x3982a0ca9b754fadf251d8ef7146e83bf8c3bd794e730816a586df07b7678ace",
          "transactionIndex": "0x1",
          "logIndex": "0x1f",
          "removed": false
        },
        {
          "address": "0xf0212bc88af989feeaf494fb23c8c065583da2e3",
          "topics": [
            "0xddf252ad1be2c89b69c2b068fc378daa952ba7f163c4a11628f55a4df523b3ef",
            "0x0000000000000000000000000000000000000000000000000000000000000000",
            "0x0000000000000000000000005b1e22ec6d83fa3008be3bc39c69e3577e3411d4",
            "0x0000000000000000000000000000000000000000000000000000000000000020"
          ],
          "data": "0x",
          "blockHash": "0xdb4871d073e426b6e31c140a1d20ca196108032c17093d64453c8bea3e7b87c8",
          "blockNumber": "0xfc77a0c",
          "blockTimestamp": "0x69f5bc92",
          "transactionHash": "0x3982a0ca9b754fadf251d8ef7146e83bf8c3bd794e730816a586df07b7678ace",
          "transactionIndex": "0x1",
          "logIndex": "0x20",
          "removed": false
        },
        {
          "address": "0xf0212bc88af989feeaf494fb23c8c065583da2e3",
          "topics": [
            "0xddf252ad1be2c89b69c2b068fc378daa952ba7f163c4a11628f55a4df523b3ef",
            "0x0000000000000000000000000000000000000000000000000000000000000000",
            "0x0000000000000000000000005b1e22ec6d83fa3008be3bc39c69e3577e3411d4",
            "0x0000000000000000000000000000000000000000000000000000000000000021"
          ],
          "data": "0x",
          "blockHash": "0xdb4871d073e426b6e31c140a1d20ca196108032c17093d64453c8bea3e7b87c8",
          "blockNumber": "0xfc77a0c",
          "blockTimestamp": "0x69f5bc92",
          "transactionHash": "0x3982a0ca9b754fadf251d8ef7146e83bf8c3bd794e730816a586df07b7678ace",
          "transactionIndex": "0x1",
          "logIndex": "0x21",
          "removed": false
        },
        {
          "address": "0xf0212bc88af989feeaf494fb23c8c065583da2e3",
          "topics": [
            "0xddf252ad1be2c89b69c2b068fc378daa952ba7f163c4a11628f55a4df523b3ef",
            "0x0000000000000000000000000000000000000000000000000000000000000000",
            "0x0000000000000000000000005b1e22ec6d83fa3008be3bc39c69e3577e3411d4",
            "0x0000000000000000000000000000000000000000000000000000000000000022"
          ],
          "data": "0x",
          "blockHash": "0xdb4871d073e426b6e31c140a1d20ca196108032c17093d64453c8bea3e7b87c8",
          "blockNumber": "0xfc77a0c",
          "blockTimestamp": "0x69f5bc92",
          "transactionHash": "0x3982a0ca9b754fadf251d8ef7146e83bf8c3bd794e730816a586df07b7678ace",
          "transactionIndex": "0x1",
          "logIndex": "0x22",
          "removed": false
        },
        {
          "address": "0xf0212bc88af989feeaf494fb23c8c065583da2e3",
          "topics": [
            "0xddf252ad1be2c89b69c2b068fc378daa952ba7f163c4a11628f55a4df523b3ef",
            "0x0000000000000000000000000000000000000000000000000000000000000000",
            "0x0000000000000000000000005b1e22ec6d83fa3008be3bc39c69e3577e3411d4",
            "0x0000000000000000000000000000000000000000000000000000000000000023"
          ],
          "data": "0x",
          "blockHash": "0xdb4871d073e426b6e31c140a1d20ca196108032c17093d64453c8bea3e7b87c8",
          "blockNumber": "0xfc77a0c",
          "blockTimestamp": "0x69f5bc92",
          "transactionHash": "0x3982a0ca9b754fadf251d8ef7146e83bf8c3bd794e730816a586df07b7678ace",
          "transactionIndex": "0x1",
          "logIndex": "0x23",
          "removed": false
        },
        {
          "address": "0xf0212bc88af989feeaf494fb23c8c065583da2e3",
          "topics": [
            "0xddf252ad1be2c89b69c2b068fc378daa952ba7f163c4a11628f55a4df523b3ef",
            "0x0000000000000000000000000000000000000000000000000000000000000000",
            "0x0000000000000000000000005b1e22ec6d83fa3008be3bc39c69e3577e3411d4",
            "0x0000000000000000000000000000000000000000000000000000000000000024"
          ],
          "data": "0x",
          "blockHash": "0xdb4871d073e426b6e31c140a1d20ca196108032c17093d64453c8bea3e7b87c8",
          "blockNumber": "0xfc77a0c",
          "blockTimestamp": "0x69f5bc92",
          "transactionHash": "0x3982a0ca9b754fadf251d8ef7146e83bf8c3bd794e730816a586df07b7678ace",
          "transactionIndex": "0x1",
          "logIndex": "0x24",
          "removed": false
        },
        {
          "address": "0xf0212bc88af989feeaf494fb23c8c065583da2e3",
          "topics": [
            "0xddf252ad1be2c89b69c2b068fc378daa952ba7f163c4a11628f55a4df523b3ef",
            "0x0000000000000000000000000000000000000000000000000000000000000000",
            "0x0000000000000000000000005b1e22ec6d83fa3008be3bc39c69e3577e3411d4",
            "0x0000000000000000000000000000000000000000000000000000000000000025"
          ],
          "data": "0x",
          "blockHash": "0xdb4871d073e426b6e31c140a1d20ca196108032c17093d64453c8bea3e7b87c8",
          "blockNumber": "0xfc77a0c",
          "blockTimestamp": "0x69f5bc92",
          "transactionHash": "0x3982a0ca9b754fadf251d8ef7146e83bf8c3bd794e730816a586df07b7678ace",
          "transactionIndex": "0x1",
          "logIndex": "0x25",
          "removed": false
        },
        {
          "address": "0xf0212bc88af989feeaf494fb23c8c065583da2e3",
          "topics": [
            "0xddf252ad1be2c89b69c2b068fc378daa952ba7f163c4a11628f55a4df523b3ef",
            "0x0000000000000000000000000000000000000000000000000000000000000000",
            "0x0000000000000000000000005b1e22ec6d83fa3008be3bc39c69e3577e3411d4",
            "0x0000000000000000000000000000000000000000000000000000000000000026"
          ],
          "data": "0x",
          "blockHash": "0xdb4871d073e426b6e31c140a1d20ca196108032c17093d64453c8bea3e7b87c8",
          "blockNumber": "0xfc77a0c",
          "blockTimestamp": "0x69f5bc92",
          "transactionHash": "0x3982a0ca9b754fadf251d8ef7146e83bf8c3bd794e730816a586df07b7678ace",
          "transactionIndex": "0x1",
          "logIndex": "0x26",
          "removed": false
        },
        {
          "address": "0xf0212bc88af989feeaf494fb23c8c065583da2e3",
          "topics": [
            "0xddf252ad1be2c89b69c2b068fc378daa952ba7f163c4a11628f55a4df523b3ef",
            "0x0000000000000000000000000000000000000000000000000000000000000000",
            "0x0000000000000000000000005b1e22ec6d83fa3008be3bc39c69e3577e3411d4",
            "0x0000000000000000000000000000000000000000000000000000000000000027"
          ],
          "data": "0x",
          "blockHash": "0xdb4871d073e426b6e31c140a1d20ca196108032c17093d64453c8bea3e7b87c8",
          "blockNumber": "0xfc77a0c",
          "blockTimestamp": "0x69f5bc92",
          "transactionHash": "0x3982a0ca9b754fadf251d8ef7146e83bf8c3bd794e730816a586df07b7678ace",
          "transactionIndex": "0x1",
          "logIndex": "0x27",
          "removed": false
        },
        {
          "address": "0xf0212bc88af989feeaf494fb23c8c065583da2e3",
          "topics": [
            "0xddf252ad1be2c89b69c2b068fc378daa952ba7f163c4a11628f55a4df523b3ef",
            "0x0000000000000000000000000000000000000000000000000000000000000000",
            "0x0000000000000000000000005b1e22ec6d83fa3008be3bc39c69e3577e3411d4",
            "0x0000000000000000000000000000000000000000000000000000000000000028"
          ],
          "data": "0x",
          "blockHash": "0xdb4871d073e426b6e31c140a1d20ca196108032c17093d64453c8bea3e7b87c8",
          "blockNumber": "0xfc77a0c",
          "blockTimestamp": "0x69f5bc92",
          "transactionHash": "0x3982a0ca9b754fadf251d8ef7146e83bf8c3bd794e730816a586df07b7678ace",
          "transactionIndex": "0x1",
          "logIndex": "0x28",
          "removed": false
        },
        {
          "address": "0xf0212bc88af989feeaf494fb23c8c065583da2e3",
          "topics": [
            "0xddf252ad1be2c89b69c2b068fc378daa952ba7f163c4a11628f55a4df523b3ef",
            "0x0000000000000000000000000000000000000000000000000000000000000000",
            "0x0000000000000000000000005b1e22ec6d83fa3008be3bc39c69e3577e3411d4",
            "0x0000000000000000000000000000000000000000000000000000000000000029"
          ],
          "data": "0x",
          "blockHash": "0xdb4871d073e426b6e31c140a1d20ca196108032c17093d64453c8bea3e7b87c8",
          "blockNumber": "0xfc77a0c",
          "blockTimestamp": "0x69f5bc92",
          "transactionHash": "0x3982a0ca9b754fadf251d8ef7146e83bf8c3bd794e730816a586df07b7678ace",
          "transactionIndex": "0x1",
          "logIndex": "0x29",
          "removed": false
        },
        {
          "address": "0xf0212bc88af989feeaf494fb23c8c065583da2e3",
          "topics": [
            "0xddf252ad1be2c89b69c2b068fc378daa952ba7f163c4a11628f55a4df523b3ef",
            "0x0000000000000000000000000000000000000000000000000000000000000000",
            "0x0000000000000000000000005b1e22ec6d83fa3008be3bc39c69e3577e3411d4",
            "0x000000000000000000000000000000000000000000000000000000000000002a"
          ],
          "data": "0x",
          "blockHash": "0xdb4871d073e426b6e31c140a1d20ca196108032c17093d64453c8bea3e7b87c8",
          "blockNumber": "0xfc77a0c",
          "blockTimestamp": "0x69f5bc92",
          "transactionHash": "0x3982a0ca9b754fadf251d8ef7146e83bf8c3bd794e730816a586df07b7678ace",
          "transactionIndex": "0x1",
          "logIndex": "0x2a",
          "removed": false
        },
        {
          "address": "0xf0212bc88af989feeaf494fb23c8c065583da2e3",
          "topics": [
            "0xddf252ad1be2c89b69c2b068fc378daa952ba7f163c4a11628f55a4df523b3ef",
            "0x0000000000000000000000000000000000000000000000000000000000000000",
            "0x0000000000000000000000005b1e22ec6d83fa3008be3bc39c69e3577e3411d4",
            "0x000000000000000000000000000000000000000000000000000000000000002b"
          ],
          "data": "0x",
          "blockHash": "0xdb4871d073e426b6e31c140a1d20ca196108032c17093d64453c8bea3e7b87c8",
          "blockNumber": "0xfc77a0c",
          "blockTimestamp": "0x69f5bc92",
          "transactionHash": "0x3982a0ca9b754fadf251d8ef7146e83bf8c3bd794e730816a586df07b7678ace",
          "transactionIndex": "0x1",
          "logIndex": "0x2b",
          "removed": false
        },
        {
          "address": "0xf0212bc88af989feeaf494fb23c8c065583da2e3",
          "topics": [
            "0xddf252ad1be2c89b69c2b068fc378daa952ba7f163c4a11628f55a4df523b3ef",
            "0x0000000000000000000000000000000000000000000000000000000000000000",
            "0x0000000000000000000000005b1e22ec6d83fa3008be3bc39c69e3577e3411d4",
            "0x000000000000000000000000000000000000000000000000000000000000002c"
          ],
          "data": "0x",
          "blockHash": "0xdb4871d073e426b6e31c140a1d20ca196108032c17093d64453c8bea3e7b87c8",
          "blockNumber": "0xfc77a0c",
          "blockTimestamp": "0x69f5bc92",
          "transactionHash": "0x3982a0ca9b754fadf251d8ef7146e83bf8c3bd794e730816a586df07b7678ace",
          "transactionIndex": "0x1",
          "logIndex": "0x2c",
          "removed": false
        },
        {
          "address": "0xf0212bc88af989feeaf494fb23c8c065583da2e3",
          "topics": [
            "0xddf252ad1be2c89b69c2b068fc378daa952ba7f163c4a11628f55a4df523b3ef",
            "0x0000000000000000000000000000000000000000000000000000000000000000",
            "0x0000000000000000000000005b1e22ec6d83fa3008be3bc39c69e3577e3411d4",
            "0x000000000000000000000000000000000000000000000000000000000000002d"
          ],
          "data": "0x",
          "blockHash": "0xdb4871d073e426b6e31c140a1d20ca196108032c17093d64453c8bea3e7b87c8",
          "blockNumber": "0xfc77a0c",
          "blockTimestamp": "0x69f5bc92",
          "transactionHash": "0x3982a0ca9b754fadf251d8ef7146e83bf8c3bd794e730816a586df07b7678ace",
          "transactionIndex": "0x1",
          "logIndex": "0x2d",
          "removed": false
        },
        {
          "address": "0xf0212bc88af989feeaf494fb23c8c065583da2e3",
          "topics": [
            "0xddf252ad1be2c89b69c2b068fc378daa952ba7f163c4a11628f55a4df523b3ef",
            "0x0000000000000000000000000000000000000000000000000000000000000000",
            "0x0000000000000000000000005b1e22ec6d83fa3008be3bc39c69e3577e3411d4",
            "0x000000000000000000000000000000000000000000000000000000000000002e"
          ],
          "data": "0x",
          "blockHash": "0xdb4871d073e426b6e31c140a1d20ca196108032c17093d64453c8bea3e7b87c8",
          "blockNumber": "0xfc77a0c",
          "blockTimestamp": "0x69f5bc92",
          "transactionHash": "0x3982a0ca9b754fadf251d8ef7146e83bf8c3bd794e730816a586df07b7678ace",
          "transactionIndex": "0x1",
          "logIndex": "0x2e",
          "removed": false
        },
        {
          "address": "0xf0212bc88af989feeaf494fb23c8c065583da2e3",
          "topics": [
            "0xddf252ad1be2c89b69c2b068fc378daa952ba7f163c4a11628f55a4df523b3ef",
            "0x0000000000000000000000000000000000000000000000000000000000000000",
            "0x0000000000000000000000005b1e22ec6d83fa3008be3bc39c69e3577e3411d4",
            "0x000000000000000000000000000000000000000000000000000000000000002f"
          ],
          "data": "0x",
          "blockHash": "0xdb4871d073e426b6e31c140a1d20ca196108032c17093d64453c8bea3e7b87c8",
          "blockNumber": "0xfc77a0c",
          "blockTimestamp": "0x69f5bc92",
          "transactionHash": "0x3982a0ca9b754fadf251d8ef7146e83bf8c3bd794e730816a586df07b7678ace",
          "transactionIndex": "0x1",
          "logIndex": "0x2f",
          "removed": false
        },
        {
          "address": "0xf0212bc88af989feeaf494fb23c8c065583da2e3",
          "topics": [
            "0xddf252ad1be2c89b69c2b068fc378daa952ba7f163c4a11628f55a4df523b3ef",
            "0x0000000000000000000000000000000000000000000000000000000000000000",
            "0x0000000000000000000000005b1e22ec6d83fa3008be3bc39c69e3577e3411d4",
            "0x0000000000000000000000000000000000000000000000000000000000000030"
          ],
          "data": "0x",
          "blockHash": "0xdb4871d073e426b6e31c140a1d20ca196108032c17093d64453c8bea3e7b87c8",
          "blockNumber": "0xfc77a0c",
          "blockTimestamp": "0x69f5bc92",
          "transactionHash": "0x3982a0ca9b754fadf251d8ef7146e83bf8c3bd794e730816a586df07b7678ace",
          "transactionIndex": "0x1",
          "logIndex": "0x30",
          "removed": false
        },
        {
          "address": "0xf0212bc88af989feeaf494fb23c8c065583da2e3",
          "topics": [
            "0xddf252ad1be2c89b69c2b068fc378daa952ba7f163c4a11628f55a4df523b3ef",
            "0x0000000000000000000000000000000000000000000000000000000000000000",
            "0x0000000000000000000000005b1e22ec6d83fa3008be3bc39c69e3577e3411d4",
            "0x0000000000000000000000000000000000000000000000000000000000000031"
          ],
          "data": "0x",
          "blockHash": "0xdb4871d073e426b6e31c140a1d20ca196108032c17093d64453c8bea3e7b87c8",
          "blockNumber": "0xfc77a0c",
          "blockTimestamp": "0x69f5bc92",
          "transactionHash": "0x3982a0ca9b754fadf251d8ef7146e83bf8c3bd794e730816a586df07b7678ace",
          "transactionIndex": "0x1",
          "logIndex": "0x31",
          "removed": false
        },
        {
          "address": "0xf0212bc88af989feeaf494fb23c8c065583da2e3",
          "topics": [
            "0xddf252ad1be2c89b69c2b068fc378daa952ba7f163c4a11628f55a4df523b3ef",
            "0x0000000000000000000000000000000000000000000000000000000000000000",
            "0x0000000000000000000000005b1e22ec6d83fa3008be3bc39c69e3577e3411d4",
            "0x0000000000000000000000000000000000000000000000000000000000000032"
          ],
          "data": "0x",
          "blockHash": "0xdb4871d073e426b6e31c140a1d20ca196108032c17093d64453c8bea3e7b87c8",
          "blockNumber": "0xfc77a0c",
          "blockTimestamp": "0x69f5bc92",
          "transactionHash": "0x3982a0ca9b754fadf251d8ef7146e83bf8c3bd794e730816a586df07b7678ace",
          "transactionIndex": "0x1",
          "logIndex": "0x32",
          "removed": false
        },
        {
          "address": "0xf0212bc88af989feeaf494fb23c8c065583da2e3",
          "topics": [
            "0xddf252ad1be2c89b69c2b068fc378daa952ba7f163c4a11628f55a4df523b3ef",
            "0x0000000000000000000000000000000000000000000000000000000000000000",
            "0x0000000000000000000000005b1e22ec6d83fa3008be3bc39c69e3577e3411d4",
            "0x0000000000000000000000000000000000000000000000000000000000000033"
          ],
          "data": "0x",
          "blockHash": "0xdb4871d073e426b6e31c140a1d20ca196108032c17093d64453c8bea3e7b87c8",
          "blockNumber": "0xfc77a0c",
          "blockTimestamp": "0x69f5bc92",
          "transactionHash": "0x3982a0ca9b754fadf251d8ef7146e83bf8c3bd794e730816a586df07b7678ace",
          "transactionIndex": "0x1",
          "logIndex": "0x33",
          "removed": false
        },
        {
          "address": "0xf0212bc88af989feeaf494fb23c8c065583da2e3",
          "topics": [
            "0xddf252ad1be2c89b69c2b068fc378daa952ba7f163c4a11628f55a4df523b3ef",
            "0x0000000000000000000000000000000000000000000000000000000000000000",
            "0x0000000000000000000000005b1e22ec6d83fa3008be3bc39c69e3577e3411d4",
            "0x0000000000000000000000000000000000000000000000000000000000000034"
          ],
          "data": "0x",
          "blockHash": "0xdb4871d073e426b6e31c140a1d20ca196108032c17093d64453c8bea3e7b87c8",
          "blockNumber": "0xfc77a0c",
          "blockTimestamp": "0x69f5bc92",
          "transactionHash": "0x3982a0ca9b754fadf251d8ef7146e83bf8c3bd794e730816a586df07b7678ace",
          "transactionIndex": "0x1",
          "logIndex": "0x34",
          "removed": false
        },
        {
          "address": "0xf0212bc88af989feeaf494fb23c8c065583da2e3",
          "topics": [
            "0xddf252ad1be2c89b69c2b068fc378daa952ba7f163c4a11628f55a4df523b3ef",
            "0x0000000000000000000000000000000000000000000000000000000000000000",
            "0x0000000000000000000000005b1e22ec6d83fa3008be3bc39c69e3577e3411d4",
            "0x0000000000000000000000000000000000000000000000000000000000000035"
          ],
          "data": "0x",
          "blockHash": "0xdb4871d073e426b6e31c140a1d20ca196108032c17093d64453c8bea3e7b87c8",
          "blockNumber": "0xfc77a0c",
          "blockTimestamp": "0x69f5bc92",
          "transactionHash": "0x3982a0ca9b754fadf251d8ef7146e83bf8c3bd794e730816a586df07b7678ace",
          "transactionIndex": "0x1",
          "logIndex": "0x35",
          "removed": false
        },
        {
          "address": "0xf0212bc88af989feeaf494fb23c8c065583da2e3",
          "topics": [
            "0xddf252ad1be2c89b69c2b068fc378daa952ba7f163c4a11628f55a4df523b3ef",
            "0x0000000000000000000000000000000000000000000000000000000000000000",
            "0x0000000000000000000000005b1e22ec6d83fa3008be3bc39c69e3577e3411d4",
            "0x0000000000000000000000000000000000000000000000000000000000000036"
          ],
          "data": "0x",
          "blockHash": "0xdb4871d073e426b6e31c140a1d20ca196108032c17093d64453c8bea3e7b87c8",
          "blockNumber": "0xfc77a0c",
          "blockTimestamp": "0x69f5bc92",
          "transactionHash": "0x3982a0ca9b754fadf251d8ef7146e83bf8c3bd794e730816a586df07b7678ace",
          "transactionIndex": "0x1",
          "logIndex": "0x36",
          "removed": false
        },
        {
          "address": "0xf0212bc88af989feeaf494fb23c8c065583da2e3",
          "topics": [
            "0xddf252ad1be2c89b69c2b068fc378daa952ba7f163c4a11628f55a4df523b3ef",
            "0x0000000000000000000000000000000000000000000000000000000000000000",
            "0x0000000000000000000000005b1e22ec6d83fa3008be3bc39c69e3577e3411d4",
            "0x0000000000000000000000000000000000000000000000000000000000000037"
          ],
          "data": "0x",
          "blockHash": "0xdb4871d073e426b6e31c140a1d20ca196108032c17093d64453c8bea3e7b87c8",
          "blockNumber": "0xfc77a0c",
          "blockTimestamp": "0x69f5bc92",
          "transactionHash": "0x3982a0ca9b754fadf251d8ef7146e83bf8c3bd794e730816a586df07b7678ace",
          "transactionIndex": "0x1",
          "logIndex": "0x37",
          "removed": false
        },
        {
          "address": "0xf0212bc88af989feeaf494fb23c8c065583da2e3",
          "topics": [
            "0xddf252ad1be2c89b69c2b068fc378daa952ba7f163c4a11628f55a4df523b3ef",
            "0x0000000000000000000000000000000000000000000000000000000000000000",
            "0x0000000000000000000000005b1e22ec6d83fa3008be3bc39c69e3577e3411d4",
            "0x0000000000000000000000000000000000000000000000000000000000000038"
          ],
          "data": "0x",
          "blockHash": "0xdb4871d073e426b6e31c140a1d20ca196108032c17093d64453c8bea3e7b87c8",
          "blockNumber": "0xfc77a0c",
          "blockTimestamp": "0x69f5bc92",
          "transactionHash": "0x3982a0ca9b754fadf251d8ef7146e83bf8c3bd794e730816a586df07b7678ace",
          "transactionIndex": "0x1",
          "logIndex": "0x38",
          "removed": false
        },
        {
          "address": "0xf0212bc88af989feeaf494fb23c8c065583da2e3",
          "topics": [
            "0xddf252ad1be2c89b69c2b068fc378daa952ba7f163c4a11628f55a4df523b3ef",
            "0x0000000000000000000000000000000000000000000000000000000000000000",
            "0x0000000000000000000000005b1e22ec6d83fa3008be3bc39c69e3577e3411d4",
            "0x0000000000000000000000000000000000000000000000000000000000000039"
          ],
          "data": "0x",
          "blockHash": "0xdb4871d073e426b6e31c140a1d20ca196108032c17093d64453c8bea3e7b87c8",
          "blockNumber": "0xfc77a0c",
          "blockTimestamp": "0x69f5bc92",
          "transactionHash": "0x3982a0ca9b754fadf251d8ef7146e83bf8c3bd794e730816a586df07b7678ace",
          "transactionIndex": "0x1",
          "logIndex": "0x39",
          "removed": false
        },
        {
          "address": "0xf0212bc88af989feeaf494fb23c8c065583da2e3",
          "topics": [
            "0xddf252ad1be2c89b69c2b068fc378daa952ba7f163c4a11628f55a4df523b3ef",
            "0x0000000000000000000000000000000000000000000000000000000000000000",
            "0x0000000000000000000000005b1e22ec6d83fa3008be3bc39c69e3577e3411d4",
            "0x000000000000000000000000000000000000000000000000000000000000003a"
          ],
          "data": "0x",
          "blockHash": "0xdb4871d073e426b6e31c140a1d20ca196108032c17093d64453c8bea3e7b87c8",
          "blockNumber": "0xfc77a0c",
          "blockTimestamp": "0x69f5bc92",
          "transactionHash": "0x3982a0ca9b754fadf251d8ef7146e83bf8c3bd794e730816a586df07b7678ace",
          "transactionIndex": "0x1",
          "logIndex": "0x3a",
          "removed": false
        },
        {
          "address": "0xf0212bc88af989feeaf494fb23c8c065583da2e3",
          "topics": [
            "0xddf252ad1be2c89b69c2b068fc378daa952ba7f163c4a11628f55a4df523b3ef",
            "0x0000000000000000000000000000000000000000000000000000000000000000",
            "0x0000000000000000000000005b1e22ec6d83fa3008be3bc39c69e3577e3411d4",
            "0x000000000000000000000000000000000000000000000000000000000000003b"
          ],
          "data": "0x",
          "blockHash": "0xdb4871d073e426b6e31c140a1d20ca196108032c17093d64453c8bea3e7b87c8",
          "blockNumber": "0xfc77a0c",
          "blockTimestamp": "0x69f5bc92",
          "transactionHash": "0x3982a0ca9b754fadf251d8ef7146e83bf8c3bd794e730816a586df07b7678ace",
          "transactionIndex": "0x1",
          "logIndex": "0x3b",
          "removed": false
        },
        {
          "address": "0xf0212bc88af989feeaf494fb23c8c065583da2e3",
          "topics": [
            "0xddf252ad1be2c89b69c2b068fc378daa952ba7f163c4a11628f55a4df523b3ef",
            "0x0000000000000000000000000000000000000000000000000000000000000000",
            "0x0000000000000000000000005b1e22ec6d83fa3008be3bc39c69e3577e3411d4",
            "0x000000000000000000000000000000000000000000000000000000000000003c"
          ],
          "data": "0x",
          "blockHash": "0xdb4871d073e426b6e31c140a1d20ca196108032c17093d64453c8bea3e7b87c8",
          "blockNumber": "0xfc77a0c",
          "blockTimestamp": "0x69f5bc92",
          "transactionHash": "0x3982a0ca9b754fadf251d8ef7146e83bf8c3bd794e730816a586df07b7678ace",
          "transactionIndex": "0x1",
          "logIndex": "0x3c",
          "removed": false
        },
        {
          "address": "0xf0212bc88af989feeaf494fb23c8c065583da2e3",
          "topics": [
            "0xddf252ad1be2c89b69c2b068fc378daa952ba7f163c4a11628f55a4df523b3ef",
            "0x0000000000000000000000000000000000000000000000000000000000000000",
            "0x0000000000000000000000005b1e22ec6d83fa3008be3bc39c69e3577e3411d4",
            "0x000000000000000000000000000000000000000000000000000000000000003d"
          ],
          "data": "0x",
          "blockHash": "0xdb4871d073e426b6e31c140a1d20ca196108032c17093d64453c8bea3e7b87c8",
          "blockNumber": "0xfc77a0c",
          "blockTimestamp": "0x69f5bc92",
          "transactionHash": "0x3982a0ca9b754fadf251d8ef7146e83bf8c3bd794e730816a586df07b7678ace",
          "transactionIndex": "0x1",
          "logIndex": "0x3d",
          "removed": false
        },
        {
          "address": "0xf0212bc88af989feeaf494fb23c8c065583da2e3",
          "topics": [
            "0xddf252ad1be2c89b69c2b068fc378daa952ba7f163c4a11628f55a4df523b3ef",
            "0x0000000000000000000000000000000000000000000000000000000000000000",
            "0x0000000000000000000000005b1e22ec6d83fa3008be3bc39c69e3577e3411d4",
            "0x000000000000000000000000000000000000000000000000000000000000003e"
          ],
          "data": "0x",
          "blockHash": "0xdb4871d073e426b6e31c140a1d20ca196108032c17093d64453c8bea3e7b87c8",
          "blockNumber": "0xfc77a0c",
          "blockTimestamp": "0x69f5bc92",
          "transactionHash": "0x3982a0ca9b754fadf251d8ef7146e83bf8c3bd794e730816a586df07b7678ace",
          "transactionIndex": "0x1",
          "logIndex": "0x3e",
          "removed": false
        },
        {
          "address": "0xf0212bc88af989feeaf494fb23c8c065583da2e3",
          "topics": [
            "0xddf252ad1be2c89b69c2b068fc378daa952ba7f163c4a11628f55a4df523b3ef",
            "0x0000000000000000000000000000000000000000000000000000000000000000",
            "0x0000000000000000000000005b1e22ec6d83fa3008be3bc39c69e3577e3411d4",
            "0x000000000000000000000000000000000000000000000000000000000000003f"
          ],
          "data": "0x",
          "blockHash": "0xdb4871d073e426b6e31c140a1d20ca196108032c17093d64453c8bea3e7b87c8",
          "blockNumber": "0xfc77a0c",
          "blockTimestamp": "0x69f5bc92",
          "transactionHash": "0x3982a0ca9b754fadf251d8ef7146e83bf8c3bd794e730816a586df07b7678ace",
          "transactionIndex": "0x1",
          "logIndex": "0x3f",
          "removed": false
        },
        {
          "address": "0xf0212bc88af989feeaf494fb23c8c065583da2e3",
          "topics": [
            "0xddf252ad1be2c89b69c2b068fc378daa952ba7f163c4a11628f55a4df523b3ef",
            "0x0000000000000000000000000000000000000000000000000000000000000000",
            "0x0000000000000000000000005b1e22ec6d83fa3008be3bc39c69e3577e3411d4",
            "0x0000000000000000000000000000000000000000000000000000000000000040"
          ],
          "data": "0x",
          "blockHash": "0xdb4871d073e426b6e31c140a1d20ca196108032c17093d64453c8bea3e7b87c8",
          "blockNumber": "0xfc77a0c",
          "blockTimestamp": "0x69f5bc92",
          "transactionHash": "0x3982a0ca9b754fadf251d8ef7146e83bf8c3bd794e730816a586df07b7678ace",
          "transactionIndex": "0x1",
          "logIndex": "0x40",
          "removed": false
        },
        {
          "address": "0xf0212bc88af989feeaf494fb23c8c065583da2e3",
          "topics": [
            "0xddf252ad1be2c89b69c2b068fc378daa952ba7f163c4a11628f55a4df523b3ef",
            "0x0000000000000000000000000000000000000000000000000000000000000000",
            "0x0000000000000000000000005b1e22ec6d83fa3008be3bc39c69e3577e3411d4",
            "0x0000000000000000000000000000000000000000000000000000000000000041"
          ],
          "data": "0x",
          "blockHash": "0xdb4871d073e426b6e31c140a1d20ca196108032c17093d64453c8bea3e7b87c8",
          "blockNumber": "0xfc77a0c",
          "blockTimestamp": "0x69f5bc92",
          "transactionHash": "0x3982a0ca9b754fadf251d8ef7146e83bf8c3bd794e730816a586df07b7678ace",
          "transactionIndex": "0x1",
          "logIndex": "0x41",
          "removed": false
        },
        {
          "address": "0xf0212bc88af989feeaf494fb23c8c065583da2e3",
          "topics": [
            "0xddf252ad1be2c89b69c2b068fc378daa952ba7f163c4a11628f55a4df523b3ef",
            "0x0000000000000000000000000000000000000000000000000000000000000000",
            "0x0000000000000000000000005b1e22ec6d83fa3008be3bc39c69e3577e3411d4",
            "0x0000000000000000000000000000000000000000000000000000000000000042"
          ],
          "data": "0x",
          "blockHash": "0xdb4871d073e426b6e31c140a1d20ca196108032c17093d64453c8bea3e7b87c8",
          "blockNumber": "0xfc77a0c",
          "blockTimestamp": "0x69f5bc92",
          "transactionHash": "0x3982a0ca9b754fadf251d8ef7146e83bf8c3bd794e730816a586df07b7678ace",
          "transactionIndex": "0x1",
          "logIndex": "0x42",
          "removed": false
        },
        {
          "address": "0xf0212bc88af989feeaf494fb23c8c065583da2e3",
          "topics": [
            "0xddf252ad1be2c89b69c2b068fc378daa952ba7f163c4a11628f55a4df523b3ef",
            "0x0000000000000000000000000000000000000000000000000000000000000000",
            "0x0000000000000000000000005b1e22ec6d83fa3008be3bc39c69e3577e3411d4",
            "0x0000000000000000000000000000000000000000000000000000000000000043"
          ],
          "data": "0x",
          "blockHash": "0xdb4871d073e426b6e31c140a1d20ca196108032c17093d64453c8bea3e7b87c8",
          "blockNumber": "0xfc77a0c",
          "blockTimestamp": "0x69f5bc92",
          "transactionHash": "0x3982a0ca9b754fadf251d8ef7146e83bf8c3bd794e730816a586df07b7678ace",
          "transactionIndex": "0x1",
          "logIndex": "0x43",
          "removed": false
        },
        {
          "address": "0xf0212bc88af989feeaf494fb23c8c065583da2e3",
          "topics": [
            "0xddf252ad1be2c89b69c2b068fc378daa952ba7f163c4a11628f55a4df523b3ef",
            "0x0000000000000000000000000000000000000000000000000000000000000000",
            "0x0000000000000000000000005b1e22ec6d83fa3008be3bc39c69e3577e3411d4",
            "0x0000000000000000000000000000000000000000000000000000000000000044"
          ],
          "data": "0x",
          "blockHash": "0xdb4871d073e426b6e31c140a1d20ca196108032c17093d64453c8bea3e7b87c8",
          "blockNumber": "0xfc77a0c",
          "blockTimestamp": "0x69f5bc92",
          "transactionHash": "0x3982a0ca9b754fadf251d8ef7146e83bf8c3bd794e730816a586df07b7678ace",
          "transactionIndex": "0x1",
          "logIndex": "0x44",
          "removed": false
        },
        {
          "address": "0xf0212bc88af989feeaf494fb23c8c065583da2e3",
          "topics": [
            "0xddf252ad1be2c89b69c2b068fc378daa952ba7f163c4a11628f55a4df523b3ef",
            "0x0000000000000000000000000000000000000000000000000000000000000000",
            "0x0000000000000000000000005b1e22ec6d83fa3008be3bc39c69e3577e3411d4",
            "0x0000000000000000000000000000000000000000000000000000000000000045"
          ],
          "data": "0x",
          "blockHash": "0xdb4871d073e426b6e31c140a1d20ca196108032c17093d64453c8bea3e7b87c8",
          "blockNumber": "0xfc77a0c",
          "blockTimestamp": "0x69f5bc92",
          "transactionHash": "0x3982a0ca9b754fadf251d8ef7146e83bf8c3bd794e730816a586df07b7678ace",
          "transactionIndex": "0x1",
          "logIndex": "0x45",
          "removed": false
        },
        {
          "address": "0xf0212bc88af989feeaf494fb23c8c065583da2e3",
          "topics": [
            "0xddf252ad1be2c89b69c2b068fc378daa952ba7f163c4a11628f55a4df523b3ef",
            "0x0000000000000000000000000000000000000000000000000000000000000000",
            "0x0000000000000000000000005b1e22ec6d83fa3008be3bc39c69e3577e3411d4",
            "0x0000000000000000000000000000000000000000000000000000000000000046"
          ],
          "data": "0x",
          "blockHash": "0xdb4871d073e426b6e31c140a1d20ca196108032c17093d64453c8bea3e7b87c8",
          "blockNumber": "0xfc77a0c",
          "blockTimestamp": "0x69f5bc92",
          "transactionHash": "0x3982a0ca9b754fadf251d8ef7146e83bf8c3bd794e730816a586df07b7678ace",
          "transactionIndex": "0x1",
          "logIndex": "0x46",
          "removed": false
        },
        {
          "address": "0xf0212bc88af989feeaf494fb23c8c065583da2e3",
          "topics": [
            "0xddf252ad1be2c89b69c2b068fc378daa952ba7f163c4a11628f55a4df523b3ef",
            "0x0000000000000000000000000000000000000000000000000000000000000000",
            "0x0000000000000000000000005b1e22ec6d83fa3008be3bc39c69e3577e3411d4",
            "0x0000000000000000000000000000000000000000000000000000000000000047"
          ],
          "data": "0x",
          "blockHash": "0xdb4871d073e426b6e31c140a1d20ca196108032c17093d64453c8bea3e7b87c8",
          "blockNumber": "0xfc77a0c",
          "blockTimestamp": "0x69f5bc92",
          "transactionHash": "0x3982a0ca9b754fadf251d8ef7146e83bf8c3bd794e730816a586df07b7678ace",
          "transactionIndex": "0x1",
          "logIndex": "0x47",
          "removed": false
        },
        {
          "address": "0xf0212bc88af989feeaf494fb23c8c065583da2e3",
          "topics": [
            "0xddf252ad1be2c89b69c2b068fc378daa952ba7f163c4a11628f55a4df523b3ef",
            "0x0000000000000000000000000000000000000000000000000000000000000000",
            "0x0000000000000000000000005b1e22ec6d83fa3008be3bc39c69e3577e3411d4",
            "0x0000000000000000000000000000000000000000000000000000000000000048"
          ],
          "data": "0x",
          "blockHash": "0xdb4871d073e426b6e31c140a1d20ca196108032c17093d64453c8bea3e7b87c8",
          "blockNumber": "0xfc77a0c",
          "blockTimestamp": "0x69f5bc92",
          "transactionHash": "0x3982a0ca9b754fadf251d8ef7146e83bf8c3bd794e730816a586df07b7678ace",
          "transactionIndex": "0x1",
          "logIndex": "0x48",
          "removed": false
        },
        {
          "address": "0xf0212bc88af989feeaf494fb23c8c065583da2e3",
          "topics": [
            "0xddf252ad1be2c89b69c2b068fc378daa952ba7f163c4a11628f55a4df523b3ef",
            "0x0000000000000000000000000000000000000000000000000000000000000000",
            "0x0000000000000000000000005b1e22ec6d83fa3008be3bc39c69e3577e3411d4",
            "0x0000000000000000000000000000000000000000000000000000000000000049"
          ],
          "data": "0x",
          "blockHash": "0xdb4871d073e426b6e31c140a1d20ca196108032c17093d64453c8bea3e7b87c8",
          "blockNumber": "0xfc77a0c",
          "blockTimestamp": "0x69f5bc92",
          "transactionHash": "0x3982a0ca9b754fadf251d8ef7146e83bf8c3bd794e730816a586df07b7678ace",
          "transactionIndex": "0x1",
          "logIndex": "0x49",
          "removed": false
        },
        {
          "address": "0xf0212bc88af989feeaf494fb23c8c065583da2e3",
          "topics": [
            "0xddf252ad1be2c89b69c2b068fc378daa952ba7f163c4a11628f55a4df523b3ef",
            "0x0000000000000000000000000000000000000000000000000000000000000000",
            "0x0000000000000000000000005b1e22ec6d83fa3008be3bc39c69e3577e3411d4",
            "0x000000000000000000000000000000000000000000000000000000000000004a"
          ],
          "data": "0x",
          "blockHash": "0xdb4871d073e426b6e31c140a1d20ca196108032c17093d64453c8bea3e7b87c8",
          "blockNumber": "0xfc77a0c",
          "blockTimestamp": "0x69f5bc92",
          "transactionHash": "0x3982a0ca9b754fadf251d8ef7146e83bf8c3bd794e730816a586df07b7678ace",
          "transactionIndex": "0x1",
          "logIndex": "0x4a",
          "removed": false
        },
        {
          "address": "0xf0212bc88af989feeaf494fb23c8c065583da2e3",
          "topics": [
            "0xddf252ad1be2c89b69c2b068fc378daa952ba7f163c4a11628f55a4df523b3ef",
            "0x0000000000000000000000000000000000000000000000000000000000000000",
            "0x0000000000000000000000005b1e22ec6d83fa3008be3bc39c69e3577e3411d4",
            "0x000000000000000000000000000000000000000000000000000000000000004b"
          ],
          "data": "0x",
          "blockHash": "0xdb4871d073e426b6e31c140a1d20ca196108032c17093d64453c8bea3e7b87c8",
          "blockNumber": "0xfc77a0c",
          "blockTimestamp": "0x69f5bc92",
          "transactionHash": "0x3982a0ca9b754fadf251d8ef7146e83bf8c3bd794e730816a586df07b7678ace",
          "transactionIndex": "0x1",
          "logIndex": "0x4b",
          "removed": false
        },
        {
          "address": "0xf0212bc88af989feeaf494fb23c8c065583da2e3",
          "topics": [
            "0xddf252ad1be2c89b69c2b068fc378daa952ba7f163c4a11628f55a4df523b3ef",
            "0x0000000000000000000000000000000000000000000000000000000000000000",
            "0x0000000000000000000000005b1e22ec6d83fa3008be3bc39c69e3577e3411d4",
            "0x000000000000000000000000000000000000000000000000000000000000004c"
          ],
          "data": "0x",
          "blockHash": "0xdb4871d073e426b6e31c140a1d20ca196108032c17093d64453c8bea3e7b87c8",
          "blockNumber": "0xfc77a0c",
          "blockTimestamp": "0x69f5bc92",
          "transactionHash": "0x3982a0ca9b754fadf251d8ef7146e83bf8c3bd794e730816a586df07b7678ace",
          "transactionIndex": "0x1",
          "logIndex": "0x4c",
          "removed": false
        },
        {
          "address": "0xf0212bc88af989feeaf494fb23c8c065583da2e3",
          "topics": [
            "0xddf252ad1be2c89b69c2b068fc378daa952ba7f163c4a11628f55a4df523b3ef",
            "0x0000000000000000000000000000000000000000000000000000000000000000",
            "0x0000000000000000000000005b1e22ec6d83fa3008be3bc39c69e3577e3411d4",
            "0x000000000000000000000000000000000000000000000000000000000000004d"
          ],
          "data": "0x",
          "blockHash": "0xdb4871d073e426b6e31c140a1d20ca196108032c17093d64453c8bea3e7b87c8",
          "blockNumber": "0xfc77a0c",
          "blockTimestamp": "0x69f5bc92",
          "transactionHash": "0x3982a0ca9b754fadf251d8ef7146e83bf8c3bd794e730816a586df07b7678ace",
          "transactionIndex": "0x1",
          "logIndex": "0x4d",
          "removed": false
        },
        {
          "address": "0xf0212bc88af989feeaf494fb23c8c065583da2e3",
          "topics": [
            "0xddf252ad1be2c89b69c2b068fc378daa952ba7f163c4a11628f55a4df523b3ef",
            "0x0000000000000000000000000000000000000000000000000000000000000000",
            "0x0000000000000000000000005b1e22ec6d83fa3008be3bc39c69e3577e3411d4",
            "0x000000000000000000000000000000000000000000000000000000000000004e"
          ],
          "data": "0x",
          "blockHash": "0xdb4871d073e426b6e31c140a1d20ca196108032c17093d64453c8bea3e7b87c8",
          "blockNumber": "0xfc77a0c",
          "blockTimestamp": "0x69f5bc92",
          "transactionHash": "0x3982a0ca9b754fadf251d8ef7146e83bf8c3bd794e730816a586df07b7678ace",
          "transactionIndex": "0x1",
          "logIndex": "0x4e",
          "removed": false
        },
        {
          "address": "0xf0212bc88af989feeaf494fb23c8c065583da2e3",
          "topics": [
            "0xddf252ad1be2c89b69c2b068fc378daa952ba7f163c4a11628f55a4df523b3ef",
            "0x0000000000000000000000000000000000000000000000000000000000000000",
            "0x0000000000000000000000005b1e22ec6d83fa3008be3bc39c69e3577e3411d4",
            "0x000000000000000000000000000000000000000000000000000000000000004f"
          ],
          "data": "0x",
          "blockHash": "0xdb4871d073e426b6e31c140a1d20ca196108032c17093d64453c8bea3e7b87c8",
          "blockNumber": "0xfc77a0c",
          "blockTimestamp": "0x69f5bc92",
          "transactionHash": "0x3982a0ca9b754fadf251d8ef7146e83bf8c3bd794e730816a586df07b7678ace",
          "transactionIndex": "0x1",
          "logIndex": "0x4f",
          "removed": false
        },
        {
          "address": "0xf0212bc88af989feeaf494fb23c8c065583da2e3",
          "topics": [
            "0xddf252ad1be2c89b69c2b068fc378daa952ba7f163c4a11628f55a4df523b3ef",
            "0x0000000000000000000000000000000000000000000000000000000000000000",
            "0x0000000000000000000000005b1e22ec6d83fa3008be3bc39c69e3577e3411d4",
            "0x0000000000000000000000000000000000000000000000000000000000000050"
          ],
          "data": "0x",
          "blockHash": "0xdb4871d073e426b6e31c140a1d20ca196108032c17093d64453c8bea3e7b87c8",
          "blockNumber": "0xfc77a0c",
          "blockTimestamp": "0x69f5bc92",
          "transactionHash": "0x3982a0ca9b754fadf251d8ef7146e83bf8c3bd794e730816a586df07b7678ace",
          "transactionIndex": "0x1",
          "logIndex": "0x50",
          "removed": false
        },
        {
          "address": "0xf0212bc88af989feeaf494fb23c8c065583da2e3",
          "topics": [
            "0xddf252ad1be2c89b69c2b068fc378daa952ba7f163c4a11628f55a4df523b3ef",
            "0x0000000000000000000000000000000000000000000000000000000000000000",
            "0x0000000000000000000000005b1e22ec6d83fa3008be3bc39c69e3577e3411d4",
            "0x0000000000000000000000000000000000000000000000000000000000000051"
          ],
          "data": "0x",
          "blockHash": "0xdb4871d073e426b6e31c140a1d20ca196108032c17093d64453c8bea3e7b87c8",
          "blockNumber": "0xfc77a0c",
          "blockTimestamp": "0x69f5bc92",
          "transactionHash": "0x3982a0ca9b754fadf251d8ef7146e83bf8c3bd794e730816a586df07b7678ace",
          "transactionIndex": "0x1",
          "logIndex": "0x51",
          "removed": false
        },
        {
          "address": "0xf0212bc88af989feeaf494fb23c8c065583da2e3",
          "topics": [
            "0xddf252ad1be2c89b69c2b068fc378daa952ba7f163c4a11628f55a4df523b3ef",
            "0x0000000000000000000000000000000000000000000000000000000000000000",
            "0x0000000000000000000000005b1e22ec6d83fa3008be3bc39c69e3577e3411d4",
            "0x0000000000000000000000000000000000000000000000000000000000000052"
          ],
          "data": "0x",
          "blockHash": "0xdb4871d073e426b6e31c140a1d20ca196108032c17093d64453c8bea3e7b87c8",
          "blockNumber": "0xfc77a0c",
          "blockTimestamp": "0x69f5bc92",
          "transactionHash": "0x3982a0ca9b754fadf251d8ef7146e83bf8c3bd794e730816a586df07b7678ace",
          "transactionIndex": "0x1",
          "logIndex": "0x52",
          "removed": false
        },
        {
          "address": "0xf0212bc88af989feeaf494fb23c8c065583da2e3",
          "topics": [
            "0xddf252ad1be2c89b69c2b068fc378daa952ba7f163c4a11628f55a4df523b3ef",
            "0x0000000000000000000000000000000000000000000000000000000000000000",
            "0x0000000000000000000000005b1e22ec6d83fa3008be3bc39c69e3577e3411d4",
            "0x0000000000000000000000000000000000000000000000000000000000000053"
          ],
          "data": "0x",
          "blockHash": "0xdb4871d073e426b6e31c140a1d20ca196108032c17093d64453c8bea3e7b87c8",
          "blockNumber": "0xfc77a0c",
          "blockTimestamp": "0x69f5bc92",
          "transactionHash": "0x3982a0ca9b754fadf251d8ef7146e83bf8c3bd794e730816a586df07b7678ace",
          "transactionIndex": "0x1",
          "logIndex": "0x53",
          "removed": false
        },
        {
          "address": "0xf0212bc88af989feeaf494fb23c8c065583da2e3",
          "topics": [
            "0xddf252ad1be2c89b69c2b068fc378daa952ba7f163c4a11628f55a4df523b3ef",
            "0x0000000000000000000000000000000000000000000000000000000000000000",
            "0x0000000000000000000000005b1e22ec6d83fa3008be3bc39c69e3577e3411d4",
            "0x0000000000000000000000000000000000000000000000000000000000000054"
          ],
          "data": "0x",
          "blockHash": "0xdb4871d073e426b6e31c140a1d20ca196108032c17093d64453c8bea3e7b87c8",
          "blockNumber": "0xfc77a0c",
          "blockTimestamp": "0x69f5bc92",
          "transactionHash": "0x3982a0ca9b754fadf251d8ef7146e83bf8c3bd794e730816a586df07b7678ace",
          "transactionIndex": "0x1",
          "logIndex": "0x54",
          "removed": false
        },
        {
          "address": "0xf0212bc88af989feeaf494fb23c8c065583da2e3",
          "topics": [
            "0xddf252ad1be2c89b69c2b068fc378daa952ba7f163c4a11628f55a4df523b3ef",
            "0x0000000000000000000000000000000000000000000000000000000000000000",
            "0x0000000000000000000000005b1e22ec6d83fa3008be3bc39c69e3577e3411d4",
            "0x0000000000000000000000000000000000000000000000000000000000000055"
          ],
          "data": "0x",
          "blockHash": "0xdb4871d073e426b6e31c140a1d20ca196108032c17093d64453c8bea3e7b87c8",
          "blockNumber": "0xfc77a0c",
          "blockTimestamp": "0x69f5bc92",
          "transactionHash": "0x3982a0ca9b754fadf251d8ef7146e83bf8c3bd794e730816a586df07b7678ace",
          "transactionIndex": "0x1",
          "logIndex": "0x55",
          "removed": false
        },
        {
          "address": "0xf0212bc88af989feeaf494fb23c8c065583da2e3",
          "topics": [
            "0xddf252ad1be2c89b69c2b068fc378daa952ba7f163c4a11628f55a4df523b3ef",
            "0x0000000000000000000000000000000000000000000000000000000000000000",
            "0x0000000000000000000000005b1e22ec6d83fa3008be3bc39c69e3577e3411d4",
            "0x0000000000000000000000000000000000000000000000000000000000000056"
          ],
          "data": "0x",
          "blockHash": "0xdb4871d073e426b6e31c140a1d20ca196108032c17093d64453c8bea3e7b87c8",
          "blockNumber": "0xfc77a0c",
          "blockTimestamp": "0x69f5bc92",
          "transactionHash": "0x3982a0ca9b754fadf251d8ef7146e83bf8c3bd794e730816a586df07b7678ace",
          "transactionIndex": "0x1",
          "logIndex": "0x56",
          "removed": false
        },
        {
          "address": "0xf0212bc88af989feeaf494fb23c8c065583da2e3",
          "topics": [
            "0xddf252ad1be2c89b69c2b068fc378daa952ba7f163c4a11628f55a4df523b3ef",
            "0x0000000000000000000000000000000000000000000000000000000000000000",
            "0x0000000000000000000000005b1e22ec6d83fa3008be3bc39c69e3577e3411d4",
            "0x0000000000000000000000000000000000000000000000000000000000000057"
          ],
          "data": "0x",
          "blockHash": "0xdb4871d073e426b6e31c140a1d20ca196108032c17093d64453c8bea3e7b87c8",
          "blockNumber": "0xfc77a0c",
          "blockTimestamp": "0x69f5bc92",
          "transactionHash": "0x3982a0ca9b754fadf251d8ef7146e83bf8c3bd794e730816a586df07b7678ace",
          "transactionIndex": "0x1",
          "logIndex": "0x57",
          "removed": false
        },
        {
          "address": "0xf0212bc88af989feeaf494fb23c8c065583da2e3",
          "topics": [
            "0xddf252ad1be2c89b69c2b068fc378daa952ba7f163c4a11628f55a4df523b3ef",
            "0x0000000000000000000000000000000000000000000000000000000000000000",
            "0x0000000000000000000000005b1e22ec6d83fa3008be3bc39c69e3577e3411d4",
            "0x0000000000000000000000000000000000000000000000000000000000000058"
          ],
          "data": "0x",
          "blockHash": "0xdb4871d073e426b6e31c140a1d20ca196108032c17093d64453c8bea3e7b87c8",
          "blockNumber": "0xfc77a0c",
          "blockTimestamp": "0x69f5bc92",
          "transactionHash": "0x3982a0ca9b754fadf251d8ef7146e83bf8c3bd794e730816a586df07b7678ace",
          "transactionIndex": "0x1",
          "logIndex": "0x58",
          "removed": false
        },
        {
          "address": "0xf0212bc88af989feeaf494fb23c8c065583da2e3",
          "topics": [
            "0xddf252ad1be2c89b69c2b068fc378daa952ba7f163c4a11628f55a4df523b3ef",
            "0x0000000000000000000000000000000000000000000000000000000000000000",
            "0x0000000000000000000000005b1e22ec6d83fa3008be3bc39c69e3577e3411d4",
            "0x0000000000000000000000000000000000000000000000000000000000000059"
          ],
          "data": "0x",
          "blockHash": "0xdb4871d073e426b6e31c140a1d20ca196108032c17093d64453c8bea3e7b87c8",
          "blockNumber": "0xfc77a0c",
          "blockTimestamp": "0x69f5bc92",
          "transactionHash": "0x3982a0ca9b754fadf251d8ef7146e83bf8c3bd794e730816a586df07b7678ace",
          "transactionIndex": "0x1",
          "logIndex": "0x59",
          "removed": false
        },
        {
          "address": "0xf0212bc88af989feeaf494fb23c8c065583da2e3",
          "topics": [
            "0xddf252ad1be2c89b69c2b068fc378daa952ba7f163c4a11628f55a4df523b3ef",
            "0x0000000000000000000000000000000000000000000000000000000000000000",
            "0x0000000000000000000000005b1e22ec6d83fa3008be3bc39c69e3577e3411d4",
            "0x000000000000000000000000000000000000000000000000000000000000005a"
          ],
          "data": "0x",
          "blockHash": "0xdb4871d073e426b6e31c140a1d20ca196108032c17093d64453c8bea3e7b87c8",
          "blockNumber": "0xfc77a0c",
          "blockTimestamp": "0x69f5bc92",
          "transactionHash": "0x3982a0ca9b754fadf251d8ef7146e83bf8c3bd794e730816a586df07b7678ace",
          "transactionIndex": "0x1",
          "logIndex": "0x5a",
          "removed": false
        },
        {
          "address": "0xf0212bc88af989feeaf494fb23c8c065583da2e3",
          "topics": [
            "0xddf252ad1be2c89b69c2b068fc378daa952ba7f163c4a11628f55a4df523b3ef",
            "0x0000000000000000000000000000000000000000000000000000000000000000",
            "0x0000000000000000000000005b1e22ec6d83fa3008be3bc39c69e3577e3411d4",
            "0x000000000000000000000000000000000000000000000000000000000000005b"
          ],
          "data": "0x",
          "blockHash": "0xdb4871d073e426b6e31c140a1d20ca196108032c17093d64453c8bea3e7b87c8",
          "blockNumber": "0xfc77a0c",
          "blockTimestamp": "0x69f5bc92",
          "transactionHash": "0x3982a0ca9b754fadf251d8ef7146e83bf8c3bd794e730816a586df07b7678ace",
          "transactionIndex": "0x1",
          "logIndex": "0x5b",
          "removed": false
        },
        {
          "address": "0xf0212bc88af989feeaf494fb23c8c065583da2e3",
          "topics": [
            "0xddf252ad1be2c89b69c2b068fc378daa952ba7f163c4a11628f55a4df523b3ef",
            "0x0000000000000000000000000000000000000000000000000000000000000000",
            "0x0000000000000000000000005b1e22ec6d83fa3008be3bc39c69e3577e3411d4",
            "0x000000000000000000000000000000000000000000000000000000000000005c"
          ],
          "data": "0x",
          "blockHash": "0xdb4871d073e426b6e31c140a1d20ca196108032c17093d64453c8bea3e7b87c8",
          "blockNumber": "0xfc77a0c",
          "blockTimestamp": "0x69f5bc92",
          "transactionHash": "0x3982a0ca9b754fadf251d8ef7146e83bf8c3bd794e730816a586df07b7678ace",
          "transactionIndex": "0x1",
          "logIndex": "0x5c",
          "removed": false
        },
        {
          "address": "0xf0212bc88af989feeaf494fb23c8c065583da2e3",
          "topics": [
            "0xddf252ad1be2c89b69c2b068fc378daa952ba7f163c4a11628f55a4df523b3ef",
            "0x0000000000000000000000000000000000000000000000000000000000000000",
            "0x0000000000000000000000005b1e22ec6d83fa3008be3bc39c69e3577e3411d4",
            "0x000000000000000000000000000000000000000000000000000000000000005d"
          ],
          "data": "0x",
          "blockHash": "0xdb4871d073e426b6e31c140a1d20ca196108032c17093d64453c8bea3e7b87c8",
          "blockNumber": "0xfc77a0c",
          "blockTimestamp": "0x69f5bc92",
          "transactionHash": "0x3982a0ca9b754fadf251d8ef7146e83bf8c3bd794e730816a586df07b7678ace",
          "transactionIndex": "0x1",
          "logIndex": "0x5d",
          "removed": false
        },
        {
          "address": "0xf0212bc88af989feeaf494fb23c8c065583da2e3",
          "topics": [
            "0xddf252ad1be2c89b69c2b068fc378daa952ba7f163c4a11628f55a4df523b3ef",
            "0x0000000000000000000000000000000000000000000000000000000000000000",
            "0x0000000000000000000000005b1e22ec6d83fa3008be3bc39c69e3577e3411d4",
            "0x000000000000000000000000000000000000000000000000000000000000005e"
          ],
          "data": "0x",
          "blockHash": "0xdb4871d073e426b6e31c140a1d20ca196108032c17093d64453c8bea3e7b87c8",
          "blockNumber": "0xfc77a0c",
          "blockTimestamp": "0x69f5bc92",
          "transactionHash": "0x3982a0ca9b754fadf251d8ef7146e83bf8c3bd794e730816a586df07b7678ace",
          "transactionIndex": "0x1",
          "logIndex": "0x5e",
          "removed": false
        },
        {
          "address": "0xf0212bc88af989feeaf494fb23c8c065583da2e3",
          "topics": [
            "0xddf252ad1be2c89b69c2b068fc378daa952ba7f163c4a11628f55a4df523b3ef",
            "0x0000000000000000000000000000000000000000000000000000000000000000",
            "0x0000000000000000000000005b1e22ec6d83fa3008be3bc39c69e3577e3411d4",
            "0x000000000000000000000000000000000000000000000000000000000000005f"
          ],
          "data": "0x",
          "blockHash": "0xdb4871d073e426b6e31c140a1d20ca196108032c17093d64453c8bea3e7b87c8",
          "blockNumber": "0xfc77a0c",
          "blockTimestamp": "0x69f5bc92",
          "transactionHash": "0x3982a0ca9b754fadf251d8ef7146e83bf8c3bd794e730816a586df07b7678ace",
          "transactionIndex": "0x1",
          "logIndex": "0x5f",
          "removed": false
        },
        {
          "address": "0xf0212bc88af989feeaf494fb23c8c065583da2e3",
          "topics": [
            "0xddf252ad1be2c89b69c2b068fc378daa952ba7f163c4a11628f55a4df523b3ef",
            "0x0000000000000000000000000000000000000000000000000000000000000000",
            "0x0000000000000000000000005b1e22ec6d83fa3008be3bc39c69e3577e3411d4",
            "0x0000000000000000000000000000000000000000000000000000000000000060"
          ],
          "data": "0x",
          "blockHash": "0xdb4871d073e426b6e31c140a1d20ca196108032c17093d64453c8bea3e7b87c8",
          "blockNumber": "0xfc77a0c",
          "blockTimestamp": "0x69f5bc92",
          "transactionHash": "0x3982a0ca9b754fadf251d8ef7146e83bf8c3bd794e730816a586df07b7678ace",
          "transactionIndex": "0x1",
          "logIndex": "0x60",
          "removed": false
        },
        {
          "address": "0xf0212bc88af989feeaf494fb23c8c065583da2e3",
          "topics": [
            "0xddf252ad1be2c89b69c2b068fc378daa952ba7f163c4a11628f55a4df523b3ef",
            "0x0000000000000000000000000000000000000000000000000000000000000000",
            "0x0000000000000000000000005b1e22ec6d83fa3008be3bc39c69e3577e3411d4",
            "0x0000000000000000000000000000000000000000000000000000000000000061"
          ],
          "data": "0x",
          "blockHash": "0xdb4871d073e426b6e31c140a1d20ca196108032c17093d64453c8bea3e7b87c8",
          "blockNumber": "0xfc77a0c",
          "blockTimestamp": "0x69f5bc92",
          "transactionHash": "0x3982a0ca9b754fadf251d8ef7146e83bf8c3bd794e730816a586df07b7678ace",
          "transactionIndex": "0x1",
          "logIndex": "0x61",
          "removed": false
        },
        {
          "address": "0xf0212bc88af989feeaf494fb23c8c065583da2e3",
          "topics": [
            "0xddf252ad1be2c89b69c2b068fc378daa952ba7f163c4a11628f55a4df523b3ef",
            "0x0000000000000000000000000000000000000000000000000000000000000000",
            "0x0000000000000000000000005b1e22ec6d83fa3008be3bc39c69e3577e3411d4",
            "0x0000000000000000000000000000000000000000000000000000000000000062"
          ],
          "data": "0x",
          "blockHash": "0xdb4871d073e426b6e31c140a1d20ca196108032c17093d64453c8bea3e7b87c8",
          "blockNumber": "0xfc77a0c",
          "blockTimestamp": "0x69f5bc92",
          "transactionHash": "0x3982a0ca9b754fadf251d8ef7146e83bf8c3bd794e730816a586df07b7678ace",
          "transactionIndex": "0x1",
          "logIndex": "0x62",
          "removed": false
        },
        {
          "address": "0xf0212bc88af989feeaf494fb23c8c065583da2e3",
          "topics": [
            "0xddf252ad1be2c89b69c2b068fc378daa952ba7f163c4a11628f55a4df523b3ef",
            "0x0000000000000000000000000000000000000000000000000000000000000000",
            "0x0000000000000000000000005b1e22ec6d83fa3008be3bc39c69e3577e3411d4",
            "0x0000000000000000000000000000000000000000000000000000000000000063"
          ],
          "data": "0x",
          "blockHash": "0xdb4871d073e426b6e31c140a1d20ca196108032c17093d64453c8bea3e7b87c8",
          "blockNumber": "0xfc77a0c",
          "blockTimestamp": "0x69f5bc92",
          "transactionHash": "0x3982a0ca9b754fadf251d8ef7146e83bf8c3bd794e730816a586df07b7678ace",
          "transactionIndex": "0x1",
          "logIndex": "0x63",
          "removed": false
        },
        {
          "address": "0xf0212bc88af989feeaf494fb23c8c065583da2e3",
          "topics": [
            "0xddf252ad1be2c89b69c2b068fc378daa952ba7f163c4a11628f55a4df523b3ef",
            "0x0000000000000000000000000000000000000000000000000000000000000000",
            "0x0000000000000000000000005b1e22ec6d83fa3008be3bc39c69e3577e3411d4",
            "0x0000000000000000000000000000000000000000000000000000000000000064"
          ],
          "data": "0x",
          "blockHash": "0xdb4871d073e426b6e31c140a1d20ca196108032c17093d64453c8bea3e7b87c8",
          "blockNumber": "0xfc77a0c",
          "blockTimestamp": "0x69f5bc92",
          "transactionHash": "0x3982a0ca9b754fadf251d8ef7146e83bf8c3bd794e730816a586df07b7678ace",
          "transactionIndex": "0x1",
          "logIndex": "0x64",
          "removed": false
        },
        {
          "address": "0xf0212bc88af989feeaf494fb23c8c065583da2e3",
          "topics": [
            "0x067fc5297e7400c0311c67165a421b5ef74cb22fa48f3bd73fe52f8187cf9819",
            "0x0000000000000000000000000000000000000000000000000000000000000001",
            "0x0000000000000000000000000000000000000000000000000000000000000064",
            "0x0000000000000000000000005b1e22ec6d83fa3008be3bc39c69e3577e3411d4"
          ],
          "data": "0x",
          "blockHash": "0xdb4871d073e426b6e31c140a1d20ca196108032c17093d64453c8bea3e7b87c8",
          "blockNumber": "0xfc77a0c",
          "blockTimestamp": "0x69f5bc92",
          "transactionHash": "0x3982a0ca9b754fadf251d8ef7146e83bf8c3bd794e730816a586df07b7678ace",
          "transactionIndex": "0x1",
          "logIndex": "0x65",
          "removed": false
        }
      ],
      "logsBloom": "0x26200090300010000049005400e4a000000082002012204002800000002000022082000140004a022a00200204a1040400213000060481a020200016122c0080041039000020008880880008020000031843004000048211804082041002001029000a4802084020000000098080083c600041086000060010000010044008400080020c405008000100000000080412180019a0000e4000000002c402020080002401000902000020008183030400600010000842a0806080201008040740004030100280000090440000000000010408642000a24044082400012a401c603ab000522280502008080002100020000008002000108004048319248002882400",
      "type": "0x2",
      "transactionHash": "0x3982a0ca9b754fadf251d8ef7146e83bf8c3bd794e730816a586df07b7678ace",
      "transactionIndex": "0x1",
      "blockHash": "0xdb4871d073e426b6e31c140a1d20ca196108032c17093d64453c8bea3e7b87c8",
      "blockNumber": "0xfc77a0c",
      "gasUsed": "0x500021",
      "effectiveGasPrice": "0x1312d00",
      "from": "0x5b1e22ec6d83fa3008be3bc39c69e3577e3411d4",
      "to": null,
      "contractAddress": "0xf0212bc88af989feeaf494fb23c8c065583da2e3",
      "gasUsedForL1": "0x0",
      "l1BlockNumber": "0xa466df",
      "timeboosted": false
    },
    {
      "status": "0x1",
      "cumulativeGasUsed": "0x1c755c",
      "logs": [
        {
          "address": "0x6987ef804f2079ed5ef59e47c93874abcb50483a",
          "topics": [
            "0x8be0079c531659141344cd1fd0a4f28419497f9722a3daafe3b4186f6b6457e0",
            "0x0000000000000000000000000000000000000000000000000000000000000000",
            "0x0000000000000000000000005b1e22ec6d83fa3008be3bc39c69e3577e3411d4"
          ],
          "data": "0x",
          "blockHash": "0x18eab6a92f3f1f10bb4f76a662b6457f27295ac1282999eb9465fe613e6c5acf",
          "blockNumber": "0xfc77a0f",
          "blockTimestamp": "0x69f5bc93",
          "transactionHash": "0x15082a6c6c163f6b897c03a74abdf9e89d0c75b87e10ac335429ef44a418e22c",
          "transactionIndex": "0x1",
          "logIndex": "0x0",
          "removed": false
        },
        {
          "address": "0x6987ef804f2079ed5ef59e47c93874abcb50483a",
          "topics": [
            "0xb3fc5b8fa795a14232efd69faeabfa4d6ae1add7013b9ba01c3ffbda68dc4fba",
            "0x0000000000000000000000005b1e22ec6d83fa3008be3bc39c69e3577e3411d4",
            "0x000000000000000000000000f0212bc88af989feeaf494fb23c8c065583da2e3",
            "0x00000000000000000000000075faf114eafb1bdbe2f0316df893fd58ce46aa4d"
          ],
          "data": "0x",
          "blockHash": "0x18eab6a92f3f1f10bb4f76a662b6457f27295ac1282999eb9465fe613e6c5acf",
          "blockNumber": "0xfc77a0f",
          "blockTimestamp": "0x69f5bc93",
          "transactionHash": "0x15082a6c6c163f6b897c03a74abdf9e89d0c75b87e10ac335429ef44a418e22c",
          "transactionIndex": "0x1",
          "logIndex": "0x1",
          "removed": false
        }
      ],
      "logsBloom": "0x00000000000000000000000000000800000000000000004000800040000000000000000000000000000000000000000000008000000000000000000010000000000000000000000000000000000000000001000000000000000000000000000000000000020000000000000800000800020000000000002000000000002000400000000000000000080000000000000000000000000000000000000000010000000000000000000000000000000000000000000000000000000000000000000020000000000000200000000000000000000000000000000000000000000020000000000000002000000000001000000000000000000000000000000000000000",
      "type": "0x2",
      "transactionHash": "0x15082a6c6c163f6b897c03a74abdf9e89d0c75b87e10ac335429ef44a418e22c",
      "transactionIndex": "0x1",
      "blockHash": "0x18eab6a92f3f1f10bb4f76a662b6457f27295ac1282999eb9465fe613e6c5acf",
      "blockNumber": "0xfc77a0f",
      "gasUsed": "0x1c755c",
      "effectiveGasPrice": "0x139b0b0",
      "from": "0x5b1e22ec6d83fa3008be3bc39c69e3577e3411d4",
      "to": null,
      "contractAddress": "0x6987ef804f2079ed5ef59e47c93874abcb50483a",
      "gasUsedForL1": "0x0",
      "l1BlockNumber": "0xa466df",
      "timeboosted": false
    },
    {
      "status": "0x1",
      "cumulativeGasUsed": "0x14b480",
      "logs": [],
      "logsBloom": "0x00000000000000000000000000000000000000000000000000000000000000000000000000000000000000000000000000000000000000000000000000000000000000000000000000000000000000000000000000000000000000000000000000000000000000000000000000000000000000000000000000000000000000000000000000000000000000000000000000000000000000000000000000000000000000000000000000000000000000000000000000000000000000000000000000000000000000000000000000000000000000000000000000000000000000000000000000000000000000000000000000000000000000000000000000000000",
      "type": "0x2",
      "transactionHash": "0xf6096c80005f1949487f57b10eeaa73c3e51e18dd923912c0d43979ec6aeffbc",
      "transactionIndex": "0x2",
      "blockHash": "0x325f30de5baf017549f338f5b20b79bf5ff18fdb722e1a713e4cf5472621d0a7",
      "blockNumber": "0xfc77a11",
      "gasUsed": "0x146278",
      "effectiveGasPrice": "0x1340390",
      "from": "0x5b1e22ec6d83fa3008be3bc39c69e3577e3411d4",
      "to": null,
      "contractAddress": "0x91db19b7f276c797ca400533063f51ae907bbc87",
      "gasUsedForL1": "0x0",
      "l1BlockNumber": "0xa466df",
      "timeboosted": false
    },
    {
      "status": "0x1",
      "cumulativeGasUsed": "0xc67a7",
      "logs": [
        {
          "address": "0x5e85a91d5488509fc61edae1616cf3f312dbf6b8",
          "topics": [
            "0x8be0079c531659141344cd1fd0a4f28419497f9722a3daafe3b4186f6b6457e0",
            "0x0000000000000000000000000000000000000000000000000000000000000000",
            "0x0000000000000000000000005b1e22ec6d83fa3008be3bc39c69e3577e3411d4"
          ],
          "data": "0x",
          "blockHash": "0x8550b3293adaf3715264cff6da02fc550eaeaed8337a3251f7fbbf50eb6b50af",
          "blockNumber": "0xfc77a13",
          "blockTimestamp": "0x69f5bc94",
          "transactionHash": "0xbf71d2716ba4aebac06dd70b89da87d4608cd1d7a3d86d60afab754d2a2eff98",
          "transactionIndex": "0x1",
          "logIndex": "0x0",
          "removed": false
        },
        {
          "address": "0x6987ef804f2079ed5ef59e47c93874abcb50483a",
          "topics": [
            "0x4a465a9bd819d9662563c1e11ae958f8109e437e7f4bf1c6ef0b9a7b3f35d478",
            "0x50524f434553534f520000000000000000000000000000000000000000000000",
            "0x0000000000000000000000005e85a91d5488509fc61edae1616cf3f312dbf6b8",
            "0x00000000000000000000000091db19b7f276c797ca400533063f51ae907bbc87"
          ],
          "data": "0x",
          "blockHash": "0x8550b3293adaf3715264cff6da02fc550eaeaed8337a3251f7fbbf50eb6b50af",
          "blockNumber": "0xfc77a13",
          "blockTimestamp": "0x69f5bc94",
          "transactionHash": "0xbf71d2716ba4aebac06dd70b89da87d4608cd1d7a3d86d60afab754d2a2eff98",
          "transactionIndex": "0x1",
          "logIndex": "0x1",
          "removed": false
        },
        {
          "address": "0x6987ef804f2079ed5ef59e47c93874abcb50483a",
          "topics": [
            "0xc2f004180ee0fec7f51032b23021a16d6858ecc111e5fbc86096eb5016a5a66f",
            "0x0000000000000000000000000000000000000000000000000000000000000000",
            "0x00000000000000000000000091db19b7f276c797ca400533063f51ae907bbc87"
          ],
          "data": "0x",
          "blockHash": "0x8550b3293adaf3715264cff6da02fc550eaeaed8337a3251f7fbbf50eb6b50af",
          "blockNumber": "0xfc77a13",
          "blockTimestamp": "0x69f5bc94",
          "transactionHash": "0xbf71d2716ba4aebac06dd70b89da87d4608cd1d7a3d86d60afab754d2a2eff98",
          "transactionIndex": "0x1",
          "logIndex": "0x2",
          "removed": false
        }
      ],
      "logsBloom": "0x00000000000000000000000000000800000000000000004000800040000000000000002000000000000000000000000000000000000000080000000000000000000000000000000000000000000000000001000000000000000000000000040000000000020000000000000800000800000000000000000000200010000000c04000000000000000000000000000000000000020000010000000000000000000000000000000000040004000000004000000000000000000000000000000000020000000002000000000040000000000000001000000000000000000000020000000000000002000000000000000000000000000840000000000000000200000",
      "type": "0x2",
      "transactionHash": "0xbf71d2716ba4aebac06dd70b89da87d4608cd1d7a3d86d60afab754d2a2eff98",
      "transactionIndex": "0x1",
      "blockHash": "0x8550b3293adaf3715264cff6da02fc550eaeaed8337a3251f7fbbf50eb6b50af",
      "blockNumber": "0xfc77a13",
      "gasUsed": "0xc67a7",
      "effectiveGasPrice": "0x137cc50",
      "from": "0x5b1e22ec6d83fa3008be3bc39c69e3577e3411d4",
      "to": "0x6987ef804f2079ed5ef59e47c93874abcb50483a",
      "contractAddress": null,
      "gasUsedForL1": "0x0",
      "l1BlockNumber": "0xa466df",
      "timeboosted": false
    },
    {
      "status": "0x1",
      "cumulativeGasUsed": "0xfc071",
      "logs": [
        {
          "address": "0xf0212bc88af989feeaf494fb23c8c065583da2e3",
          "topics": [
            "0x17307eab39ab6107e8899845ad3d59bd9653f200f220920489ca2b5937696c31",
            "0x0000000000000000000000005b1e22ec6d83fa3008be3bc39c69e3577e3411d4",
            "0x0000000000000000000000005e85a91d5488509fc61edae1616cf3f312dbf6b8"
          ],
          "data": "0x0000000000000000000000000000000000000000000000000000000000000001",
          "blockHash": "0xa45109e7cb8b216dee2edd8d98ee9b1f28f917ca9a032e1b88b58db479f24d1b",
          "blockNumber": "0xfc77a15",
          "blockTimestamp": "0x69f5bc94",
          "transactionHash": "0x8c2cb0323f4c7ec3d46be03783fbe222f1e0724382e4e5941c66a0748259d367",
          "transactionIndex": "0x5",
          "logIndex": "0x4",
          "removed": false
        }
      ],
      "logsBloom": "0x00000000000000000000000000000000000000000000204000000000000000000000000000000000000000000000000000000000000000080000000000000000000000000000000000000000000000000000000000000000000000000000000002000000000000000000000800000000000000000000000000000000000000800000000000000000000000000000000000000000000010000000000000000000000000000000000000000001000000000000000000000000000000000000000000000000000000000000000000000000000000000000000000000000000000000000600800002000000000000000000000000000000000000000000000000000",
      "type": "0x2",
      "transactionHash": "0x8c2cb0323f4c7ec3d46be03783fbe222f1e0724382e4e5941c66a0748259d367",
      "transactionIndex": "0x5",
      "blockHash": "0xa45109e7cb8b216dee2edd8d98ee9b1f28f917ca9a032e1b88b58db479f24d1b",
      "blockNumber": "0xfc77a15",
      "gasUsed": "0xb625",
      "effectiveGasPrice": "0x1336750",
      "from": "0x5b1e22ec6d83fa3008be3bc39c69e3577e3411d4",
      "to": "0xf0212bc88af989feeaf494fb23c8c065583da2e3",
      "contractAddress": null,
      "gasUsedForL1": "0x0",
      "l1BlockNumber": "0xa466df",
      "timeboosted": false
    }
  ],
  "libraries": [
    "src/libraries/logic/FundProcessorLogic.sol:FundProcessorLogic:0x4d730D7C5403f0b62fA855cC1c3846dc1673c1B1",
    "src/libraries/logic/ProcessingPaymentLogic.sol:ProcessingPaymentLogic:0xb045De9904c56e738a845AA274916Db2261F03a5",
    "src/libraries/logic/WithdrawProcessorLogic.sol:WithdrawProcessorLogic:0x6709df9F3211B6A65c1B0451B1a440f5dBaAB0a7"
  ],
  "pending": [],
  "returns": {
    "processor": {
      "internal_type": "address",
      "value": "0x5e85A91d5488509FC61EDae1616cF3f312DbF6b8"
    }
  },
  "timestamp": 1777712276903,
  "chain": 421614,
  "commit": "d628a69"
}